{
  "contractName": "Accounts",
  "abi": [
    {
      "inputs": [],
      "stateMutability": "nonpayable",
      "type": "constructor"
    },
    {
      "anonymous": false,
      "inputs": [
        {
          "indexed": false,
          "internalType": "address",
          "name": "user",
          "type": "address"
        },
        {
          "indexed": false,
          "internalType": "bool",
          "name": "flag",
          "type": "bool"
        }
      ],
      "name": "BlacklistStatus",
      "type": "event"
    },
    {
      "anonymous": false,
      "inputs": [
        {
          "indexed": true,
          "internalType": "bytes32",
          "name": "role",
          "type": "bytes32"
        },
        {
          "indexed": true,
          "internalType": "bytes32",
          "name": "previousAdminRole",
          "type": "bytes32"
        },
        {
          "indexed": true,
          "internalType": "bytes32",
          "name": "newAdminRole",
          "type": "bytes32"
        }
      ],
      "name": "RoleAdminChanged",
      "type": "event"
    },
    {
      "anonymous": false,
      "inputs": [
        {
          "indexed": true,
          "internalType": "bytes32",
          "name": "role",
          "type": "bytes32"
        },
        {
          "indexed": true,
          "internalType": "address",
          "name": "account",
          "type": "address"
        },
        {
          "indexed": true,
          "internalType": "address",
          "name": "sender",
          "type": "address"
        }
      ],
      "name": "RoleGranted",
      "type": "event"
    },
    {
      "anonymous": false,
      "inputs": [
        {
          "indexed": true,
          "internalType": "bytes32",
          "name": "role",
          "type": "bytes32"
        },
        {
          "indexed": true,
          "internalType": "address",
          "name": "account",
          "type": "address"
        },
        {
          "indexed": true,
          "internalType": "address",
          "name": "sender",
          "type": "address"
        }
      ],
      "name": "RoleRevoked",
      "type": "event"
    },
    {
      "inputs": [],
      "name": "ADMIN_ROLE",
      "outputs": [
        {
          "internalType": "bytes32",
          "name": "",
          "type": "bytes32"
        }
      ],
      "stateMutability": "view",
      "type": "function",
      "constant": true
    },
    {
      "inputs": [],
      "name": "DEFAULT_ADMIN_ROLE",
      "outputs": [
        {
          "internalType": "bytes32",
          "name": "",
          "type": "bytes32"
        }
      ],
      "stateMutability": "view",
      "type": "function",
      "constant": true
    },
    {
      "inputs": [
        {
          "internalType": "bytes32",
          "name": "role",
          "type": "bytes32"
        }
      ],
      "name": "getRoleAdmin",
      "outputs": [
        {
          "internalType": "bytes32",
          "name": "",
          "type": "bytes32"
        }
      ],
      "stateMutability": "view",
      "type": "function",
      "constant": true
    },
    {
      "inputs": [
        {
          "internalType": "bytes32",
          "name": "role",
          "type": "bytes32"
        },
        {
          "internalType": "uint256",
          "name": "index",
          "type": "uint256"
        }
      ],
      "name": "getRoleMember",
      "outputs": [
        {
          "internalType": "address",
          "name": "",
          "type": "address"
        }
      ],
      "stateMutability": "view",
      "type": "function",
      "constant": true
    },
    {
      "inputs": [
        {
          "internalType": "bytes32",
          "name": "role",
          "type": "bytes32"
        }
      ],
      "name": "getRoleMemberCount",
      "outputs": [
        {
          "internalType": "uint256",
          "name": "",
          "type": "uint256"
        }
      ],
      "stateMutability": "view",
      "type": "function",
      "constant": true
    },
    {
      "inputs": [
        {
          "internalType": "bytes32",
          "name": "role",
          "type": "bytes32"
        },
        {
          "internalType": "address",
          "name": "account",
          "type": "address"
        }
      ],
      "name": "grantRole",
      "outputs": [],
      "stateMutability": "nonpayable",
      "type": "function"
    },
    {
      "inputs": [
        {
          "internalType": "bytes32",
          "name": "role",
          "type": "bytes32"
        },
        {
          "internalType": "address",
          "name": "account",
          "type": "address"
        }
      ],
      "name": "hasRole",
      "outputs": [
        {
          "internalType": "bool",
          "name": "",
          "type": "bool"
        }
      ],
      "stateMutability": "view",
      "type": "function",
      "constant": true
    },
    {
      "inputs": [
        {
          "internalType": "bytes32",
          "name": "role",
          "type": "bytes32"
        },
        {
          "internalType": "address",
          "name": "account",
          "type": "address"
        }
      ],
      "name": "renounceRole",
      "outputs": [],
      "stateMutability": "nonpayable",
      "type": "function"
    },
    {
      "inputs": [
        {
          "internalType": "bytes32",
          "name": "role",
          "type": "bytes32"
        },
        {
          "internalType": "address",
          "name": "account",
          "type": "address"
        }
      ],
      "name": "revokeRole",
      "outputs": [],
      "stateMutability": "nonpayable",
      "type": "function"
    },
    {
      "inputs": [
        {
          "internalType": "bytes4",
          "name": "interfaceId",
          "type": "bytes4"
        }
      ],
      "name": "supportsInterface",
      "outputs": [
        {
          "internalType": "bool",
          "name": "",
          "type": "bool"
        }
      ],
      "stateMutability": "view",
      "type": "function",
      "constant": true
    },
    {
      "inputs": [],
      "name": "treasury",
      "outputs": [
        {
          "internalType": "address",
          "name": "",
          "type": "address"
        }
      ],
      "stateMutability": "view",
      "type": "function",
      "constant": true
    },
    {
      "inputs": [
        {
          "internalType": "address",
          "name": "admin",
          "type": "address"
        }
      ],
      "name": "addAdmin",
      "outputs": [],
      "stateMutability": "nonpayable",
      "type": "function"
    },
    {
      "inputs": [
        {
          "internalType": "address",
          "name": "admin",
          "type": "address"
        }
      ],
      "name": "removeAdmin",
      "outputs": [],
      "stateMutability": "nonpayable",
      "type": "function"
    },
    {
      "inputs": [
        {
          "internalType": "address",
          "name": "user",
          "type": "address"
        }
      ],
      "name": "getAccount",
      "outputs": [
        {
          "components": [
            {
              "internalType": "address",
              "name": "account",
              "type": "address"
            },
            {
              "internalType": "bool",
              "name": "isAgent",
              "type": "bool"
            },
            {
              "internalType": "uint256",
              "name": "commissions",
              "type": "uint256"
            },
            {
              "internalType": "bool",
              "name": "isExcludedFromTransferFee",
              "type": "bool"
            },
            {
              "internalType": "bool",
              "name": "isBlacklisted",
              "type": "bool"
            }
          ],
          "internalType": "struct Accounts.AccountStruct",
          "name": "",
          "type": "tuple"
        }
      ],
      "stateMutability": "view",
      "type": "function",
      "constant": true
    },
    {
      "inputs": [
        {
          "internalType": "address",
          "name": "user",
          "type": "address"
        },
        {
          "internalType": "uint256",
          "name": "amount",
          "type": "uint256"
        }
      ],
      "name": "updateCommissions",
      "outputs": [],
      "stateMutability": "nonpayable",
      "type": "function"
    },
    {
      "inputs": [
        {
          "internalType": "address",
          "name": "user",
          "type": "address"
        }
      ],
      "name": "toggleIsBlacklisted",
      "outputs": [],
      "stateMutability": "nonpayable",
      "type": "function"
    },
    {
      "inputs": [
        {
          "internalType": "address",
          "name": "user",
          "type": "address"
        }
      ],
      "name": "isBlacklisted",
      "outputs": [
        {
          "internalType": "bool",
          "name": "",
          "type": "bool"
        }
      ],
      "stateMutability": "view",
      "type": "function",
      "constant": true
    },
    {
      "inputs": [],
      "name": "getCommissions",
      "outputs": [
        {
          "internalType": "uint256",
          "name": "",
          "type": "uint256"
        }
      ],
      "stateMutability": "view",
      "type": "function",
      "constant": true
    },
    {
      "inputs": [
        {
          "internalType": "address",
          "name": "agent",
          "type": "address"
        }
      ],
      "name": "registerAgent",
      "outputs": [],
      "stateMutability": "nonpayable",
      "type": "function"
    },
    {
      "inputs": [
        {
          "internalType": "address",
          "name": "agent",
          "type": "address"
        }
      ],
      "name": "toggleIsAgent",
      "outputs": [],
      "stateMutability": "nonpayable",
      "type": "function"
    },
    {
      "inputs": [
        {
          "internalType": "address",
          "name": "agent",
          "type": "address"
        }
      ],
      "name": "isAgent",
      "outputs": [
        {
          "internalType": "bool",
          "name": "",
          "type": "bool"
        }
      ],
      "stateMutability": "view",
      "type": "function",
      "constant": true
    },
    {
      "inputs": [
        {
          "internalType": "address",
          "name": "account",
          "type": "address"
        }
      ],
      "name": "toggleIsExcludedFromTransferFee",
      "outputs": [],
      "stateMutability": "nonpayable",
      "type": "function"
    },
    {
      "inputs": [
        {
          "internalType": "address",
          "name": "account",
          "type": "address"
        }
      ],
      "name": "isExcludedFromTransferFee",
      "outputs": [
        {
          "internalType": "bool",
          "name": "",
          "type": "bool"
        }
      ],
      "stateMutability": "view",
      "type": "function",
      "constant": true
    }
  ],
  "bytecode": "0x60806040523480156200001157600080fd5b50620000447fa49807205ce4d355092ef5a8a18f56e8913cf4a201fbe287825b095693c21775336200010860201b60201c565b33600260006101000a81548173ffffffffffffffffffffffffffffffffffffffff021916908373ffffffffffffffffffffffffffffffffffffffff160217905550600160036000600260009054906101000a900473ffffffffffffffffffffffffffffffffffffffff1673ffffffffffffffffffffffffffffffffffffffff1673ffffffffffffffffffffffffffffffffffffffff16815260200190815260200160002060020160006101000a81548160ff02191690831515021790555062000394565b6200011a82826200011e60201b60201c565b5050565b6200013082826200015c60201b60201c565b6200015781600160008581526020019081526020016000206200024d60201b90919060201c565b505050565b6200016e82826200028560201b60201c565b6200024957600160008084815260200190815260200160002060000160008373ffffffffffffffffffffffffffffffffffffffff1673ffffffffffffffffffffffffffffffffffffffff16815260200190815260200160002060006101000a81548160ff021916908315150217905550620001ee620002ef60201b60201c565b73ffffffffffffffffffffffffffffffffffffffff168173ffffffffffffffffffffffffffffffffffffffff16837f2f8788117e7eff1d82e926ec794901d17c78024a50270940304540a733656f0d60405160405180910390a45b5050565b60006200027d836000018373ffffffffffffffffffffffffffffffffffffffff1660001b620002f760201b60201c565b905092915050565b600080600084815260200190815260200160002060000160008373ffffffffffffffffffffffffffffffffffffffff1673ffffffffffffffffffffffffffffffffffffffff16815260200190815260200160002060009054906101000a900460ff16905092915050565b600033905090565b60006200030b83836200037160201b60201c565b620003665782600001829080600181540180825580915050600190039060005260206000200160009091909190915055826000018054905083600101600084815260200190815260200160002081905550600190506200036b565b600090505b92915050565b600080836001016000848152602001908152602001600020541415905092915050565b61215280620003a46000396000f3fe608060405234801561001057600080fd5b506004361061014d5760003560e01c80639010d07c116100c3578063ca15c8731161007c578063ca15c87314610398578063d547741f146103c8578063de7390dd146103e4578063e92108b514610414578063fbcbc0f114610432578063fe575a87146104625761014d565b80639010d07c146102c657806391d14854146102f6578063a217fddf14610326578063acc1a34e14610344578063aff411c114610360578063c33cdb481461037c5761014d565b8063306b9bb911610115578063306b9bb91461021a57806336568abe1461023657806361d027b314610252578063702d687f14610270578063704802751461028c57806375b238fc146102a85761014d565b806301ffc9a7146101525780631785f53c146101825780631ffbb0641461019e578063248a9ca3146101ce5780632f2ff15d146101fe575b600080fd5b61016c600480360381019061016791906118c5565b610492565b604051610179919061190d565b60405180910390f35b61019c60048036038101906101979190611986565b61050c565b005b6101b860048036038101906101b39190611986565b6105ba565b6040516101c5919061190d565b60405180910390f35b6101e860048036038101906101e391906119e9565b610613565b6040516101f59190611a25565b60405180910390f35b61021860048036038101906102139190611a40565b610632565b005b610234600480360381019061022f9190611986565b610653565b005b610250600480360381019061024b9190611a40565b61075d565b005b61025a6107e0565b6040516102679190611a8f565b60405180910390f35b61028a60048036038101906102859190611986565b610806565b005b6102a660048036038101906102a19190611986565b6108de565b005b6102b0610936565b6040516102bd9190611a25565b60405180910390f35b6102e060048036038101906102db9190611ae0565b61095a565b6040516102ed9190611a8f565b60405180910390f35b610310600480360381019061030b9190611a40565b610989565b60405161031d919061190d565b60405180910390f35b61032e6109f3565b60405161033b9190611a25565b60405180910390f35b61035e60048036038101906103599190611986565b6109fa565b005b61037a60048036038101906103759190611b20565b610ad2565b005b61039660048036038101906103919190611986565b610b5a565b005b6103b260048036038101906103ad91906119e9565b610cba565b6040516103bf9190611b6f565b60405180910390f35b6103e260048036038101906103dd9190611a40565b610cde565b005b6103fe60048036038101906103f99190611986565b610cff565b60405161040b919061190d565b60405180910390f35b61041c610d58565b6040516104299190611b6f565b60405180910390f35b61044c60048036038101906104479190611986565b610e31565b6040516104599190611c1f565b60405180910390f35b61047c60048036038101906104779190611986565b610f3b565b604051610489919061190d565b60405180910390f35b60007f5a05180f000000000000000000000000000000000000000000000000000000007bffffffffffffffffffffffffffffffffffffffffffffffffffffffff1916827bffffffffffffffffffffffffffffffffffffffffffffffffffffffff19161480610505575061050482610f94565b5b9050919050565b7fa49807205ce4d355092ef5a8a18f56e8913cf4a201fbe287825b095693c217756105368161100e565b600260009054906101000a900473ffffffffffffffffffffffffffffffffffffffff1673ffffffffffffffffffffffffffffffffffffffff168273ffffffffffffffffffffffffffffffffffffffff16146105b6576105b57fa49807205ce4d355092ef5a8a18f56e8913cf4a201fbe287825b095693c2177583611022565b5b5050565b6000600360008373ffffffffffffffffffffffffffffffffffffffff1673ffffffffffffffffffffffffffffffffffffffff16815260200190815260200160002060000160149054906101000a900460ff169050919050565b6000806000838152602001908152602001600020600101549050919050565b61063b82610613565b6106448161100e565b61064e8383611056565b505050565b7fa49807205ce4d355092ef5a8a18f56e8913cf4a201fbe287825b095693c2177561067d8161100e565b81600360008473ffffffffffffffffffffffffffffffffffffffff1673ffffffffffffffffffffffffffffffffffffffff16815260200190815260200160002060000160006101000a81548173ffffffffffffffffffffffffffffffffffffffff021916908373ffffffffffffffffffffffffffffffffffffffff1602179055506001600360008473ffffffffffffffffffffffffffffffffffffffff1673ffffffffffffffffffffffffffffffffffffffff16815260200190815260200160002060000160146101000a81548160ff0219169083151502179055505050565b61076561108a565b73ffffffffffffffffffffffffffffffffffffffff168173ffffffffffffffffffffffffffffffffffffffff16146107d2576040517f08c379a00000000000000000000000000000000000000000000000000000000081526004016107c990611cbd565b60405180910390fd5b6107dc8282611022565b5050565b600260009054906101000a900473ffffffffffffffffffffffffffffffffffffffff1681565b7fa49807205ce4d355092ef5a8a18f56e8913cf4a201fbe287825b095693c217756108308161100e565b600360008373ffffffffffffffffffffffffffffffffffffffff1673ffffffffffffffffffffffffffffffffffffffff16815260200190815260200160002060020160009054906101000a900460ff1615600360008473ffffffffffffffffffffffffffffffffffffffff1673ffffffffffffffffffffffffffffffffffffffff16815260200190815260200160002060020160006101000a81548160ff0219169083151502179055505050565b7fa49807205ce4d355092ef5a8a18f56e8913cf4a201fbe287825b095693c217756109088161100e565b6109327fa49807205ce4d355092ef5a8a18f56e8913cf4a201fbe287825b095693c2177583611056565b5050565b7fa49807205ce4d355092ef5a8a18f56e8913cf4a201fbe287825b095693c2177581565b6000610981826001600086815260200190815260200160002061109290919063ffffffff16565b905092915050565b600080600084815260200190815260200160002060000160008373ffffffffffffffffffffffffffffffffffffffff1673ffffffffffffffffffffffffffffffffffffffff16815260200190815260200160002060009054906101000a900460ff16905092915050565b6000801b81565b7fa49807205ce4d355092ef5a8a18f56e8913cf4a201fbe287825b095693c21775610a248161100e565b600360008373ffffffffffffffffffffffffffffffffffffffff1673ffffffffffffffffffffffffffffffffffffffff16815260200190815260200160002060000160149054906101000a900460ff1615600360008473ffffffffffffffffffffffffffffffffffffffff1673ffffffffffffffffffffffffffffffffffffffff16815260200190815260200160002060000160146101000a81548160ff0219169083151502179055505050565b7fa49807205ce4d355092ef5a8a18f56e8913cf4a201fbe287825b095693c21775610afc8161100e565b81600360008573ffffffffffffffffffffffffffffffffffffffff1673ffffffffffffffffffffffffffffffffffffffff1681526020019081526020016000206001016000828254610b4e9190611d0c565b92505081905550505050565b7fa49807205ce4d355092ef5a8a18f56e8913cf4a201fbe287825b095693c21775610b848161100e565b600360008373ffffffffffffffffffffffffffffffffffffffff1673ffffffffffffffffffffffffffffffffffffffff16815260200190815260200160002060020160019054906101000a900460ff1615600360008473ffffffffffffffffffffffffffffffffffffffff1673ffffffffffffffffffffffffffffffffffffffff16815260200190815260200160002060020160016101000a81548160ff0219169083151502179055507f1d12cf36ada45f3d31b2b4f1852edca1716d0b0bd89faaf29c565f3bb5ae06f582600360008573ffffffffffffffffffffffffffffffffffffffff1673ffffffffffffffffffffffffffffffffffffffff16815260200190815260200160002060020160019054906101000a900460ff16604051610cae929190611d40565b60405180910390a15050565b6000610cd7600160008481526020019081526020016000206110ac565b9050919050565b610ce782610613565b610cf08161100e565b610cfa8383611022565b505050565b6000600360008373ffffffffffffffffffffffffffffffffffffffff1673ffffffffffffffffffffffffffffffffffffffff16815260200190815260200160002060020160009054906101000a900460ff169050919050565b6000600360003373ffffffffffffffffffffffffffffffffffffffff1673ffffffffffffffffffffffffffffffffffffffff16815260200190815260200160002060000160149054906101000a900460ff16610de9576040517f08c379a0000000000000000000000000000000000000000000000000000000008152600401610de090611db5565b60405180910390fd5b600360003373ffffffffffffffffffffffffffffffffffffffff1673ffffffffffffffffffffffffffffffffffffffff16815260200190815260200160002060010154905090565b610e3961181d565b600360008373ffffffffffffffffffffffffffffffffffffffff1673ffffffffffffffffffffffffffffffffffffffff1681526020019081526020016000206040518060a00160405290816000820160009054906101000a900473ffffffffffffffffffffffffffffffffffffffff1673ffffffffffffffffffffffffffffffffffffffff1673ffffffffffffffffffffffffffffffffffffffff1681526020016000820160149054906101000a900460ff16151515158152602001600182015481526020016002820160009054906101000a900460ff161515151581526020016002820160019054906101000a900460ff1615151515815250509050919050565b6000600360008373ffffffffffffffffffffffffffffffffffffffff1673ffffffffffffffffffffffffffffffffffffffff16815260200190815260200160002060020160019054906101000a900460ff169050919050565b60007f7965db0b000000000000000000000000000000000000000000000000000000007bffffffffffffffffffffffffffffffffffffffffffffffffffffffff1916827bffffffffffffffffffffffffffffffffffffffffffffffffffffffff191614806110075750611006826110c1565b5b9050919050565b61101f8161101a61108a565b61112b565b50565b61102c82826111b0565b611051816001600085815260200190815260200160002061129190919063ffffffff16565b505050565b61106082826112c1565b61108581600160008581526020019081526020016000206113a190919063ffffffff16565b505050565b600033905090565b60006110a183600001836113d1565b60001c905092915050565b60006110ba826000016113fc565b9050919050565b60007f01ffc9a7000000000000000000000000000000000000000000000000000000007bffffffffffffffffffffffffffffffffffffffffffffffffffffffff1916827bffffffffffffffffffffffffffffffffffffffffffffffffffffffff1916149050919050565b6111358282610989565b6111ac576111428161140d565b6111508360001c602061143a565b604051602001611161929190611ede565b6040516020818303038152906040526040517f08c379a00000000000000000000000000000000000000000000000000000000081526004016111a39190611f62565b60405180910390fd5b5050565b6111ba8282610989565b1561128d57600080600084815260200190815260200160002060000160008373ffffffffffffffffffffffffffffffffffffffff1673ffffffffffffffffffffffffffffffffffffffff16815260200190815260200160002060006101000a81548160ff02191690831515021790555061123261108a565b73ffffffffffffffffffffffffffffffffffffffff168173ffffffffffffffffffffffffffffffffffffffff16837ff6391f5c32d9c69d2a47ea670b442974b53935d1edc7fd64eb21e047a839171b60405160405180910390a45b5050565b60006112b9836000018373ffffffffffffffffffffffffffffffffffffffff1660001b611676565b905092915050565b6112cb8282610989565b61139d57600160008084815260200190815260200160002060000160008373ffffffffffffffffffffffffffffffffffffffff1673ffffffffffffffffffffffffffffffffffffffff16815260200190815260200160002060006101000a81548160ff02191690831515021790555061134261108a565b73ffffffffffffffffffffffffffffffffffffffff168173ffffffffffffffffffffffffffffffffffffffff16837f2f8788117e7eff1d82e926ec794901d17c78024a50270940304540a733656f0d60405160405180910390a45b5050565b60006113c9836000018373ffffffffffffffffffffffffffffffffffffffff1660001b61178a565b905092915050565b60008260000182815481106113e9576113e8611f84565b5b9060005260206000200154905092915050565b600081600001805490509050919050565b60606114338273ffffffffffffffffffffffffffffffffffffffff16601460ff1661143a565b9050919050565b60606000600283600261144d9190611fb3565b6114579190611d0c565b67ffffffffffffffff8111156114705761146f611ff5565b5b6040519080825280601f01601f1916602001820160405280156114a25781602001600182028036833780820191505090505b5090507f3000000000000000000000000000000000000000000000000000000000000000816000815181106114da576114d9611f84565b5b60200101907effffffffffffffffffffffffffffffffffffffffffffffffffffffffffffff1916908160001a9053507f78000000000000000000000000000000000000000000000000000000000000008160018151811061153e5761153d611f84565b5b60200101907effffffffffffffffffffffffffffffffffffffffffffffffffffffffffffff1916908160001a9053506000600184600261157e9190611fb3565b6115889190611d0c565b90505b6001811115611628577f3031323334353637383961626364656600000000000000000000000000000000600f8616601081106115ca576115c9611f84565b5b1a60f81b8282815181106115e1576115e0611f84565b5b60200101907effffffffffffffffffffffffffffffffffffffffffffffffffffffffffffff1916908160001a905350600485901c94508061162190612024565b905061158b565b506000841461166c576040517f08c379a000000000000000000000000000000000000000000000000000000000815260040161166390612099565b60405180910390fd5b8091505092915050565b6000808360010160008481526020019081526020016000205490506000811461177e5760006001826116a891906120b9565b90506000600186600001805490506116c091906120b9565b905081811461172f5760008660000182815481106116e1576116e0611f84565b5b906000526020600020015490508087600001848154811061170557611704611f84565b5b90600052602060002001819055508387600101600083815260200190815260200160002081905550505b85600001805480611743576117426120ed565b5b600190038181906000526020600020016000905590558560010160008681526020019081526020016000206000905560019350505050611784565b60009150505b92915050565b600061179683836117fa565b6117ef5782600001829080600181540180825580915050600190039060005260206000200160009091909190915055826000018054905083600101600084815260200190815260200160002081905550600190506117f4565b600090505b92915050565b600080836001016000848152602001908152602001600020541415905092915050565b6040518060a00160405280600073ffffffffffffffffffffffffffffffffffffffff168152602001600015158152602001600081526020016000151581526020016000151581525090565b600080fd5b60007fffffffff0000000000000000000000000000000000000000000000000000000082169050919050565b6118a28161186d565b81146118ad57600080fd5b50565b6000813590506118bf81611899565b92915050565b6000602082840312156118db576118da611868565b5b60006118e9848285016118b0565b91505092915050565b60008115159050919050565b611907816118f2565b82525050565b600060208201905061192260008301846118fe565b92915050565b600073ffffffffffffffffffffffffffffffffffffffff82169050919050565b600061195382611928565b9050919050565b61196381611948565b811461196e57600080fd5b50565b6000813590506119808161195a565b92915050565b60006020828403121561199c5761199b611868565b5b60006119aa84828501611971565b91505092915050565b6000819050919050565b6119c6816119b3565b81146119d157600080fd5b50565b6000813590506119e3816119bd565b92915050565b6000602082840312156119ff576119fe611868565b5b6000611a0d848285016119d4565b91505092915050565b611a1f816119b3565b82525050565b6000602082019050611a3a6000830184611a16565b92915050565b60008060408385031215611a5757611a56611868565b5b6000611a65858286016119d4565b9250506020611a7685828601611971565b9150509250929050565b611a8981611948565b82525050565b6000602082019050611aa46000830184611a80565b92915050565b6000819050919050565b611abd81611aaa565b8114611ac857600080fd5b50565b600081359050611ada81611ab4565b92915050565b60008060408385031215611af757611af6611868565b5b6000611b05858286016119d4565b9250506020611b1685828601611acb565b9150509250929050565b60008060408385031215611b3757611b36611868565b5b6000611b4585828601611971565b9250506020611b5685828601611acb565b9150509250929050565b611b6981611aaa565b82525050565b6000602082019050611b846000830184611b60565b92915050565b611b9381611948565b82525050565b611ba2816118f2565b82525050565b611bb181611aaa565b82525050565b60a082016000820151611bcd6000850182611b8a565b506020820151611be06020850182611b99565b506040820151611bf36040850182611ba8565b506060820151611c066060850182611b99565b506080820151611c196080850182611b99565b50505050565b600060a082019050611c346000830184611bb7565b92915050565b600082825260208201905092915050565b7f416363657373436f6e74726f6c3a2063616e206f6e6c792072656e6f756e636560008201527f20726f6c657320666f722073656c660000000000000000000000000000000000602082015250565b6000611ca7602f83611c3a565b9150611cb282611c4b565b604082019050919050565b60006020820190508181036000830152611cd681611c9a565b9050919050565b7f4e487b7100000000000000000000000000000000000000000000000000000000600052601160045260246000fd5b6000611d1782611aaa565b9150611d2283611aaa565b9250828201905080821115611d3a57611d39611cdd565b5b92915050565b6000604082019050611d556000830185611a80565b611d6260208301846118fe565b9392505050565b7f596f7520617265206e6f7420616e206167656e742e0000000000000000000000600082015250565b6000611d9f601583611c3a565b9150611daa82611d69565b602082019050919050565b60006020820190508181036000830152611dce81611d92565b9050919050565b600081905092915050565b7f416363657373436f6e74726f6c3a206163636f756e7420000000000000000000600082015250565b6000611e16601783611dd5565b9150611e2182611de0565b601782019050919050565b600081519050919050565b60005b83811015611e55578082015181840152602081019050611e3a565b60008484015250505050565b6000611e6c82611e2c565b611e768185611dd5565b9350611e86818560208601611e37565b80840191505092915050565b7f206973206d697373696e6720726f6c6520000000000000000000000000000000600082015250565b6000611ec8601183611dd5565b9150611ed382611e92565b601182019050919050565b6000611ee982611e09565b9150611ef58285611e61565b9150611f0082611ebb565b9150611f0c8284611e61565b91508190509392505050565b6000601f19601f8301169050919050565b6000611f3482611e2c565b611f3e8185611c3a565b9350611f4e818560208601611e37565b611f5781611f18565b840191505092915050565b60006020820190508181036000830152611f7c8184611f29565b905092915050565b7f4e487b7100000000000000000000000000000000000000000000000000000000600052603260045260246000fd5b6000611fbe82611aaa565b9150611fc983611aaa565b9250828202611fd781611aaa565b91508282048414831517611fee57611fed611cdd565b5b5092915050565b7f4e487b7100000000000000000000000000000000000000000000000000000000600052604160045260246000fd5b600061202f82611aaa565b91506000820361204257612041611cdd565b5b600182039050919050565b7f537472696e67733a20686578206c656e67746820696e73756666696369656e74600082015250565b6000612083602083611c3a565b915061208e8261204d565b602082019050919050565b600060208201905081810360008301526120b281612076565b9050919050565b60006120c482611aaa565b91506120cf83611aaa565b92508282039050818111156120e7576120e6611cdd565b5b92915050565b7f4e487b7100000000000000000000000000000000000000000000000000000000600052603160045260246000fdfea2646970667358221220d2129977c8d228b086870940f5001ab7822ac17c78c5d58878a10dd65963687a64736f6c63430008130033",
  "immutableReferences": {},
  "source": "// SPDX-License-Identifier: UNLICENSED\npragma solidity ^0.8.19;\n\nimport \"@openzeppelin/contracts/access/AccessControlEnumerable.sol\";\n\ncontract Accounts is AccessControlEnumerable {\n\n  address public treasury;\n\n  // Agent Data must be collected via admin chat and kept off-chain\n  // tgid, name, phone, id card, selfie, location\n  // Agents must use Telegram's Nearby People to advertise their service\n  struct AccountStruct {\n    address account;\n    bool isAgent; // to enable/disable agent account\n    uint256 commissions;\n    bool isExcludedFromTransferFee;\n    bool isBlacklisted;\n  }\n  // mappings are initialized automatically hence all possible keys already exists\n  mapping(address => AccountStruct) accounts; // account => AccountStruct\n\n  event BlacklistStatus(address user, bool flag);\n\n  // Create a new role identifier for the role\n  bytes32 public constant ADMIN_ROLE = keccak256(\"ADMIN_ROLE\");\n\n  modifier onlyAgent {\n    require(accounts[msg.sender].isAgent, \"You are not an agent.\");\n    _;\n  }\n\n  constructor() {\n    // IMPORTANT: on deployment exclude treasury from fees\n    _setupRole(ADMIN_ROLE, msg.sender);\n    treasury = msg.sender;\n    accounts[treasury].isExcludedFromTransferFee = true;\n  }\n\n  function addAdmin(address admin) external onlyRole(ADMIN_ROLE) {\n    _grantRole(ADMIN_ROLE, admin);\n  }\n\n  function removeAdmin(address admin) external onlyRole(ADMIN_ROLE) {\n    if (admin != treasury) {\n      _revokeRole(ADMIN_ROLE, admin);\n    }\n  }\n\n  function getAccount(address user) external view returns(AccountStruct memory) {\n    return accounts[user];\n  }\n\n  function updateCommissions(address user, uint256 amount) external onlyRole(ADMIN_ROLE) {\n    accounts[user].commissions += amount;\n  }\n\n  function toggleIsBlacklisted(address user) external onlyRole(ADMIN_ROLE) {\n    accounts[user].isBlacklisted = !accounts[user].isBlacklisted;\n    emit BlacklistStatus(user, accounts[user].isBlacklisted);\n  }\n\n  function isBlacklisted(address user) external view returns (bool) {\n    return accounts[user].isBlacklisted;\n  }\n\n  function getCommissions() external view onlyAgent returns (uint256) {\n    return accounts[msg.sender].commissions;\n  }\n\n  // add agent for commissions and fees exception\n  function registerAgent(address agent) external onlyRole(ADMIN_ROLE) {\n    accounts[agent].account = agent;\n    accounts[agent].isAgent = true;\n  }\n\n  function toggleIsAgent(address agent) external onlyRole(ADMIN_ROLE) {\n    accounts[agent].isAgent = !accounts[agent].isAgent;\n  }\n\n  function isAgent(address agent) external view returns (bool) {\n    return accounts[agent].isAgent;\n  }\n\n  function toggleIsExcludedFromTransferFee(address account) external onlyRole(ADMIN_ROLE) {\n    accounts[account].isExcludedFromTransferFee = \n      !accounts[account].isExcludedFromTransferFee;\n  }\n\n  function isExcludedFromTransferFee(address account) external view returns (bool) {\n    return accounts[account].isExcludedFromTransferFee;\n  }\n\n}\n",
  "sourcePath": "/home/peps/progjects/kdsk/contracts/Accounts.sol",
  "compiler": {
    "name": "solc",
    "version": "0.8.19+commit.7dd6d404.Emscripten.clang"
  },
  "schemaVersion": "3.4.13",
  "updatedAt": "2023-06-24T06:55:48.710Z",
  "networkType": "ethereum",
  "devdoc": {
    "events": {
      "RoleAdminChanged(bytes32,bytes32,bytes32)": {
        "details": "Emitted when `newAdminRole` is set as ``role``'s admin role, replacing `previousAdminRole` `DEFAULT_ADMIN_ROLE` is the starting admin for all roles, despite {RoleAdminChanged} not being emitted signaling this. _Available since v3.1._"
      },
      "RoleGranted(bytes32,address,address)": {
        "details": "Emitted when `account` is granted `role`. `sender` is the account that originated the contract call, an admin role bearer except when using {AccessControl-_setupRole}."
      },
      "RoleRevoked(bytes32,address,address)": {
        "details": "Emitted when `account` is revoked `role`. `sender` is the account that originated the contract call:   - if using `revokeRole`, it is the admin role bearer   - if using `renounceRole`, it is the role bearer (i.e. `account`)"
      }
    },
    "kind": "dev",
    "methods": {
      "getRoleAdmin(bytes32)": {
        "details": "Returns the admin role that controls `role`. See {grantRole} and {revokeRole}. To change a role's admin, use {_setRoleAdmin}."
      },
      "getRoleMember(bytes32,uint256)": {
        "details": "Returns one of the accounts that have `role`. `index` must be a value between 0 and {getRoleMemberCount}, non-inclusive. Role bearers are not sorted in any particular way, and their ordering may change at any point. WARNING: When using {getRoleMember} and {getRoleMemberCount}, make sure you perform all queries on the same block. See the following https://forum.openzeppelin.com/t/iterating-over-elements-on-enumerableset-in-openzeppelin-contracts/2296[forum post] for more information."
      },
      "getRoleMemberCount(bytes32)": {
        "details": "Returns the number of accounts that have `role`. Can be used together with {getRoleMember} to enumerate all bearers of a role."
      },
      "grantRole(bytes32,address)": {
        "details": "Grants `role` to `account`. If `account` had not been already granted `role`, emits a {RoleGranted} event. Requirements: - the caller must have ``role``'s admin role. May emit a {RoleGranted} event."
      },
      "hasRole(bytes32,address)": {
        "details": "Returns `true` if `account` has been granted `role`."
      },
      "renounceRole(bytes32,address)": {
        "details": "Revokes `role` from the calling account. Roles are often managed via {grantRole} and {revokeRole}: this function's purpose is to provide a mechanism for accounts to lose their privileges if they are compromised (such as when a trusted device is misplaced). If the calling account had been revoked `role`, emits a {RoleRevoked} event. Requirements: - the caller must be `account`. May emit a {RoleRevoked} event."
      },
      "revokeRole(bytes32,address)": {
        "details": "Revokes `role` from `account`. If `account` had been granted `role`, emits a {RoleRevoked} event. Requirements: - the caller must have ``role``'s admin role. May emit a {RoleRevoked} event."
      },
      "supportsInterface(bytes4)": {
        "details": "See {IERC165-supportsInterface}."
      }
    },
    "version": 1
  },
  "userdoc": {
    "kind": "user",
    "methods": {},
    "version": 1
  }
}