{
  "contractName": "Exchange",
  "abi": [
    {
      "inputs": [],
      "stateMutability": "nonpayable",
      "type": "constructor"
    },
    {
      "anonymous": false,
      "inputs": [
        {
          "indexed": true,
          "internalType": "bytes32",
          "name": "role",
          "type": "bytes32"
        },
        {
          "indexed": true,
          "internalType": "bytes32",
          "name": "previousAdminRole",
          "type": "bytes32"
        },
        {
          "indexed": true,
          "internalType": "bytes32",
          "name": "newAdminRole",
          "type": "bytes32"
        }
      ],
      "name": "RoleAdminChanged",
      "type": "event"
    },
    {
      "anonymous": false,
      "inputs": [
        {
          "indexed": true,
          "internalType": "bytes32",
          "name": "role",
          "type": "bytes32"
        },
        {
          "indexed": true,
          "internalType": "address",
          "name": "account",
          "type": "address"
        },
        {
          "indexed": true,
          "internalType": "address",
          "name": "sender",
          "type": "address"
        }
      ],
      "name": "RoleGranted",
      "type": "event"
    },
    {
      "anonymous": false,
      "inputs": [
        {
          "indexed": true,
          "internalType": "bytes32",
          "name": "role",
          "type": "bytes32"
        },
        {
          "indexed": true,
          "internalType": "address",
          "name": "account",
          "type": "address"
        },
        {
          "indexed": true,
          "internalType": "address",
          "name": "sender",
          "type": "address"
        }
      ],
      "name": "RoleRevoked",
      "type": "event"
    },
    {
      "inputs": [],
      "name": "ADMIN_ROLE",
      "outputs": [
        {
          "internalType": "bytes32",
          "name": "",
          "type": "bytes32"
        }
      ],
      "stateMutability": "view",
      "type": "function",
      "constant": true
    },
    {
      "inputs": [],
      "name": "DEFAULT_ADMIN_ROLE",
      "outputs": [
        {
          "internalType": "bytes32",
          "name": "",
          "type": "bytes32"
        }
      ],
      "stateMutability": "view",
      "type": "function",
      "constant": true
    },
    {
      "inputs": [],
      "name": "cashInCommissionPercentDivider",
      "outputs": [
        {
          "internalType": "uint256",
          "name": "",
          "type": "uint256"
        }
      ],
      "stateMutability": "view",
      "type": "function",
      "constant": true
    },
    {
      "inputs": [],
      "name": "cashInCommissionPercentMultiplier",
      "outputs": [
        {
          "internalType": "uint256",
          "name": "",
          "type": "uint256"
        }
      ],
      "stateMutability": "view",
      "type": "function",
      "constant": true
    },
    {
      "inputs": [],
      "name": "cashOutCommissionPercentDivider",
      "outputs": [
        {
          "internalType": "uint256",
          "name": "",
          "type": "uint256"
        }
      ],
      "stateMutability": "view",
      "type": "function",
      "constant": true
    },
    {
      "inputs": [],
      "name": "cashOutCommissionPercentMultiplier",
      "outputs": [
        {
          "internalType": "uint256",
          "name": "",
          "type": "uint256"
        }
      ],
      "stateMutability": "view",
      "type": "function",
      "constant": true
    },
    {
      "inputs": [
        {
          "internalType": "bytes32",
          "name": "role",
          "type": "bytes32"
        }
      ],
      "name": "getRoleAdmin",
      "outputs": [
        {
          "internalType": "bytes32",
          "name": "",
          "type": "bytes32"
        }
      ],
      "stateMutability": "view",
      "type": "function",
      "constant": true
    },
    {
      "inputs": [
        {
          "internalType": "bytes32",
          "name": "role",
          "type": "bytes32"
        },
        {
          "internalType": "uint256",
          "name": "index",
          "type": "uint256"
        }
      ],
      "name": "getRoleMember",
      "outputs": [
        {
          "internalType": "address",
          "name": "",
          "type": "address"
        }
      ],
      "stateMutability": "view",
      "type": "function",
      "constant": true
    },
    {
      "inputs": [
        {
          "internalType": "bytes32",
          "name": "role",
          "type": "bytes32"
        }
      ],
      "name": "getRoleMemberCount",
      "outputs": [
        {
          "internalType": "uint256",
          "name": "",
          "type": "uint256"
        }
      ],
      "stateMutability": "view",
      "type": "function",
      "constant": true
    },
    {
      "inputs": [],
      "name": "giveGas",
      "outputs": [
        {
          "internalType": "bool",
          "name": "",
          "type": "bool"
        }
      ],
      "stateMutability": "view",
      "type": "function",
      "constant": true
    },
    {
      "inputs": [
        {
          "internalType": "bytes32",
          "name": "role",
          "type": "bytes32"
        },
        {
          "internalType": "address",
          "name": "account",
          "type": "address"
        }
      ],
      "name": "grantRole",
      "outputs": [],
      "stateMutability": "nonpayable",
      "type": "function"
    },
    {
      "inputs": [
        {
          "internalType": "bytes32",
          "name": "role",
          "type": "bytes32"
        },
        {
          "internalType": "address",
          "name": "account",
          "type": "address"
        }
      ],
      "name": "hasRole",
      "outputs": [
        {
          "internalType": "bool",
          "name": "",
          "type": "bool"
        }
      ],
      "stateMutability": "view",
      "type": "function",
      "constant": true
    },
    {
      "inputs": [],
      "name": "maxNativeThreshold",
      "outputs": [
        {
          "internalType": "uint256",
          "name": "",
          "type": "uint256"
        }
      ],
      "stateMutability": "view",
      "type": "function",
      "constant": true
    },
    {
      "inputs": [],
      "name": "minNativeThreshold",
      "outputs": [
        {
          "internalType": "uint256",
          "name": "",
          "type": "uint256"
        }
      ],
      "stateMutability": "view",
      "type": "function",
      "constant": true
    },
    {
      "inputs": [],
      "name": "minReserveTradeAmount",
      "outputs": [
        {
          "internalType": "uint256",
          "name": "",
          "type": "uint256"
        }
      ],
      "stateMutability": "view",
      "type": "function",
      "constant": true
    },
    {
      "inputs": [
        {
          "internalType": "address",
          "name": "",
          "type": "address"
        }
      ],
      "name": "rates",
      "outputs": [
        {
          "internalType": "uint256",
          "name": "multiplier",
          "type": "uint256"
        },
        {
          "internalType": "uint256",
          "name": "divider",
          "type": "uint256"
        },
        {
          "internalType": "uint256",
          "name": "lastUpdated",
          "type": "uint256"
        },
        {
          "internalType": "bool",
          "name": "activated",
          "type": "bool"
        }
      ],
      "stateMutability": "view",
      "type": "function",
      "constant": true
    },
    {
      "inputs": [
        {
          "internalType": "bytes32",
          "name": "role",
          "type": "bytes32"
        },
        {
          "internalType": "address",
          "name": "account",
          "type": "address"
        }
      ],
      "name": "renounceRole",
      "outputs": [],
      "stateMutability": "nonpayable",
      "type": "function"
    },
    {
      "inputs": [
        {
          "internalType": "bytes32",
          "name": "role",
          "type": "bytes32"
        },
        {
          "internalType": "address",
          "name": "account",
          "type": "address"
        }
      ],
      "name": "revokeRole",
      "outputs": [],
      "stateMutability": "nonpayable",
      "type": "function"
    },
    {
      "inputs": [
        {
          "internalType": "bytes4",
          "name": "interfaceId",
          "type": "bytes4"
        }
      ],
      "name": "supportsInterface",
      "outputs": [
        {
          "internalType": "bool",
          "name": "",
          "type": "bool"
        }
      ],
      "stateMutability": "view",
      "type": "function",
      "constant": true
    },
    {
      "inputs": [],
      "name": "tradeFeePercentDivider",
      "outputs": [
        {
          "internalType": "uint256",
          "name": "",
          "type": "uint256"
        }
      ],
      "stateMutability": "view",
      "type": "function",
      "constant": true
    },
    {
      "inputs": [],
      "name": "tradeFeePercentMultiplier",
      "outputs": [
        {
          "internalType": "uint256",
          "name": "",
          "type": "uint256"
        }
      ],
      "stateMutability": "view",
      "type": "function",
      "constant": true
    },
    {
      "inputs": [],
      "name": "treasury",
      "outputs": [
        {
          "internalType": "address",
          "name": "",
          "type": "address"
        }
      ],
      "stateMutability": "view",
      "type": "function",
      "constant": true
    },
    {
      "inputs": [
        {
          "internalType": "address",
          "name": "accountsAddress",
          "type": "address"
        }
      ],
      "name": "setAccountsContract",
      "outputs": [],
      "stateMutability": "nonpayable",
      "type": "function"
    },
    {
      "inputs": [
        {
          "internalType": "uint256",
          "name": "_multiplier",
          "type": "uint256"
        },
        {
          "internalType": "uint256",
          "name": "_divider",
          "type": "uint256"
        }
      ],
      "name": "setTradeFeePercent",
      "outputs": [],
      "stateMutability": "nonpayable",
      "type": "function"
    },
    {
      "inputs": [
        {
          "internalType": "address",
          "name": "stableTokenAddress",
          "type": "address"
        },
        {
          "internalType": "uint256",
          "name": "_minTradeAmount",
          "type": "uint256"
        },
        {
          "internalType": "uint256",
          "name": "_minTariffAmount",
          "type": "uint256"
        },
        {
          "internalType": "uint256",
          "name": "_maxTariffAmount",
          "type": "uint256"
        },
        {
          "internalType": "uint256",
          "name": "_minTariff",
          "type": "uint256"
        },
        {
          "internalType": "uint256",
          "name": "_maxTariff",
          "type": "uint256"
        },
        {
          "internalType": "uint256",
          "name": "_tariffPercentMultiplier",
          "type": "uint256"
        },
        {
          "internalType": "uint256",
          "name": "_tariffPercentDivider",
          "type": "uint256"
        }
      ],
      "name": "setStableTokenOptions",
      "outputs": [],
      "stateMutability": "nonpayable",
      "type": "function"
    },
    {
      "inputs": [
        {
          "internalType": "address",
          "name": "stableTokenAddress",
          "type": "address"
        }
      ],
      "name": "getStableTokenOptions",
      "outputs": [
        {
          "components": [
            {
              "internalType": "uint256",
              "name": "minTradeAmount",
              "type": "uint256"
            },
            {
              "internalType": "uint256",
              "name": "minTariffAmount",
              "type": "uint256"
            },
            {
              "internalType": "uint256",
              "name": "maxTariffAmount",
              "type": "uint256"
            },
            {
              "internalType": "uint256",
              "name": "minTariff",
              "type": "uint256"
            },
            {
              "internalType": "uint256",
              "name": "maxTariff",
              "type": "uint256"
            },
            {
              "internalType": "uint256",
              "name": "tariffPercentMultiplier",
              "type": "uint256"
            },
            {
              "internalType": "uint256",
              "name": "tariffPercentDivider",
              "type": "uint256"
            },
            {
              "internalType": "uint256",
              "name": "totalCommissions",
              "type": "uint256"
            },
            {
              "internalType": "uint256",
              "name": "totalCashIns",
              "type": "uint256"
            },
            {
              "internalType": "uint256",
              "name": "totalCashOuts",
              "type": "uint256"
            }
          ],
          "internalType": "struct Exchange.StableTokenStruct",
          "name": "",
          "type": "tuple"
        }
      ],
      "stateMutability": "view",
      "type": "function",
      "constant": true
    },
    {
      "inputs": [
        {
          "internalType": "address",
          "name": "_internalReserveTokenAddress",
          "type": "address"
        },
        {
          "internalType": "address",
          "name": "_externalReserveTokenAddress",
          "type": "address"
        },
        {
          "internalType": "uint256",
          "name": "_minReserveTradeAmount",
          "type": "uint256"
        }
      ],
      "name": "setReserveOptions",
      "outputs": [],
      "stateMutability": "nonpayable",
      "type": "function"
    },
    {
      "inputs": [
        {
          "internalType": "bool",
          "name": "_giveGas",
          "type": "bool"
        },
        {
          "internalType": "uint256",
          "name": "_minNativeThreshold",
          "type": "uint256"
        },
        {
          "internalType": "uint256",
          "name": "_maxNativeThreshold",
          "type": "uint256"
        }
      ],
      "name": "setGasFacilitationOptions",
      "outputs": [],
      "stateMutability": "nonpayable",
      "type": "function"
    },
    {
      "inputs": [],
      "name": "toggleGasFacilitation",
      "outputs": [],
      "stateMutability": "nonpayable",
      "type": "function"
    },
    {
      "inputs": [
        {
          "internalType": "uint256",
          "name": "_cashInCommissionPercentMultiplier",
          "type": "uint256"
        },
        {
          "internalType": "uint256",
          "name": "_cashInCommissionPercentDivider",
          "type": "uint256"
        },
        {
          "internalType": "uint256",
          "name": "_cashOutCommissionPercentMultiplier",
          "type": "uint256"
        },
        {
          "internalType": "uint256",
          "name": "_cashOutCommissionPercentDivider",
          "type": "uint256"
        }
      ],
      "name": "setAgentCommissions",
      "outputs": [],
      "stateMutability": "nonpayable",
      "type": "function"
    },
    {
      "inputs": [
        {
          "internalType": "address",
          "name": "stableTokenAddress",
          "type": "address"
        }
      ],
      "name": "claimCommissions",
      "outputs": [],
      "stateMutability": "nonpayable",
      "type": "function"
    },
    {
      "inputs": [
        {
          "internalType": "bool",
          "name": "_haltCashIns",
          "type": "bool"
        },
        {
          "internalType": "bool",
          "name": "_haltCashOuts",
          "type": "bool"
        }
      ],
      "name": "cashRampOptions",
      "outputs": [],
      "stateMutability": "nonpayable",
      "type": "function"
    },
    {
      "inputs": [
        {
          "internalType": "address",
          "name": "stableTokenAddress",
          "type": "address"
        },
        {
          "internalType": "address",
          "name": "client",
          "type": "address"
        },
        {
          "internalType": "uint256",
          "name": "amount",
          "type": "uint256"
        }
      ],
      "name": "cashIn",
      "outputs": [],
      "stateMutability": "nonpayable",
      "type": "function"
    },
    {
      "inputs": [
        {
          "internalType": "address",
          "name": "stableTokenAddress",
          "type": "address"
        },
        {
          "internalType": "address",
          "name": "agent",
          "type": "address"
        },
        {
          "internalType": "uint256",
          "name": "amount",
          "type": "uint256"
        }
      ],
      "name": "cashOut",
      "outputs": [],
      "stateMutability": "nonpayable",
      "type": "function"
    },
    {
      "inputs": [
        {
          "internalType": "address",
          "name": "tokenAddress",
          "type": "address"
        },
        {
          "internalType": "uint256",
          "name": "tokenToReserveMultiplier",
          "type": "uint256"
        },
        {
          "internalType": "uint256",
          "name": "tokenToReserveDivider",
          "type": "uint256"
        }
      ],
      "name": "upsertRate",
      "outputs": [],
      "stateMutability": "nonpayable",
      "type": "function"
    },
    {
      "inputs": [
        {
          "internalType": "address",
          "name": "tokenAddress",
          "type": "address"
        }
      ],
      "name": "getRate",
      "outputs": [
        {
          "components": [
            {
              "internalType": "uint256",
              "name": "multiplier",
              "type": "uint256"
            },
            {
              "internalType": "uint256",
              "name": "divider",
              "type": "uint256"
            },
            {
              "internalType": "uint256",
              "name": "lastUpdated",
              "type": "uint256"
            },
            {
              "internalType": "bool",
              "name": "activated",
              "type": "bool"
            }
          ],
          "internalType": "struct Exchange.RateStruct",
          "name": "",
          "type": "tuple"
        }
      ],
      "stateMutability": "view",
      "type": "function",
      "constant": true
    },
    {
      "inputs": [
        {
          "internalType": "address",
          "name": "tokenAddress",
          "type": "address"
        }
      ],
      "name": "toggleRateActivated",
      "outputs": [],
      "stateMutability": "nonpayable",
      "type": "function"
    },
    {
      "inputs": [
        {
          "internalType": "address",
          "name": "fromTokenAddress",
          "type": "address"
        },
        {
          "internalType": "address",
          "name": "toTokenAddress",
          "type": "address"
        },
        {
          "internalType": "uint256",
          "name": "amount",
          "type": "uint256"
        }
      ],
      "name": "convert",
      "outputs": [],
      "stateMutability": "nonpayable",
      "type": "function"
    }
  ],
  "bytecode": "0x60806040523480156200001157600080fd5b50620000447fa49807205ce4d355092ef5a8a18f56e8913cf4a201fbe287825b095693c21775336200008b60201b60201c565b33600360006101000a81548173ffffffffffffffffffffffffffffffffffffffff021916908373ffffffffffffffffffffffffffffffffffffffff16021790555062000317565b6200009d8282620000a160201b60201c565b5050565b620000b38282620000df60201b60201c565b620000da8160016000858152602001908152602001600020620001d060201b90919060201c565b505050565b620000f182826200020860201b60201c565b620001cc57600160008084815260200190815260200160002060000160008373ffffffffffffffffffffffffffffffffffffffff1673ffffffffffffffffffffffffffffffffffffffff16815260200190815260200160002060006101000a81548160ff021916908315150217905550620001716200027260201b60201c565b73ffffffffffffffffffffffffffffffffffffffff168173ffffffffffffffffffffffffffffffffffffffff16837f2f8788117e7eff1d82e926ec794901d17c78024a50270940304540a733656f0d60405160405180910390a45b5050565b600062000200836000018373ffffffffffffffffffffffffffffffffffffffff1660001b6200027a60201b60201c565b905092915050565b600080600084815260200190815260200160002060000160008373ffffffffffffffffffffffffffffffffffffffff1673ffffffffffffffffffffffffffffffffffffffff16815260200190815260200160002060009054906101000a900460ff16905092915050565b600033905090565b60006200028e8383620002f460201b60201c565b620002e9578260000182908060018154018082558091505060019003906000526020600020016000909190919091505582600001805490508360010160008481526020019081526020016000208190555060019050620002ee565b600090505b92915050565b600080836001016000848152602001908152602001600020541415905092915050565b61572980620003276000396000f3fe608060405234801561001057600080fd5b50600436106102325760003560e01c8063731ac6a811610130578063a217fddf116100b8578063d547741f1161007c578063d547741f1461067a578063dd1c692714610696578063dd8dece9146106b4578063e4a9fc92146106d0578063e8c19a8e146106ec57610232565b8063a217fddf146105bf578063a8734f0b146105dd578063b2dec30914610610578063b4b11e951461062e578063ca15c8731461064a57610232565b806380f01ec5116100ff57806380f01ec514610507578063810e4ff014610525578063843a17a3146105415780639010d07c1461055f57806391d148541461058f57610232565b8063731ac6a81461049357806375b238fc146104af5780637982f5b4146104cd5780637c83c341146104e957610232565b80632f2ff15d116101be57806353ca847d1161018257806353ca847d146103ed57806357ce0b9b146104095780635c54ec7f146104275780635d9b94b41461045757806361d027b31461047557610232565b80632f2ff15d1461034b57806336568abe1461036757806337cef7911461038357806342edceac146103b357806348ea675d146103cf57610232565b8063248391ff11610205578063248391ff146102bb578063248a9ca3146102d75780632665261714610307578063269e0f0e146103115780632c9077c11461032d57610232565b806301ffc9a714610237578063056d4470146102675780630950ba2914610283578063132a061f1461029f575b600080fd5b610251600480360381019061024c9190613f53565b61070a565b60405161025e9190613f9b565b60405180910390f35b610281600480360381019061027c9190614014565b610784565b005b61029d60048036038101906102989190614077565b610afe565b005b6102b960048036038101906102b4919061410a565b610b4b565b005b6102d560048036038101906102d0919061415d565b610ba3565b005b6102f160048036038101906102ec91906141e6565b612327565b6040516102fe9190614222565b60405180910390f35b61030f612346565b005b61032b60048036038101906103269190614014565b61239d565b005b610335612475565b604051610342919061424c565b60405180910390f35b61036560048036038101906103609190614267565b61247b565b005b610381600480360381019061037c9190614267565b61249c565b005b61039d60048036038101906103989190614014565b61251f565b6040516103aa919061431a565b60405180910390f35b6103cd60048036038101906103c89190614014565b6125b1565b005b6103d7612620565b6040516103e4919061424c565b60405180910390f35b61040760048036038101906104029190614335565b612626565b005b610411612663565b60405161041e919061424c565b60405180910390f35b610441600480360381019061043c9190614014565b612669565b60405161044e9190614441565b60405180910390f35b61045f612727565b60405161046c9190613f9b565b60405180910390f35b61047d61273a565b60405161048a919061446c565b60405180910390f35b6104ad60048036038101906104a8919061415d565b612760565b005b6104b76128df565b6040516104c49190614222565b60405180910390f35b6104e760048036038101906104e2919061415d565b612903565b005b6104f1612c4d565b6040516104fe919061424c565b60405180910390f35b61050f612c53565b60405161051c919061424c565b60405180910390f35b61053f600480360381019061053a919061415d565b612c59565b005b61054961317f565b604051610556919061424c565b60405180910390f35b61057960048036038101906105749190614487565b613185565b604051610586919061446c565b60405180910390f35b6105a960048036038101906105a49190614267565b6131b4565b6040516105b69190613f9b565b60405180910390f35b6105c761321e565b6040516105d49190614222565b60405180910390f35b6105f760048036038101906105f29190614014565b613225565b60405161060794939291906144c7565b60405180910390f35b610618613262565b604051610625919061424c565b60405180910390f35b6106486004803603810190610643919061450c565b613268565b005b610664600480360381019061065f91906141e6565b6132cb565b604051610671919061424c565b60405180910390f35b610694600480360381019061068f9190614267565b6132ef565b005b61069e613310565b6040516106ab919061424c565b60405180910390f35b6106ce60048036038101906106c9919061454c565b613316565b005b6106ea60048036038101906106e59190614602565b6133ce565b005b6106f46135e0565b604051610701919061424c565b60405180910390f35b60007f5a05180f000000000000000000000000000000000000000000000000000000007bffffffffffffffffffffffffffffffffffffffffffffffffffffffff1916827bffffffffffffffffffffffffffffffffffffffffffffffffffffffff1916148061077d575061077c826135e6565b5b9050919050565b600260009054906101000a900473ffffffffffffffffffffffffffffffffffffffff1673ffffffffffffffffffffffffffffffffffffffff16631ffbb064336040518263ffffffff1660e01b81526004016107df919061446c565b602060405180830381865afa1580156107fc573d6000803e3d6000fd5b505050506040513d601f19601f82011682018060405250810190610820919061466a565b61085f576040517f08c379a0000000000000000000000000000000000000000000000000000000008152600401610856906146f4565b60405180910390fd5b60008190506000600260009054906101000a900473ffffffffffffffffffffffffffffffffffffffff1673ffffffffffffffffffffffffffffffffffffffff1663fbcbc0f1336040518263ffffffff1660e01b81526004016108c1919061446c565b60a060405180830381865afa1580156108de573d6000803e3d6000fd5b505050506040513d601f19601f82011682018060405250810190610902919061485b565b9050600081604001511161094b576040517f08c379a0000000000000000000000000000000000000000000000000000000008152600401610942906148d4565b60405180910390fd5b600260009054906101000a900473ffffffffffffffffffffffffffffffffffffffff1673ffffffffffffffffffffffffffffffffffffffff1663aff411c13360006040518363ffffffff1660e01b81526004016109a9929190614939565b600060405180830381600087803b1580156109c357600080fd5b505af11580156109d7573d6000803e3d6000fd5b505050508173ffffffffffffffffffffffffffffffffffffffff1663a9059cbb3383604001516040518363ffffffff1660e01b8152600401610a1a929190614962565b6020604051808303816000875af1158015610a39573d6000803e3d6000fd5b505050506040513d601f19601f82011682018060405250810190610a5d919061466a565b610a9c576040517f08c379a0000000000000000000000000000000000000000000000000000000008152600401610a93906149d7565b60405180910390fd5b8060400151601360008573ffffffffffffffffffffffffffffffffffffffff1673ffffffffffffffffffffffffffffffffffffffff1681526020019081526020016000206007016000828254610af29190614a26565b92505081905550505050565b7fa49807205ce4d355092ef5a8a18f56e8913cf4a201fbe287825b095693c21775610b2881613660565b84600b8190555083600c8190555082600d8190555081600e819055505050505050565b7fa49807205ce4d355092ef5a8a18f56e8913cf4a201fbe287825b095693c21775610b7581613660565b83601160006101000a81548160ff02191690831515021790555082600f819055508160108190555050505050565b8173ffffffffffffffffffffffffffffffffffffffff168373ffffffffffffffffffffffffffffffffffffffff1603610c11576040517f08c379a0000000000000000000000000000000000000000000000000000000008152600401610c0890614acc565b60405180910390fd5b610c19613e6f565b600460009054906101000a900473ffffffffffffffffffffffffffffffffffffffff1673ffffffffffffffffffffffffffffffffffffffff168373ffffffffffffffffffffffffffffffffffffffff161480610cc25750600560009054906101000a900473ffffffffffffffffffffffffffffffffffffffff1673ffffffffffffffffffffffffffffffffffffffff168373ffffffffffffffffffffffffffffffffffffffff16145b15610d5157601260008573ffffffffffffffffffffffffffffffffffffffff1673ffffffffffffffffffffffffffffffffffffffff1681526020019081526020016000206040518060800160405290816000820154815260200160018201548152602001600282015481526020016003820160009054906101000a900460ff1615151515815250509050610e86565b600460009054906101000a900473ffffffffffffffffffffffffffffffffffffffff1673ffffffffffffffffffffffffffffffffffffffff168473ffffffffffffffffffffffffffffffffffffffff161480610dfa5750600560009054906101000a900473ffffffffffffffffffffffffffffffffffffffff1673ffffffffffffffffffffffffffffffffffffffff168473ffffffffffffffffffffffffffffffffffffffff16145b15610e8557601260008473ffffffffffffffffffffffffffffffffffffffff1673ffffffffffffffffffffffffffffffffffffffff1681526020019081526020016000206040518060800160405290816000820154815260200160018201548152602001600282015481526020016003820160009054906101000a900460ff16151515158152505090505b5b600560009054906101000a900473ffffffffffffffffffffffffffffffffffffffff1673ffffffffffffffffffffffffffffffffffffffff168473ffffffffffffffffffffffffffffffffffffffff16148015610f305750600460009054906101000a900473ffffffffffffffffffffffffffffffffffffffff1673ffffffffffffffffffffffffffffffffffffffff168373ffffffffffffffffffffffffffffffffffffffff16145b156111d157600854821015610f7a576040517f08c379a0000000000000000000000000000000000000000000000000000000008152600401610f7190614b38565b60405180910390fd5b601460009054906101000a900473ffffffffffffffffffffffffffffffffffffffff1673ffffffffffffffffffffffffffffffffffffffff166323b872dd3330856040518463ffffffff1660e01b8152600401610fd993929190614b58565b6020604051808303816000875af1158015610ff8573d6000803e3d6000fd5b505050506040513d601f19601f8201168201806040525081019061101c919061466a565b61105b576040517f08c379a000000000000000000000000000000000000000000000000000000000815260040161105290614c01565b60405180910390fd5b6000600a546009548461106e9190614c21565b6110789190614c92565b9050600081846110889190614cc3565b9050601560009054906101000a900473ffffffffffffffffffffffffffffffffffffffff1673ffffffffffffffffffffffffffffffffffffffff166340c10f19600360009054906101000a900473ffffffffffffffffffffffffffffffffffffffff16846040518363ffffffff1660e01b8152600401611109929190614962565b600060405180830381600087803b15801561112357600080fd5b505af1158015611137573d6000803e3d6000fd5b50505050601560009054906101000a900473ffffffffffffffffffffffffffffffffffffffff1673ffffffffffffffffffffffffffffffffffffffff166340c10f1933836040518363ffffffff1660e01b8152600401611198929190614962565b600060405180830381600087803b1580156111b257600080fd5b505af11580156111c6573d6000803e3d6000fd5b505050505050612321565b600460009054906101000a900473ffffffffffffffffffffffffffffffffffffffff1673ffffffffffffffffffffffffffffffffffffffff168473ffffffffffffffffffffffffffffffffffffffff1614801561127b5750600560009054906101000a900473ffffffffffffffffffffffffffffffffffffffff1673ffffffffffffffffffffffffffffffffffffffff168373ffffffffffffffffffffffffffffffffffffffff16145b1561156c576008548210156112c5576040517f08c379a00000000000000000000000000000000000000000000000000000000081526004016112bc90614d43565b60405180910390fd5b6000600a54600954846112d89190614c21565b6112e29190614c92565b9050601560009054906101000a900473ffffffffffffffffffffffffffffffffffffffff1673ffffffffffffffffffffffffffffffffffffffff166323b872dd33600360009054906101000a900473ffffffffffffffffffffffffffffffffffffffff16846040518463ffffffff1660e01b815260040161136593929190614b58565b6020604051808303816000875af1158015611384573d6000803e3d6000fd5b505050506040513d601f19601f820116820180604052508101906113a8919061466a565b6113e7576040517f08c379a00000000000000000000000000000000000000000000000000000000081526004016113de90614dd5565b60405180910390fd5b600081846113f59190614cc3565b9050601560009054906101000a900473ffffffffffffffffffffffffffffffffffffffff1673ffffffffffffffffffffffffffffffffffffffff166379cc679033836040518363ffffffff1660e01b8152600401611454929190614962565b600060405180830381600087803b15801561146e57600080fd5b505af1158015611482573d6000803e3d6000fd5b50505050601460009054906101000a900473ffffffffffffffffffffffffffffffffffffffff1673ffffffffffffffffffffffffffffffffffffffff1663a9059cbb33836040518363ffffffff1660e01b81526004016114e3929190614962565b6020604051808303816000875af1158015611502573d6000803e3d6000fd5b505050506040513d601f19601f82011682018060405250810190611526919061466a565b611565576040517f08c379a000000000000000000000000000000000000000000000000000000000815260040161155c90614e67565b60405180910390fd5b5050612320565b6000601360008673ffffffffffffffffffffffffffffffffffffffff1673ffffffffffffffffffffffffffffffffffffffff168152602001908152602001600020600001541180156116635750600460009054906101000a900473ffffffffffffffffffffffffffffffffffffffff1673ffffffffffffffffffffffffffffffffffffffff168373ffffffffffffffffffffffffffffffffffffffff1614806116625750600560009054906101000a900473ffffffffffffffffffffffffffffffffffffffff1673ffffffffffffffffffffffffffffffffffffffff168373ffffffffffffffffffffffffffffffffffffffff16145b5b8015611673575060008160000151115b8015611683575060008160200151115b8015611693575060008160400151115b80156116a757506001151581606001511515145b15611a5e57601360008573ffffffffffffffffffffffffffffffffffffffff1673ffffffffffffffffffffffffffffffffffffffff16815260200190815260200160002060000154821015611731576040517f08c379a000000000000000000000000000000000000000000000000000000000815260040161172890614d43565b60405180910390fd5b60008490506000600a54600954856117499190614c21565b6117539190614c92565b90508173ffffffffffffffffffffffffffffffffffffffff166323b872dd33600360009054906101000a900473ffffffffffffffffffffffffffffffffffffffff16846040518463ffffffff1660e01b81526004016117b493929190614b58565b6020604051808303816000875af11580156117d3573d6000803e3d6000fd5b505050506040513d601f19601f820116820180604052508101906117f7919061466a565b611836576040517f08c379a000000000000000000000000000000000000000000000000000000000815260040161182d90614dd5565b60405180910390fd5b600081856118449190614cc3565b90508273ffffffffffffffffffffffffffffffffffffffff166379cc679033836040518363ffffffff1660e01b8152600401611881929190614962565b600060405180830381600087803b15801561189b57600080fd5b505af11580156118af573d6000803e3d6000fd5b50505050600084602001518560000151836118ca9190614c21565b6118d49190614c92565b90506000879050818173ffffffffffffffffffffffffffffffffffffffff166370a08231306040518263ffffffff1660e01b8152600401611915919061446c565b602060405180830381865afa158015611932573d6000803e3d6000fd5b505050506040513d601f19601f820116820180604052508101906119569190614e87565b1015611997576040517f08c379a000000000000000000000000000000000000000000000000000000000815260040161198e90614f26565b60405180910390fd5b8073ffffffffffffffffffffffffffffffffffffffff1663a9059cbb33846040518363ffffffff1660e01b81526004016119d2929190614962565b6020604051808303816000875af11580156119f1573d6000803e3d6000fd5b505050506040513d601f19601f82011682018060405250810190611a15919061466a565b611a54576040517f08c379a0000000000000000000000000000000000000000000000000000000008152600401611a4b90614e67565b60405180910390fd5b505050505061231f565b6000601360008573ffffffffffffffffffffffffffffffffffffffff1673ffffffffffffffffffffffffffffffffffffffff16815260200190815260200160002060000154118015611b555750600460009054906101000a900473ffffffffffffffffffffffffffffffffffffffff1673ffffffffffffffffffffffffffffffffffffffff168473ffffffffffffffffffffffffffffffffffffffff161480611b545750600560009054906101000a900473ffffffffffffffffffffffffffffffffffffffff1673ffffffffffffffffffffffffffffffffffffffff168473ffffffffffffffffffffffffffffffffffffffff16145b5b8015611b65575060008160000151115b8015611b75575060008160200151115b8015611b85575060008160400151115b8015611b9957506001151581606001511515145b15611e445760008490508073ffffffffffffffffffffffffffffffffffffffff166323b872dd3330866040518463ffffffff1660e01b8152600401611be093929190614b58565b6020604051808303816000875af1158015611bff573d6000803e3d6000fd5b505050506040513d601f19601f82011682018060405250810190611c23919061466a565b611c62576040517f08c379a0000000000000000000000000000000000000000000000000000000008152600401611c5990614c01565b60405180910390fd5b60008260000151836020015185611c799190614c21565b611c839190614c92565b9050601360008673ffffffffffffffffffffffffffffffffffffffff1673ffffffffffffffffffffffffffffffffffffffff16815260200190815260200160002060000154811015611d0a576040517f08c379a0000000000000000000000000000000000000000000000000000000008152600401611d0190614b38565b60405180910390fd5b6000600a5460095483611d1d9190614c21565b611d279190614c92565b905060008183611d379190614cc3565b905060008790508073ffffffffffffffffffffffffffffffffffffffff166340c10f19600360009054906101000a900473ffffffffffffffffffffffffffffffffffffffff16856040518363ffffffff1660e01b8152600401611d9b929190614962565b600060405180830381600087803b158015611db557600080fd5b505af1158015611dc9573d6000803e3d6000fd5b505050508073ffffffffffffffffffffffffffffffffffffffff166340c10f1933846040518363ffffffff1660e01b8152600401611e08929190614962565b600060405180830381600087803b158015611e2257600080fd5b505af1158015611e36573d6000803e3d6000fd5b50505050505050505061231e565b6000601360008673ffffffffffffffffffffffffffffffffffffffff1673ffffffffffffffffffffffffffffffffffffffff16815260200190815260200160002060000154118015611ed857506000601360008573ffffffffffffffffffffffffffffffffffffffff1673ffffffffffffffffffffffffffffffffffffffff16815260200190815260200160002060000154115b156122e2576000601260008673ffffffffffffffffffffffffffffffffffffffff1673ffffffffffffffffffffffffffffffffffffffff16815260200190815260200160002090506000601260008673ffffffffffffffffffffffffffffffffffffffff1673ffffffffffffffffffffffffffffffffffffffff168152602001908152602001600020905060008260000154118015611f7b575060008260020154115b8015611f9c5750600115158260030160009054906101000a900460ff161515145b8015611fac575060008160000154115b8015611fbc575060008160020154115b8015611fdd5750600115158160030160009054906101000a900460ff161515145b61201c576040517f08c379a000000000000000000000000000000000000000000000000000000000815260040161201390614f92565b60405180910390fd5b601360008773ffffffffffffffffffffffffffffffffffffffff1673ffffffffffffffffffffffffffffffffffffffff168152602001908152602001600020600001548410156120a1576040517f08c379a000000000000000000000000000000000000000000000000000000000815260040161209890614d43565b60405180910390fd5b60008690506000600a54600954876120b99190614c21565b6120c39190614c92565b90508173ffffffffffffffffffffffffffffffffffffffff166323b872dd33600360009054906101000a900473ffffffffffffffffffffffffffffffffffffffff16846040518463ffffffff1660e01b815260040161212493929190614b58565b6020604051808303816000875af1158015612143573d6000803e3d6000fd5b505050506040513d601f19601f82011682018060405250810190612167919061466a565b6121a6576040517f08c379a000000000000000000000000000000000000000000000000000000000815260040161219d90614dd5565b60405180910390fd5b600081876121b49190614cc3565b90508273ffffffffffffffffffffffffffffffffffffffff166379cc679033836040518363ffffffff1660e01b81526004016121f1929190614962565b600060405180830381600087803b15801561220b57600080fd5b505af115801561221f573d6000803e3d6000fd5b5050505060008460000154856001015487600101548860000154856122449190614c21565b61224e9190614c92565b6122589190614c21565b6122629190614c92565b905060008990508073ffffffffffffffffffffffffffffffffffffffff166340c10f1933846040518363ffffffff1660e01b81526004016122a4929190614962565b600060405180830381600087803b1580156122be57600080fd5b505af11580156122d2573d6000803e3d6000fd5b505050505050505050505061231d565b6040517f08c379a000000000000000000000000000000000000000000000000000000000815260040161231490615024565b60405180910390fd5b5b5b5b5b50505050565b6000806000838152602001908152602001600020600101549050919050565b7fa49807205ce4d355092ef5a8a18f56e8913cf4a201fbe287825b095693c2177561237081613660565b601160009054906101000a900460ff1615601160006101000a81548160ff02191690831515021790555050565b7fa49807205ce4d355092ef5a8a18f56e8913cf4a201fbe287825b095693c217756123c781613660565b601260008373ffffffffffffffffffffffffffffffffffffffff1673ffffffffffffffffffffffffffffffffffffffff16815260200190815260200160002060030160009054906101000a900460ff1615601260008473ffffffffffffffffffffffffffffffffffffffff1673ffffffffffffffffffffffffffffffffffffffff16815260200190815260200160002060030160006101000a81548160ff0219169083151502179055505050565b60105481565b61248482612327565b61248d81613660565b6124978383613674565b505050565b6124a46136a8565b73ffffffffffffffffffffffffffffffffffffffff168173ffffffffffffffffffffffffffffffffffffffff1614612511576040517f08c379a0000000000000000000000000000000000000000000000000000000008152600401612508906150b6565b60405180910390fd5b61251b82826136b0565b5050565b612527613e6f565b601260008373ffffffffffffffffffffffffffffffffffffffff1673ffffffffffffffffffffffffffffffffffffffff1681526020019081526020016000206040518060800160405290816000820154815260200160018201548152602001600282015481526020016003820160009054906101000a900460ff1615151515815250509050919050565b7fa49807205ce4d355092ef5a8a18f56e8913cf4a201fbe287825b095693c217756125db81613660565b81600260006101000a81548173ffffffffffffffffffffffffffffffffffffffff021916908373ffffffffffffffffffffffffffffffffffffffff1602179055505050565b600b5481565b7fa49807205ce4d355092ef5a8a18f56e8913cf4a201fbe287825b095693c2177561265081613660565b8260098190555081600a81905550505050565b600c5481565b612671613e99565b601360008373ffffffffffffffffffffffffffffffffffffffff1673ffffffffffffffffffffffffffffffffffffffff168152602001908152602001600020604051806101400160405290816000820154815260200160018201548152602001600282015481526020016003820154815260200160048201548152602001600582015481526020016006820154815260200160078201548152602001600882015481526020016009820154815250509050919050565b601160009054906101000a900460ff1681565b600360009054906101000a900473ffffffffffffffffffffffffffffffffffffffff1681565b7fa49807205ce4d355092ef5a8a18f56e8913cf4a201fbe287825b095693c2177561278a81613660565b83600460006101000a81548173ffffffffffffffffffffffffffffffffffffffff021916908373ffffffffffffffffffffffffffffffffffffffff16021790555082600560006101000a81548173ffffffffffffffffffffffffffffffffffffffff021916908373ffffffffffffffffffffffffffffffffffffffff16021790555081600881905550600460009054906101000a900473ffffffffffffffffffffffffffffffffffffffff16601560006101000a81548173ffffffffffffffffffffffffffffffffffffffff021916908373ffffffffffffffffffffffffffffffffffffffff160217905550600560009054906101000a900473ffffffffffffffffffffffffffffffffffffffff16601460006101000a81548173ffffffffffffffffffffffffffffffffffffffff021916908373ffffffffffffffffffffffffffffffffffffffff16021790555050505050565b7fa49807205ce4d355092ef5a8a18f56e8913cf4a201fbe287825b095693c2177581565b600260009054906101000a900473ffffffffffffffffffffffffffffffffffffffff1673ffffffffffffffffffffffffffffffffffffffff16631ffbb064336040518263ffffffff1660e01b815260040161295e919061446c565b602060405180830381865afa15801561297b573d6000803e3d6000fd5b505050506040513d601f19601f8201168201806040525081019061299f919061466a565b6129de576040517f08c379a00000000000000000000000000000000000000000000000000000000081526004016129d5906146f4565b60405180910390fd5b60001515600760009054906101000a900460ff16151514612a34576040517f08c379a0000000000000000000000000000000000000000000000000000000008152600401612a2b90615122565b60405180910390fd5b601360008473ffffffffffffffffffffffffffffffffffffffff1673ffffffffffffffffffffffffffffffffffffffff16815260200190815260200160002060000154811015612ab9576040517f08c379a0000000000000000000000000000000000000000000000000000000008152600401612ab0906151b4565b60405180910390fd5b60008390508073ffffffffffffffffffffffffffffffffffffffff166323b872dd3385856040518463ffffffff1660e01b8152600401612afb93929190614b58565b6020604051808303816000875af1158015612b1a573d6000803e3d6000fd5b505050506040513d601f19601f82011682018060405250810190612b3e919061466a565b50600260009054906101000a900473ffffffffffffffffffffffffffffffffffffffff1673ffffffffffffffffffffffffffffffffffffffff1663aff411c133600c54600b5486612b8f9190614c21565b612b999190614c92565b6040518363ffffffff1660e01b8152600401612bb6929190614962565b600060405180830381600087803b158015612bd057600080fd5b505af1158015612be4573d6000803e3d6000fd5b505050506000601360008673ffffffffffffffffffffffffffffffffffffffff1673ffffffffffffffffffffffffffffffffffffffff168152602001908152602001600020905082816008016000828254612c3f9190614a26565b925050819055505050505050565b60095481565b600d5481565b60001515600760019054906101000a900460ff16151514612caf576040517f08c379a0000000000000000000000000000000000000000000000000000000008152600401612ca690615220565b60405180910390fd5b600260009054906101000a900473ffffffffffffffffffffffffffffffffffffffff1673ffffffffffffffffffffffffffffffffffffffff16631ffbb064836040518263ffffffff1660e01b8152600401612d0a919061446c565b602060405180830381865afa158015612d27573d6000803e3d6000fd5b505050506040513d601f19601f82011682018060405250810190612d4b919061466a565b612d8a576040517f08c379a0000000000000000000000000000000000000000000000000000000008152600401612d81906152b2565b60405180910390fd5b601360008473ffffffffffffffffffffffffffffffffffffffff1673ffffffffffffffffffffffffffffffffffffffff16815260200190815260200160002060000154811015612e0f576040517f08c379a0000000000000000000000000000000000000000000000000000000008152600401612e0690615344565b60405180910390fd5b6000601360008573ffffffffffffffffffffffffffffffffffffffff1673ffffffffffffffffffffffffffffffffffffffff16815260200190815260200160002090506000816001015483118015612e6b575081600201548311155b15612e96578160060154826005015484612e859190614c21565b612e8f9190614c92565b9050612ec3565b81600101548311612ead5781600301549050612ec2565b8160020154831115612ec157816004015490505b5b5b60008590508184612ed49190614a26565b8173ffffffffffffffffffffffffffffffffffffffff166370a08231336040518263ffffffff1660e01b8152600401612f0d919061446c565b602060405180830381865afa158015612f2a573d6000803e3d6000fd5b505050506040513d601f19601f82011682018060405250810190612f4e9190614e87565b1015612f8f576040517f08c379a0000000000000000000000000000000000000000000000000000000008152600401612f86906153d6565b60405180910390fd5b8073ffffffffffffffffffffffffffffffffffffffff166323b872dd33600360009054906101000a900473ffffffffffffffffffffffffffffffffffffffff16856040518463ffffffff1660e01b8152600401612fee93929190614b58565b6020604051808303816000875af115801561300d573d6000803e3d6000fd5b505050506040513d601f19601f82011682018060405250810190613031919061466a565b508073ffffffffffffffffffffffffffffffffffffffff166323b872dd3387876040518463ffffffff1660e01b815260040161306f93929190614b58565b6020604051808303816000875af115801561308e573d6000803e3d6000fd5b505050506040513d601f19601f820116820180604052508101906130b2919061466a565b50600260009054906101000a900473ffffffffffffffffffffffffffffffffffffffff1673ffffffffffffffffffffffffffffffffffffffff1663aff411c186600e54600d54886131039190614c21565b61310d9190614c92565b6040518363ffffffff1660e01b815260040161312a929190614962565b600060405180830381600087803b15801561314457600080fd5b505af1158015613158573d6000803e3d6000fd5b50505050838360090160008282546131709190614a26565b92505081905550505050505050565b600e5481565b60006131ac82600160008681526020019081526020016000206136e490919063ffffffff16565b905092915050565b600080600084815260200190815260200160002060000160008373ffffffffffffffffffffffffffffffffffffffff1673ffffffffffffffffffffffffffffffffffffffff16815260200190815260200160002060009054906101000a900460ff16905092915050565b6000801b81565b60126020528060005260406000206000915090508060000154908060010154908060020154908060030160009054906101000a900460ff16905084565b600a5481565b7fa49807205ce4d355092ef5a8a18f56e8913cf4a201fbe287825b095693c2177561329281613660565b82600760006101000a81548160ff02191690831515021790555081600760016101000a81548160ff021916908315150217905550505050565b60006132e8600160008481526020019081526020016000206136fe565b9050919050565b6132f882612327565b61330181613660565b61330b83836136b0565b505050565b600f5481565b7fa49807205ce4d355092ef5a8a18f56e8913cf4a201fbe287825b095693c2177561334081613660565b6000601360008b73ffffffffffffffffffffffffffffffffffffffff1673ffffffffffffffffffffffffffffffffffffffff168152602001908152602001600020905088816000018190555087816001018190555086816002018190555085816003018190555084816004018190555083816005018190555082816006018190555050505050505050505050565b7fa49807205ce4d355092ef5a8a18f56e8913cf4a201fbe287825b095693c217756133f881613660565b600460009054906101000a900473ffffffffffffffffffffffffffffffffffffffff1673ffffffffffffffffffffffffffffffffffffffff168473ffffffffffffffffffffffffffffffffffffffff1603613488576040517f08c379a000000000000000000000000000000000000000000000000000000000815260040161347f90615442565b60405180910390fd5b6000601260008673ffffffffffffffffffffffffffffffffffffffff1673ffffffffffffffffffffffffffffffffffffffff1681526020019081526020016000206002015403613536576006849080600181540180825580915050600190039060005260206000200160009091909190916101000a81548173ffffffffffffffffffffffffffffffffffffffff021916908373ffffffffffffffffffffffffffffffffffffffff1602179055505b604051806080016040528084815260200183815260200142815260200160011515815250601260008673ffffffffffffffffffffffffffffffffffffffff1673ffffffffffffffffffffffffffffffffffffffff16815260200190815260200160002060008201518160000155602082015181600101556040820151816002015560608201518160030160006101000a81548160ff02191690831515021790555090505050505050565b60085481565b60007f7965db0b000000000000000000000000000000000000000000000000000000007bffffffffffffffffffffffffffffffffffffffffffffffffffffffff1916827bffffffffffffffffffffffffffffffffffffffffffffffffffffffff19161480613659575061365882613713565b5b9050919050565b6136718161366c6136a8565b61377d565b50565b61367e8282613802565b6136a381600160008581526020019081526020016000206138e290919063ffffffff16565b505050565b600033905090565b6136ba8282613912565b6136df81600160008581526020019081526020016000206139f390919063ffffffff16565b505050565b60006136f38360000183613a23565b60001c905092915050565b600061370c82600001613a4e565b9050919050565b60007f01ffc9a7000000000000000000000000000000000000000000000000000000007bffffffffffffffffffffffffffffffffffffffffffffffffffffffff1916827bffffffffffffffffffffffffffffffffffffffffffffffffffffffff1916149050919050565b61378782826131b4565b6137fe5761379481613a5f565b6137a28360001c6020613a8c565b6040516020016137b392919061556b565b6040516020818303038152906040526040517f08c379a00000000000000000000000000000000000000000000000000000000081526004016137f591906155de565b60405180910390fd5b5050565b61380c82826131b4565b6138de57600160008084815260200190815260200160002060000160008373ffffffffffffffffffffffffffffffffffffffff1673ffffffffffffffffffffffffffffffffffffffff16815260200190815260200160002060006101000a81548160ff0219169083151502179055506138836136a8565b73ffffffffffffffffffffffffffffffffffffffff168173ffffffffffffffffffffffffffffffffffffffff16837f2f8788117e7eff1d82e926ec794901d17c78024a50270940304540a733656f0d60405160405180910390a45b5050565b600061390a836000018373ffffffffffffffffffffffffffffffffffffffff1660001b613cc8565b905092915050565b61391c82826131b4565b156139ef57600080600084815260200190815260200160002060000160008373ffffffffffffffffffffffffffffffffffffffff1673ffffffffffffffffffffffffffffffffffffffff16815260200190815260200160002060006101000a81548160ff0219169083151502179055506139946136a8565b73ffffffffffffffffffffffffffffffffffffffff168173ffffffffffffffffffffffffffffffffffffffff16837ff6391f5c32d9c69d2a47ea670b442974b53935d1edc7fd64eb21e047a839171b60405160405180910390a45b5050565b6000613a1b836000018373ffffffffffffffffffffffffffffffffffffffff1660001b613d38565b905092915050565b6000826000018281548110613a3b57613a3a615600565b5b9060005260206000200154905092915050565b600081600001805490509050919050565b6060613a858273ffffffffffffffffffffffffffffffffffffffff16601460ff16613a8c565b9050919050565b606060006002836002613a9f9190614c21565b613aa99190614a26565b67ffffffffffffffff811115613ac257613ac161472a565b5b6040519080825280601f01601f191660200182016040528015613af45781602001600182028036833780820191505090505b5090507f300000000000000000000000000000000000000000000000000000000000000081600081518110613b2c57613b2b615600565b5b60200101907effffffffffffffffffffffffffffffffffffffffffffffffffffffffffffff1916908160001a9053507f780000000000000000000000000000000000000000000000000000000000000081600181518110613b9057613b8f615600565b5b60200101907effffffffffffffffffffffffffffffffffffffffffffffffffffffffffffff1916908160001a90535060006001846002613bd09190614c21565b613bda9190614a26565b90505b6001811115613c7a577f3031323334353637383961626364656600000000000000000000000000000000600f861660108110613c1c57613c1b615600565b5b1a60f81b828281518110613c3357613c32615600565b5b60200101907effffffffffffffffffffffffffffffffffffffffffffffffffffffffffffff1916908160001a905350600485901c945080613c739061562f565b9050613bdd565b5060008414613cbe576040517f08c379a0000000000000000000000000000000000000000000000000000000008152600401613cb5906156a4565b60405180910390fd5b8091505092915050565b6000613cd48383613e4c565b613d2d578260000182908060018154018082558091505060019003906000526020600020016000909190919091505582600001805490508360010160008481526020019081526020016000208190555060019050613d32565b600090505b92915050565b60008083600101600084815260200190815260200160002054905060008114613e40576000600182613d6a9190614cc3565b9050600060018660000180549050613d829190614cc3565b9050818114613df1576000866000018281548110613da357613da2615600565b5b9060005260206000200154905080876000018481548110613dc757613dc6615600565b5b90600052602060002001819055508387600101600083815260200190815260200160002081905550505b85600001805480613e0557613e046156c4565b5b600190038181906000526020600020016000905590558560010160008681526020019081526020016000206000905560019350505050613e46565b60009150505b92915050565b600080836001016000848152602001908152602001600020541415905092915050565b60405180608001604052806000815260200160008152602001600081526020016000151581525090565b604051806101400160405280600081526020016000815260200160008152602001600081526020016000815260200160008152602001600081526020016000815260200160008152602001600081525090565b6000604051905090565b600080fd5b60007fffffffff0000000000000000000000000000000000000000000000000000000082169050919050565b613f3081613efb565b8114613f3b57600080fd5b50565b600081359050613f4d81613f27565b92915050565b600060208284031215613f6957613f68613ef6565b5b6000613f7784828501613f3e565b91505092915050565b60008115159050919050565b613f9581613f80565b82525050565b6000602082019050613fb06000830184613f8c565b92915050565b600073ffffffffffffffffffffffffffffffffffffffff82169050919050565b6000613fe182613fb6565b9050919050565b613ff181613fd6565b8114613ffc57600080fd5b50565b60008135905061400e81613fe8565b92915050565b60006020828403121561402a57614029613ef6565b5b600061403884828501613fff565b91505092915050565b6000819050919050565b61405481614041565b811461405f57600080fd5b50565b6000813590506140718161404b565b92915050565b6000806000806080858703121561409157614090613ef6565b5b600061409f87828801614062565b94505060206140b087828801614062565b93505060406140c187828801614062565b92505060606140d287828801614062565b91505092959194509250565b6140e781613f80565b81146140f257600080fd5b50565b600081359050614104816140de565b92915050565b60008060006060848603121561412357614122613ef6565b5b6000614131868287016140f5565b935050602061414286828701614062565b925050604061415386828701614062565b9150509250925092565b60008060006060848603121561417657614175613ef6565b5b600061418486828701613fff565b935050602061419586828701613fff565b92505060406141a686828701614062565b9150509250925092565b6000819050919050565b6141c3816141b0565b81146141ce57600080fd5b50565b6000813590506141e0816141ba565b92915050565b6000602082840312156141fc576141fb613ef6565b5b600061420a848285016141d1565b91505092915050565b61421c816141b0565b82525050565b60006020820190506142376000830184614213565b92915050565b61424681614041565b82525050565b6000602082019050614261600083018461423d565b92915050565b6000806040838503121561427e5761427d613ef6565b5b600061428c858286016141d1565b925050602061429d85828601613fff565b9150509250929050565b6142b081614041565b82525050565b6142bf81613f80565b82525050565b6080820160008201516142db60008501826142a7565b5060208201516142ee60208501826142a7565b50604082015161430160408501826142a7565b50606082015161431460608501826142b6565b50505050565b600060808201905061432f60008301846142c5565b92915050565b6000806040838503121561434c5761434b613ef6565b5b600061435a85828601614062565b925050602061436b85828601614062565b9150509250929050565b6101408201600082015161438c60008501826142a7565b50602082015161439f60208501826142a7565b5060408201516143b260408501826142a7565b5060608201516143c560608501826142a7565b5060808201516143d860808501826142a7565b5060a08201516143eb60a08501826142a7565b5060c08201516143fe60c08501826142a7565b5060e082015161441160e08501826142a7565b506101008201516144266101008501826142a7565b5061012082015161443b6101208501826142a7565b50505050565b6000610140820190506144576000830184614375565b92915050565b61446681613fd6565b82525050565b6000602082019050614481600083018461445d565b92915050565b6000806040838503121561449e5761449d613ef6565b5b60006144ac858286016141d1565b92505060206144bd85828601614062565b9150509250929050565b60006080820190506144dc600083018761423d565b6144e9602083018661423d565b6144f6604083018561423d565b6145036060830184613f8c565b95945050505050565b6000806040838503121561452357614522613ef6565b5b6000614531858286016140f5565b9250506020614542858286016140f5565b9150509250929050565b600080600080600080600080610100898b03121561456d5761456c613ef6565b5b600061457b8b828c01613fff565b985050602061458c8b828c01614062565b975050604061459d8b828c01614062565b96505060606145ae8b828c01614062565b95505060806145bf8b828c01614062565b94505060a06145d08b828c01614062565b93505060c06145e18b828c01614062565b92505060e06145f28b828c01614062565b9150509295985092959890939650565b60008060006060848603121561461b5761461a613ef6565b5b600061462986828701613fff565b935050602061463a86828701614062565b925050604061464b86828701614062565b9150509250925092565b600081519050614664816140de565b92915050565b6000602082840312156146805761467f613ef6565b5b600061468e84828501614655565b91505092915050565b600082825260208201905092915050565b7f596f7520617265206e6f7420616e206167656e742e0000000000000000000000600082015250565b60006146de601583614697565b91506146e9826146a8565b602082019050919050565b6000602082019050818103600083015261470d816146d1565b9050919050565b600080fd5b6000601f19601f8301169050919050565b7f4e487b7100000000000000000000000000000000000000000000000000000000600052604160045260246000fd5b61476282614719565b810181811067ffffffffffffffff821117156147815761478061472a565b5b80604052505050565b6000614794613eec565b90506147a08282614759565b919050565b6000815190506147b481613fe8565b92915050565b6000815190506147c98161404b565b92915050565b600060a082840312156147e5576147e4614714565b5b6147ef60a061478a565b905060006147ff848285016147a5565b600083015250602061481384828501614655565b6020830152506040614827848285016147ba565b604083015250606061483b84828501614655565b606083015250608061484f84828501614655565b60808301525092915050565b600060a0828403121561487157614870613ef6565b5b600061487f848285016147cf565b91505092915050565b7f596f752068617665206e6f20636f6d6d697373696f6e7320746f20636c61696d600082015250565b60006148be602083614697565b91506148c982614888565b602082019050919050565b600060208201905081810360008301526148ed816148b1565b9050919050565b6000819050919050565b6000819050919050565b600061492361491e614919846148f4565b6148fe565b614041565b9050919050565b61493381614908565b82525050565b600060408201905061494e600083018561445d565b61495b602083018461492a565b9392505050565b6000604082019050614977600083018561445d565b614984602083018461423d565b9392505050565b7f4661696c656420746f207472616e7366657220636f6d6d697373696f6e730000600082015250565b60006149c1601e83614697565b91506149cc8261498b565b602082019050919050565b600060208201905081810360008301526149f0816149b4565b9050919050565b7f4e487b7100000000000000000000000000000000000000000000000000000000600052601160045260246000fd5b6000614a3182614041565b9150614a3c83614041565b9250828201905080821115614a5457614a536149f7565b5b92915050565b7f596f752063616e6e6f7420636f6e76657274206120746f6b656e20746f20697460008201527f732073656c660000000000000000000000000000000000000000000000000000602082015250565b6000614ab6602683614697565b9150614ac182614a5a565b604082019050919050565b60006020820190508181036000830152614ae581614aa9565b9050919050565b7f42656c6f77206d696e696d756d20627579696e6720616d6f756e740000000000600082015250565b6000614b22601b83614697565b9150614b2d82614aec565b602082019050919050565b60006020820190508181036000830152614b5181614b15565b9050919050565b6000606082019050614b6d600083018661445d565b614b7a602083018561445d565b614b87604083018461423d565b949350505050565b7f4661696c656420746f207472616e7366657220746f6b656e732066726f6d207560008201527f73657220746f2072657365727665000000000000000000000000000000000000602082015250565b6000614beb602e83614697565b9150614bf682614b8f565b604082019050919050565b60006020820190508181036000830152614c1a81614bde565b9050919050565b6000614c2c82614041565b9150614c3783614041565b9250828202614c4581614041565b91508282048414831517614c5c57614c5b6149f7565b5b5092915050565b7f4e487b7100000000000000000000000000000000000000000000000000000000600052601260045260246000fd5b6000614c9d82614041565b9150614ca883614041565b925082614cb857614cb7614c63565b5b828204905092915050565b6000614cce82614041565b9150614cd983614041565b9250828203905081811115614cf157614cf06149f7565b5b92915050565b7f42656c6f77206d696e696d756d2073656c6c696e6720616d6f756e7400000000600082015250565b6000614d2d601c83614697565b9150614d3882614cf7565b602082019050919050565b60006020820190508181036000830152614d5c81614d20565b9050919050565b7f4661696c656420746f207472616e736665722074726164652066656520746f2060008201527f7472656173757279000000000000000000000000000000000000000000000000602082015250565b6000614dbf602883614697565b9150614dca82614d63565b604082019050919050565b60006020820190508181036000830152614dee81614db2565b9050919050565b7f4661696c656420746f207472616e7366657220746f6b656e732066726f6d207260008201527f65736572766520746f2075736572000000000000000000000000000000000000602082015250565b6000614e51602e83614697565b9150614e5c82614df5565b604082019050919050565b60006020820190508181036000830152614e8081614e44565b9050919050565b600060208284031215614e9d57614e9c613ef6565b5b6000614eab848285016147ba565b91505092915050565b7f45786368616e67652068617320696e73756666696369656e742072657365727660008201527f6520746f6b656e2062616c616e63650000000000000000000000000000000000602082015250565b6000614f10602f83614697565b9150614f1b82614eb4565b604082019050919050565b60006020820190508181036000830152614f3f81614f03565b9050919050565b7f4e6f6e2d6578697374656e742065786368616e67652072617465000000000000600082015250565b6000614f7c601a83614697565b9150614f8782614f46565b602082019050919050565b60006020820190508181036000830152614fab81614f6f565b9050919050565b7f4e6f6e2d6578697374656e742065786368616e67652072617465206f72206e6f60008201527f2064697265637420636f6e76657273696f6e0000000000000000000000000000602082015250565b600061500e603283614697565b915061501982614fb2565b604082019050919050565b6000602082019050818103600083015261503d81615001565b9050919050565b7f416363657373436f6e74726f6c3a2063616e206f6e6c792072656e6f756e636560008201527f20726f6c657320666f722073656c660000000000000000000000000000000000602082015250565b60006150a0602f83614697565b91506150ab82615044565b604082019050919050565b600060208201905081810360008301526150cf81615093565b9050919050565b7f436173682d696e732068617665206265656e2068616c74656400000000000000600082015250565b600061510c601983614697565b9150615117826150d6565b602082019050919050565b6000602082019050818103600083015261513b816150ff565b9050919050565b7f42656c6f77206d696e696d756d20616d6f756e7420666f7220636173682d696e60008201527f7300000000000000000000000000000000000000000000000000000000000000602082015250565b600061519e602183614697565b91506151a982615142565b604082019050919050565b600060208201905081810360008301526151cd81615191565b9050919050565b7f436173682d6f7574732068617665206265656e2068616c746564000000000000600082015250565b600061520a601a83614697565b9150615215826151d4565b602082019050919050565b60006020820190508181036000830152615239816151fd565b9050919050565b7f41646472657373207375626d69747465642069736e277420616e206167656e7460008201527f2e20547279206120646966666572656e74206167656e742e0000000000000000602082015250565b600061529c603883614697565b91506152a782615240565b604082019050919050565b600060208201905081810360008301526152cb8161528f565b9050919050565b7f42656c6f77206d696e696d756d20616d6f756e7420666f7220636173682d6f7560008201527f7473000000000000000000000000000000000000000000000000000000000000602082015250565b600061532e602283614697565b9150615339826152d2565b604082019050919050565b6000602082019050818103600083015261535d81615321565b9050919050565b7f496e73756666696369656e742062616c616e63652066726f6d2077686963682060008201527f746f206465647563742074686520636173682d6f757420666565000000000000602082015250565b60006153c0603a83614697565b91506153cb82615364565b604082019050919050565b600060208201905081810360008301526153ef816153b3565b9050919050565b7f4e6f74206170706c696361626c65000000000000000000000000000000000000600082015250565b600061542c600e83614697565b9150615437826153f6565b602082019050919050565b6000602082019050818103600083015261545b8161541f565b9050919050565b600081905092915050565b7f416363657373436f6e74726f6c3a206163636f756e7420000000000000000000600082015250565b60006154a3601783615462565b91506154ae8261546d565b601782019050919050565b600081519050919050565b60005b838110156154e25780820151818401526020810190506154c7565b60008484015250505050565b60006154f9826154b9565b6155038185615462565b93506155138185602086016154c4565b80840191505092915050565b7f206973206d697373696e6720726f6c6520000000000000000000000000000000600082015250565b6000615555601183615462565b91506155608261551f565b601182019050919050565b600061557682615496565b915061558282856154ee565b915061558d82615548565b915061559982846154ee565b91508190509392505050565b60006155b0826154b9565b6155ba8185614697565b93506155ca8185602086016154c4565b6155d381614719565b840191505092915050565b600060208201905081810360008301526155f881846155a5565b905092915050565b7f4e487b7100000000000000000000000000000000000000000000000000000000600052603260045260246000fd5b600061563a82614041565b91506000820361564d5761564c6149f7565b5b600182039050919050565b7f537472696e67733a20686578206c656e67746820696e73756666696369656e74600082015250565b600061568e602083614697565b915061569982615658565b602082019050919050565b600060208201905081810360008301526156bd81615681565b9050919050565b7f4e487b7100000000000000000000000000000000000000000000000000000000600052603160045260246000fdfea26469706673582212200929cc0329e9f5c226863d91bb85ec100df8b702776c20a6c7bb3f36e7666c1d64736f6c63430008130033",
  "immutableReferences": {},
  "source": "// SPDX-License-Identifier: UNLICENSED\npragma solidity ^0.8.19;\n\nimport \"@openzeppelin/contracts/access/AccessControlEnumerable.sol\";\nimport \"@openzeppelin/contracts/token/ERC20/IERC20.sol\";\nimport \"./IAccounts.sol\";\nimport \"./IBurnableToken.sol\";\n\n// TODO: add check for zero address in relevant blocks\n\ncontract Exchange is AccessControlEnumerable {\n\n  IAccounts accountsContract;\n\n  address public treasury; // [termux/terminal]\n  address internalReserveTokenAddress;\n  address externalReserveTokenAddress;\n  address[] tokenAddresses;\n\n  bool haltCashIns;\n  bool haltCashOuts;\n\n  uint256 public minReserveTradeAmount;\n  uint256 public tradeFeePercentMultiplier;\n  uint256 public tradeFeePercentDivider;\n  uint256 public cashInCommissionPercentMultiplier;\n  uint256 public cashInCommissionPercentDivider;\n  uint256 public cashOutCommissionPercentMultiplier;\n  uint256 public cashOutCommissionPercentDivider;\n\n  // send an amount for 60 txs to every new token holder\n  // - top-up holder's balance when its below an amount \n  //   that will can cater for only 2 txs\n  // The GOOD NEWS is; you'll have to perform a transaction with \n  // our token for our gas facilitator logic to be able to give \n  // out these free coins, which gives us some treasury collections \n  // and the amount of coins given is also insignificant to be used \n  // as a source of free money\n  uint256 public minNativeThreshold;\n  uint256 public maxNativeThreshold;\n  bool public giveGas;\n\n  // e.g.: if rate is 0.0014, the multiplier is 14, divider is 10000\n  // e.g.: if rate is 10.05, the multiplier is 1005, divider is 100\n  // stable to reserve === multiplier / divider === SIKA/KUSD\n  // reserve to stable === divider / multiplier === KUSD/SIKA\n  struct RateStruct {\n    uint256 multiplier;\n    uint256 divider;\n    uint256 lastUpdated;\n    bool activated;\n  }\n  // mappings are initialized automatically hence all possible keys already exists\n  mapping(address => RateStruct) public rates; // token => Rate\n  // each token is paired with internal reserve token, \n  // hence satisfying external reserve token\n\n  // no `activated` variable since it already exists in \n  // RateStruct to prevent token from being traded in exchange\n  struct StableTokenStruct {\n    uint256 minTradeAmount; // IMPORTANT: must be set above 0\n\n    uint256 minTariffAmount;\n    uint256 maxTariffAmount;\n    uint256 minTariff;\n    uint256 maxTariff;\n    uint256 tariffPercentMultiplier;\n    uint256 tariffPercentDivider;\n\n    uint256 totalCommissions;\n    uint256 totalCashIns;\n    uint256 totalCashOuts;\n  }\n  // mappings are initialized automatically hence all possible keys already exists\n  mapping(address => StableTokenStruct) stableTokens; // stableToken => StableTokenOptions\n\n  // Create a new role identifier for the role\n  bytes32 public constant ADMIN_ROLE = keccak256(\"ADMIN_ROLE\");\n\n  // there can be multiple external stablecoins (not developed by us)\n  // in the treasury or reserve but there must be only one primary \n  // stablecoin set in the exchange at any given time\n  IERC20 externalReserveToken; // USDC or USDT or CNHC\n\n  // as at now there can only one internal stablecoin which\n  // in the rare case of changing this currency from say \n  // USD to RMB stablecoin then it'll just be a matter of\n  // setting an exchange rate\n  IBurnableToken internalReserveToken; // KUSD (or in the future KRMB or in the far future KDSK)\n\n  modifier onlyAgent {\n    require(accountsContract.isAgent(msg.sender), \"You are not an agent.\");\n    _;\n  }\n\n  constructor() {\n    _setupRole(ADMIN_ROLE, msg.sender);\n    treasury = msg.sender;\n  }\n\n  function setAccountsContract(address accountsAddress) external onlyRole(ADMIN_ROLE) {\n    accountsContract = IAccounts(accountsAddress);\n  }\n\n  // applies to `convert` only\n  function setTradeFeePercent(\n    uint256 _multiplier, uint256 _divider\n  ) external onlyRole(ADMIN_ROLE) {\n    tradeFeePercentMultiplier = _multiplier;\n    tradeFeePercentDivider = _divider;\n  }\n\n  // minTariffAmount = 50gh (all amount smaller than it must be charged the `minTariff`)\n  // maxTariffAmount = 2000gh (all amounts larger than it must be charged the `maxTariff`)\n  // minTariff = 0.5gh\n  // maxTariff = 10gh\n  // tariffPercent = 0.5%\n  // - tariffPercentMultiplier = 2\n  // - tariffPercentDivider = 400\n  function setStableTokenOptions(\n    address stableTokenAddress, \n\n    uint256 _minTradeAmount, // Buy, Sell, Cash In, Cash Out\n\n    uint256 _minTariffAmount, \n    uint256 _maxTariffAmount, \n    uint256 _minTariff, \n    uint256 _maxTariff, \n    uint256 _tariffPercentMultiplier, \n    uint256 _tariffPercentDivider\n  ) external onlyRole(ADMIN_ROLE) {\n    StableTokenStruct storage stableToken = stableTokens[stableTokenAddress];\n\n    stableToken.minTradeAmount = _minTradeAmount;\n\n    stableToken.minTariffAmount = _minTariffAmount;\n    stableToken.maxTariffAmount = _maxTariffAmount;\n    stableToken.minTariff = _minTariff;\n    stableToken.maxTariff = _maxTariff;\n    stableToken.tariffPercentMultiplier = _tariffPercentMultiplier;\n    stableToken.tariffPercentDivider = _tariffPercentDivider;\n  }\n\n  function getStableTokenOptions(\n    address stableTokenAddress\n  ) external view returns (StableTokenStruct memory) {\n    return stableTokens[stableTokenAddress];\n  }\n\n  function setReserveOptions(\n    address _internalReserveTokenAddress, \n    address _externalReserveTokenAddress, \n    uint256 _minReserveTradeAmount\n  ) external onlyRole(ADMIN_ROLE) {\n    internalReserveTokenAddress = _internalReserveTokenAddress;\n    externalReserveTokenAddress = _externalReserveTokenAddress;\n    minReserveTradeAmount = _minReserveTradeAmount;\n\n    internalReserveToken = IBurnableToken(internalReserveTokenAddress);\n    externalReserveToken = IERC20(externalReserveTokenAddress);\n  }\n\n  function setGasFacilitationOptions(\n    bool _giveGas,\n    uint256 _minNativeThreshold,\n    uint256 _maxNativeThreshold\n  ) external onlyRole(ADMIN_ROLE) {\n    giveGas = _giveGas;\n    minNativeThreshold = _minNativeThreshold;\n    maxNativeThreshold = _maxNativeThreshold;\n  }\n\n  function toggleGasFacilitation() external onlyRole(ADMIN_ROLE) {\n    giveGas = !giveGas;\n  }\n\n  // agent gets 0.5% commission on cash-ins and 0.4% commission on cash-outs\n  function setAgentCommissions(\n    uint256 _cashInCommissionPercentMultiplier, \n    uint256 _cashInCommissionPercentDivider, \n\n    uint256 _cashOutCommissionPercentMultiplier, \n    uint256 _cashOutCommissionPercentDivider\n  ) external onlyRole(ADMIN_ROLE) {\n    cashInCommissionPercentMultiplier = _cashInCommissionPercentMultiplier;\n    cashInCommissionPercentDivider = _cashInCommissionPercentDivider;\n\n    cashOutCommissionPercentMultiplier = _cashOutCommissionPercentMultiplier;\n    cashOutCommissionPercentDivider = _cashOutCommissionPercentDivider;\n  }\n\n  // TODO: the front-end app should only allow calling this method on Saturdays\n  \n  function claimCommissions(address stableTokenAddress) external onlyAgent {\n    IBurnableToken stableToken = IBurnableToken(stableTokenAddress);\n    IAccounts.AccountStruct memory agent = accountsContract.getAccount(msg.sender);\n    require(agent.commissions > 0, \"You have no commissions to claim\");\n    accountsContract.updateCommissions(msg.sender, 0); // to prevent re-entrancy\n    // IMPORTANT: contract must be given enough working capital for unclaimed commissions\n    require(\n      stableToken.transfer(msg.sender, agent.commissions), \n      \"Failed to transfer commissions\"\n    );\n    stableTokens[stableTokenAddress].totalCommissions += agent.commissions;\n  }\n\n  function cashRampOptions(\n    bool _haltCashIns, \n    bool _haltCashOuts\n  ) external onlyRole(ADMIN_ROLE) {\n    haltCashIns = _haltCashIns;\n    haltCashOuts = _haltCashOuts;\n  }\n\n  // agents allowances will be set to maximum for ramps to function easily\n  function cashIn(\n    address stableTokenAddress, \n    address client, \n    uint256 amount\n  ) external onlyAgent {\n    require(\n      haltCashIns == false,\n      \"Cash-ins have been halted\"\n    );\n\n    require(\n      amount >= stableTokens[stableTokenAddress].minTradeAmount, \n      \"Below minimum amount for cash-ins\"\n    );\n\n    // CASH-IN... Client buys token with fiat:\n    // balance checks happens in token itself hence no need to recheck them here\n    IBurnableToken stableToken = IBurnableToken(stableTokenAddress);\n    stableToken.transferFrom(msg.sender, client, amount);\n    accountsContract.updateCommissions(msg.sender, (amount * cashInCommissionPercentMultiplier) / cashInCommissionPercentDivider);\n    StableTokenStruct storage stableTokenOpts = stableTokens[stableTokenAddress];\n    stableTokenOpts.totalCashIns += amount;\n  }\n\n  // TODO: will need to check accounts' balances at front-end before assignment\n  function cashOut(\n    address stableTokenAddress, \n    address agent, \n    uint256 amount\n  ) external {\n    require(\n      haltCashOuts == false,\n      \"Cash-outs have been halted\"\n    );\n\n    require(\n      accountsContract.isAgent(agent), \n      \"Address submitted isn't an agent. Try a different agent.\"\n    );\n    require(\n      amount >= stableTokens[stableTokenAddress].minTradeAmount, \n      \"Below minimum amount for cash-outs\"\n    );\n\n    StableTokenStruct storage stableTokenOpts = stableTokens[stableTokenAddress];\n\n    // cash-ins & outs are NOT free: a percentage paid as commissions to agents\n    // min: N/A,     max: 50gh,   charge: 0.25gh\n    // min: >50gh,   max: 1000gh, charge: 0.5%\n    // min: >1000gh, max: N/A,    charge: 5gh\n    uint256 fee;\n    if (amount > stableTokenOpts.minTariffAmount && \n        amount <= stableTokenOpts.maxTariffAmount) {\n      // expression to arrive at 0.5%\n      fee = (amount * stableTokenOpts.tariffPercentMultiplier) / stableTokenOpts.tariffPercentDivider;\n    } else if (amount <= stableTokenOpts.minTariffAmount) {\n      fee = stableTokenOpts.minTariff;\n    } else if (amount > stableTokenOpts.maxTariffAmount) {\n      fee = stableTokenOpts.maxTariff;\n    }\n\n    // CASH-OUT... Client sells token for fiat:\n    // balance checks happens in token itself hence no need to recheck them here\n    IBurnableToken stableToken = IBurnableToken(stableTokenAddress);\n    require(\n      stableToken.balanceOf(msg.sender) >= (amount + fee), \n      \"Insufficient balance from which to deduct the cash-out fee\"\n    );\n    stableToken.transferFrom(msg.sender, treasury, fee);\n    stableToken.transferFrom(msg.sender, agent, amount);\n    accountsContract.updateCommissions(agent, (amount * cashOutCommissionPercentMultiplier) / cashOutCommissionPercentDivider);\n    stableTokenOpts.totalCashOuts += amount;\n  }\n\n  // not applicable to KUSD/USDC pair as that is 1:1 pegged\n  function upsertRate(\n    address tokenAddress, \n    uint256 tokenToReserveMultiplier, \n    uint256 tokenToReserveDivider\n  ) external onlyRole(ADMIN_ROLE) {\n    require(tokenAddress != internalReserveTokenAddress, \"Not applicable\");\n    if (rates[tokenAddress].lastUpdated == 0) {\n      tokenAddresses.push(tokenAddress);\n    }\n    rates[tokenAddress] = RateStruct(\n      tokenToReserveMultiplier, \n      tokenToReserveDivider, \n      block.timestamp, \n      true\n    );\n  }\n\n  function getRate(\n    address tokenAddress\n  ) external view returns (RateStruct memory) {\n    return rates[tokenAddress];\n  }\n\n  function toggleRateActivated(address tokenAddress) external onlyRole(ADMIN_ROLE) {\n    rates[tokenAddress].activated = !rates[tokenAddress].activated;\n  }\n\n  function convert(\n    address fromTokenAddress, address toTokenAddress, uint256 amount\n  ) external {\n    require(fromTokenAddress != toTokenAddress, \"You cannot convert a token to its self\");\n\n    // TODO: find token address is a reserve and which one isn't\n\n    RateStruct memory rate;\n\n    if (toTokenAddress == internalReserveTokenAddress || \n        toTokenAddress == externalReserveTokenAddress) {\n      rate = rates[fromTokenAddress];\n    } else if (fromTokenAddress == internalReserveTokenAddress || \n        fromTokenAddress == externalReserveTokenAddress) {\n      rate = rates[toTokenAddress];\n    }\n\n    // USDC is the external reserve token and must never run out\n    // stable tokens can be bought directly with external reserve token\n\n    if (fromTokenAddress == externalReserveTokenAddress && \n        toTokenAddress == internalReserveTokenAddress\n    ) {\n      // We're BUYING KUSD with USDC|USDT\n\n\n      require(\n        amount >= minReserveTradeAmount, \n        \"Below minimum buying amount\"\n      );\n\n      // we're using `address(this)` here bcoz the exchange \n      // contract serves as the reserve hence reserve tokens are sent to it\n      require(\n        externalReserveToken.transferFrom(msg.sender, address(this), amount), \n        \"Failed to transfer tokens from user to reserve\"\n      );\n\n      // IMPORTANT! Internal reserve token must always be 1:1 \n      //            pegged with external reserve token\n\n      // IMPORTANT: tradeFee = (amount * 2) / 1000;\n      uint256 tradeFee = (amount * tradeFeePercentMultiplier) / tradeFeePercentDivider;\n      uint256 mintAmount = amount - tradeFee;\n      internalReserveToken.mint(treasury, tradeFee);\n      internalReserveToken.mint(msg.sender, mintAmount);\n\n\n    } else if (fromTokenAddress == internalReserveTokenAddress && \n               toTokenAddress == externalReserveTokenAddress\n    ) {\n      // We're SELLING KUSD for USDC|USDT\n\n\n      require(\n        amount >= minReserveTradeAmount, \n        \"Below minimum selling amount\"\n      );\n\n      uint256 tradeFee = (amount * tradeFeePercentMultiplier) / tradeFeePercentDivider;\n      require(\n        internalReserveToken.transferFrom(msg.sender, treasury, tradeFee),\n        \"Failed to transfer trade fee to treasury\"\n      );\n\n      uint256 burnAmount = amount - tradeFee;\n      internalReserveToken.burnFrom(msg.sender, burnAmount);\n\n      // IMPORTANT! Internal reserve token must always be 1:1 \n      //            pegged with external reserve token\n\n      // *********************************************************\n      // IMPORTANT: Reserve token actions have been intentionally \n      //            place below burn to prevent re-entrancy from \n      //            reserve token contracts, TRUST NO ONE!!\n      // *********************************************************\n      // This contract is the RESERVE: no one can ever transfer the reserve tokens\n      // IMPORTANT: using require to perform actions\n      //            bcoz these methods return boolean\n      require(\n        externalReserveToken.transfer(msg.sender, burnAmount), \n        \"Failed to transfer tokens from reserve to user\"\n      );\n\n\n    } else if (stableTokens[fromTokenAddress].minTradeAmount > 0 && \n      (\n        toTokenAddress == internalReserveTokenAddress || \n        toTokenAddress == externalReserveTokenAddress\n      ) && \n      rate.multiplier > 0 && \n      rate.divider > 0 && \n      rate.lastUpdated > 0 && \n      rate.activated == true\n    ) {\n      // We're SELLING SIKA for KUSD|USDC|USDT === SIKA/KUSD|USDC|USDT\n\n      require(\n        amount >= stableTokens[fromTokenAddress].minTradeAmount, \n        \"Below minimum selling amount\"\n      );\n\n      IBurnableToken stableToken = IBurnableToken(fromTokenAddress);\n\n      uint256 tradeFee = (amount * tradeFeePercentMultiplier) / tradeFeePercentDivider;\n      require(\n        stableToken.transferFrom(msg.sender, treasury, tradeFee),\n        \"Failed to transfer trade fee to treasury\"\n      );\n\n      uint256 burnAmount = amount - tradeFee;\n      stableToken.burnFrom(msg.sender, burnAmount);\n\n      // stable to reserve === multiplier / divider === SIKA/KUSD\n      uint256 toAmount = (burnAmount * rate.multiplier) / rate.divider;\n\n      // *********************************************************\n      // IMPORTANT: Reserve token actions have been intentionally \n      //            place below burn to prevent re-entrancy from \n      //            reserve token contracts, TRUST NO ONE!!\n      // *********************************************************\n      IERC20 reserveToken = IERC20(toTokenAddress);\n\n      require(\n        reserveToken.balanceOf(address(this)) >= toAmount, \n        \"Exchange has insufficient reserve token balance\"\n      );\n\n      // This contract is the RESERVE: no one can ever transfer the reserve tokens\n      // In the case of an upgrade; users will need to sell their stable token \n      // and buy the new stable token, all sells must come from the RESERVE\n      // IMPORTANT: using require to perform actions bcoz these methods return boolean\n      require(\n        reserveToken.transfer(msg.sender, toAmount), \n        \"Failed to transfer tokens from reserve to user\"\n      );\n\n\n    } else if (stableTokens[toTokenAddress].minTradeAmount > 0 && \n      (\n        fromTokenAddress == internalReserveTokenAddress || \n        fromTokenAddress == externalReserveTokenAddress\n      ) && \n      rate.multiplier > 0 && \n      rate.divider > 0 && \n      rate.lastUpdated > 0 && \n      rate.activated == true\n    ) {\n      // We're BUYING SIKA with KUSD|USDC|USDT === KUSD|USDC|USDT/SIKA\n\n      IERC20 reserveToken = IERC20(fromTokenAddress);\n\n      // we're using `address(this)` here bcoz the exchange \n      // contract serves as the reserve hence reserve tokens are sent to it\n      require(\n        reserveToken.transferFrom(msg.sender, address(this), amount), \n        \"Failed to transfer tokens from user to reserve\"\n      );\n\n      // reserve to stable === divider / multiplier === KUSD/SIKA\n      uint256 toAmount = (amount * rate.divider) / rate.multiplier;\n\n      require(\n        toAmount >= stableTokens[toTokenAddress].minTradeAmount, \n        \"Below minimum buying amount\"\n      );\n\n      // IMPORTANT: tradeFee = (toAmount * 2) / 1000;\n      uint256 tradeFee = (toAmount * tradeFeePercentMultiplier) / tradeFeePercentDivider;\n      uint256 mintAmount = toAmount - tradeFee;\n\n      IBurnableToken stableToken = IBurnableToken(toTokenAddress);\n      stableToken.mint(treasury, tradeFee);\n      stableToken.mint(msg.sender, mintAmount);\n\n\n    } else if (stableTokens[fromTokenAddress].minTradeAmount > 0 && \n               stableTokens[toTokenAddress].minTradeAmount > 0\n    ) {\n      // if both of the tokens are stable tokens then we're SELLING and BUYING\n      // not a direct route: fromToken -> reserveToken -> toToken amount\n\n      // This is a conversion of one stable token to another stable token\n      // hence find the rate of each stabletoken with a reserve token\n      RateStruct storage fromRate = rates[fromTokenAddress];\n      RateStruct storage toRate = rates[toTokenAddress];\n\n      // make sure they're part of our existing exchange pairs\n      require(\n        fromRate.multiplier > 0 && \n        fromRate.lastUpdated > 0 && \n        fromRate.activated == true && \n        toRate.multiplier > 0 && \n        toRate.lastUpdated > 0 && \n        toRate.activated == true,\n        \"Non-existent exchange rate\"\n      );\n\n      // Checked only for fromToken... no need to check for toToken\n      require(\n        amount >= stableTokens[fromTokenAddress].minTradeAmount, \n        \"Below minimum selling amount\"\n      );\n\n      IBurnableToken fromStableToken = IBurnableToken(fromTokenAddress);\n\n      // IMPORTANT! trade fee will be deducted once, not one for selling and one for buying\n      uint256 tradeFee = (amount * tradeFeePercentMultiplier) / tradeFeePercentDivider;\n      require(\n        fromStableToken.transferFrom(msg.sender, treasury, tradeFee),\n        \"Failed to transfer trade fee to treasury\"\n      );\n\n      uint256 burnAmount = amount - tradeFee;\n\n      // burning this amount of fromToken as it \n      // will be minted as a new amount in toToken\n      fromStableToken.burnFrom(msg.sender, burnAmount);\n\n      // stable to reserve === multiplier / divider === SIKA/KUSD\n      // reserve to stable === divider / multiplier === KUSD/SIKA\n      // e.g. KUDI -> KUSD -> SIKA\n      uint256 buyAmount =\n        (((burnAmount * fromRate.multiplier) / fromRate.divider) * toRate.divider) / toRate.multiplier;\n\n      IBurnableToken toStableToken = IBurnableToken(toTokenAddress);\n      toStableToken.mint(msg.sender, buyAmount);\n\n    } else {\n      // \"Unsupported Direct Exchange. Either these tokens are not supported or you should try converting to a different token first\"\n      // revert(\"Unsupported exchange pair. You cannot convert from or to one of these tokens\");\n      revert(\"Non-existent exchange rate or no direct conversion\");\n    }\n\n  }\n\n}\n",
  "sourcePath": "/home/peps/progjects/kdsk/contracts/Exchange.sol",
  "compiler": {
    "name": "solc",
    "version": "0.8.19+commit.7dd6d404.Emscripten.clang"
  },
  "schemaVersion": "3.4.14",
  "updatedAt": "2023-06-29T10:36:43.996Z",
  "networkType": "ethereum",
  "devdoc": {
    "events": {
      "RoleAdminChanged(bytes32,bytes32,bytes32)": {
        "details": "Emitted when `newAdminRole` is set as ``role``'s admin role, replacing `previousAdminRole` `DEFAULT_ADMIN_ROLE` is the starting admin for all roles, despite {RoleAdminChanged} not being emitted signaling this. _Available since v3.1._"
      },
      "RoleGranted(bytes32,address,address)": {
        "details": "Emitted when `account` is granted `role`. `sender` is the account that originated the contract call, an admin role bearer except when using {AccessControl-_setupRole}."
      },
      "RoleRevoked(bytes32,address,address)": {
        "details": "Emitted when `account` is revoked `role`. `sender` is the account that originated the contract call:   - if using `revokeRole`, it is the admin role bearer   - if using `renounceRole`, it is the role bearer (i.e. `account`)"
      }
    },
    "kind": "dev",
    "methods": {
      "getRoleAdmin(bytes32)": {
        "details": "Returns the admin role that controls `role`. See {grantRole} and {revokeRole}. To change a role's admin, use {_setRoleAdmin}."
      },
      "getRoleMember(bytes32,uint256)": {
        "details": "Returns one of the accounts that have `role`. `index` must be a value between 0 and {getRoleMemberCount}, non-inclusive. Role bearers are not sorted in any particular way, and their ordering may change at any point. WARNING: When using {getRoleMember} and {getRoleMemberCount}, make sure you perform all queries on the same block. See the following https://forum.openzeppelin.com/t/iterating-over-elements-on-enumerableset-in-openzeppelin-contracts/2296[forum post] for more information."
      },
      "getRoleMemberCount(bytes32)": {
        "details": "Returns the number of accounts that have `role`. Can be used together with {getRoleMember} to enumerate all bearers of a role."
      },
      "grantRole(bytes32,address)": {
        "details": "Grants `role` to `account`. If `account` had not been already granted `role`, emits a {RoleGranted} event. Requirements: - the caller must have ``role``'s admin role. May emit a {RoleGranted} event."
      },
      "hasRole(bytes32,address)": {
        "details": "Returns `true` if `account` has been granted `role`."
      },
      "renounceRole(bytes32,address)": {
        "details": "Revokes `role` from the calling account. Roles are often managed via {grantRole} and {revokeRole}: this function's purpose is to provide a mechanism for accounts to lose their privileges if they are compromised (such as when a trusted device is misplaced). If the calling account had been revoked `role`, emits a {RoleRevoked} event. Requirements: - the caller must be `account`. May emit a {RoleRevoked} event."
      },
      "revokeRole(bytes32,address)": {
        "details": "Revokes `role` from `account`. If `account` had been granted `role`, emits a {RoleRevoked} event. Requirements: - the caller must have ``role``'s admin role. May emit a {RoleRevoked} event."
      },
      "supportsInterface(bytes4)": {
        "details": "See {IERC165-supportsInterface}."
      }
    },
    "version": 1
  },
  "userdoc": {
    "kind": "user",
    "methods": {},
    "version": 1
  }
}