{
  "contractName": "GrowthEarnSIKA",
  "abi": [
    {
      "inputs": [],
      "stateMutability": "nonpayable",
      "type": "constructor"
    },
    {
      "anonymous": false,
      "inputs": [
        {
          "indexed": true,
          "internalType": "address",
          "name": "owner",
          "type": "address"
        },
        {
          "indexed": true,
          "internalType": "address",
          "name": "spender",
          "type": "address"
        },
        {
          "indexed": false,
          "internalType": "uint256",
          "name": "value",
          "type": "uint256"
        }
      ],
      "name": "Approval",
      "type": "event"
    },
    {
      "anonymous": false,
      "inputs": [
        {
          "indexed": true,
          "internalType": "bytes32",
          "name": "role",
          "type": "bytes32"
        },
        {
          "indexed": true,
          "internalType": "bytes32",
          "name": "previousAdminRole",
          "type": "bytes32"
        },
        {
          "indexed": true,
          "internalType": "bytes32",
          "name": "newAdminRole",
          "type": "bytes32"
        }
      ],
      "name": "RoleAdminChanged",
      "type": "event"
    },
    {
      "anonymous": false,
      "inputs": [
        {
          "indexed": true,
          "internalType": "bytes32",
          "name": "role",
          "type": "bytes32"
        },
        {
          "indexed": true,
          "internalType": "address",
          "name": "account",
          "type": "address"
        },
        {
          "indexed": true,
          "internalType": "address",
          "name": "sender",
          "type": "address"
        }
      ],
      "name": "RoleGranted",
      "type": "event"
    },
    {
      "anonymous": false,
      "inputs": [
        {
          "indexed": true,
          "internalType": "bytes32",
          "name": "role",
          "type": "bytes32"
        },
        {
          "indexed": true,
          "internalType": "address",
          "name": "account",
          "type": "address"
        },
        {
          "indexed": true,
          "internalType": "address",
          "name": "sender",
          "type": "address"
        }
      ],
      "name": "RoleRevoked",
      "type": "event"
    },
    {
      "anonymous": false,
      "inputs": [
        {
          "indexed": true,
          "internalType": "address",
          "name": "from",
          "type": "address"
        },
        {
          "indexed": true,
          "internalType": "address",
          "name": "to",
          "type": "address"
        },
        {
          "indexed": false,
          "internalType": "uint256",
          "name": "value",
          "type": "uint256"
        }
      ],
      "name": "Transfer",
      "type": "event"
    },
    {
      "inputs": [],
      "name": "DEFAULT_ADMIN_ROLE",
      "outputs": [
        {
          "internalType": "bytes32",
          "name": "",
          "type": "bytes32"
        }
      ],
      "stateMutability": "view",
      "type": "function",
      "constant": true
    },
    {
      "inputs": [],
      "name": "MINTER_ROLE",
      "outputs": [
        {
          "internalType": "bytes32",
          "name": "",
          "type": "bytes32"
        }
      ],
      "stateMutability": "view",
      "type": "function",
      "constant": true
    },
    {
      "inputs": [
        {
          "internalType": "bytes32",
          "name": "role",
          "type": "bytes32"
        }
      ],
      "name": "getRoleAdmin",
      "outputs": [
        {
          "internalType": "bytes32",
          "name": "",
          "type": "bytes32"
        }
      ],
      "stateMutability": "view",
      "type": "function",
      "constant": true
    },
    {
      "inputs": [
        {
          "internalType": "bytes32",
          "name": "role",
          "type": "bytes32"
        },
        {
          "internalType": "uint256",
          "name": "index",
          "type": "uint256"
        }
      ],
      "name": "getRoleMember",
      "outputs": [
        {
          "internalType": "address",
          "name": "",
          "type": "address"
        }
      ],
      "stateMutability": "view",
      "type": "function",
      "constant": true
    },
    {
      "inputs": [
        {
          "internalType": "bytes32",
          "name": "role",
          "type": "bytes32"
        }
      ],
      "name": "getRoleMemberCount",
      "outputs": [
        {
          "internalType": "uint256",
          "name": "",
          "type": "uint256"
        }
      ],
      "stateMutability": "view",
      "type": "function",
      "constant": true
    },
    {
      "inputs": [
        {
          "internalType": "bytes32",
          "name": "role",
          "type": "bytes32"
        },
        {
          "internalType": "address",
          "name": "account",
          "type": "address"
        }
      ],
      "name": "grantRole",
      "outputs": [],
      "stateMutability": "nonpayable",
      "type": "function"
    },
    {
      "inputs": [
        {
          "internalType": "bytes32",
          "name": "role",
          "type": "bytes32"
        },
        {
          "internalType": "address",
          "name": "account",
          "type": "address"
        }
      ],
      "name": "hasRole",
      "outputs": [
        {
          "internalType": "bool",
          "name": "",
          "type": "bool"
        }
      ],
      "stateMutability": "view",
      "type": "function",
      "constant": true
    },
    {
      "inputs": [
        {
          "internalType": "bytes32",
          "name": "role",
          "type": "bytes32"
        },
        {
          "internalType": "address",
          "name": "account",
          "type": "address"
        }
      ],
      "name": "renounceRole",
      "outputs": [],
      "stateMutability": "nonpayable",
      "type": "function"
    },
    {
      "inputs": [
        {
          "internalType": "bytes32",
          "name": "role",
          "type": "bytes32"
        },
        {
          "internalType": "address",
          "name": "account",
          "type": "address"
        }
      ],
      "name": "revokeRole",
      "outputs": [],
      "stateMutability": "nonpayable",
      "type": "function"
    },
    {
      "inputs": [
        {
          "internalType": "bytes4",
          "name": "interfaceId",
          "type": "bytes4"
        }
      ],
      "name": "supportsInterface",
      "outputs": [
        {
          "internalType": "bool",
          "name": "",
          "type": "bool"
        }
      ],
      "stateMutability": "view",
      "type": "function",
      "constant": true
    },
    {
      "inputs": [
        {
          "internalType": "address",
          "name": "contractAddress",
          "type": "address"
        }
      ],
      "name": "setMinter",
      "outputs": [],
      "stateMutability": "nonpayable",
      "type": "function"
    },
    {
      "inputs": [],
      "name": "toggleIsTransferable",
      "outputs": [],
      "stateMutability": "nonpayable",
      "type": "function"
    },
    {
      "inputs": [],
      "name": "name",
      "outputs": [
        {
          "internalType": "string",
          "name": "",
          "type": "string"
        }
      ],
      "stateMutability": "view",
      "type": "function",
      "constant": true
    },
    {
      "inputs": [],
      "name": "symbol",
      "outputs": [
        {
          "internalType": "string",
          "name": "",
          "type": "string"
        }
      ],
      "stateMutability": "view",
      "type": "function",
      "constant": true
    },
    {
      "inputs": [],
      "name": "decimals",
      "outputs": [
        {
          "internalType": "uint8",
          "name": "",
          "type": "uint8"
        }
      ],
      "stateMutability": "pure",
      "type": "function",
      "constant": true
    },
    {
      "inputs": [],
      "name": "totalSupply",
      "outputs": [
        {
          "internalType": "uint256",
          "name": "",
          "type": "uint256"
        }
      ],
      "stateMutability": "view",
      "type": "function",
      "constant": true
    },
    {
      "inputs": [
        {
          "internalType": "address",
          "name": "account",
          "type": "address"
        }
      ],
      "name": "balanceOf",
      "outputs": [
        {
          "internalType": "uint256",
          "name": "",
          "type": "uint256"
        }
      ],
      "stateMutability": "view",
      "type": "function",
      "constant": true
    },
    {
      "inputs": [
        {
          "internalType": "address",
          "name": "to",
          "type": "address"
        },
        {
          "internalType": "uint256",
          "name": "amount",
          "type": "uint256"
        }
      ],
      "name": "transfer",
      "outputs": [
        {
          "internalType": "bool",
          "name": "",
          "type": "bool"
        }
      ],
      "stateMutability": "nonpayable",
      "type": "function"
    },
    {
      "inputs": [
        {
          "internalType": "address",
          "name": "from",
          "type": "address"
        },
        {
          "internalType": "address",
          "name": "to",
          "type": "address"
        },
        {
          "internalType": "uint256",
          "name": "amount",
          "type": "uint256"
        }
      ],
      "name": "transferFrom",
      "outputs": [
        {
          "internalType": "bool",
          "name": "",
          "type": "bool"
        }
      ],
      "stateMutability": "nonpayable",
      "type": "function"
    },
    {
      "inputs": [
        {
          "internalType": "address",
          "name": "owner",
          "type": "address"
        },
        {
          "internalType": "address",
          "name": "spender",
          "type": "address"
        }
      ],
      "name": "allowance",
      "outputs": [
        {
          "internalType": "uint256",
          "name": "",
          "type": "uint256"
        }
      ],
      "stateMutability": "view",
      "type": "function",
      "constant": true
    },
    {
      "inputs": [
        {
          "internalType": "address",
          "name": "spender",
          "type": "address"
        },
        {
          "internalType": "uint256",
          "name": "amount",
          "type": "uint256"
        }
      ],
      "name": "approve",
      "outputs": [
        {
          "internalType": "bool",
          "name": "",
          "type": "bool"
        }
      ],
      "stateMutability": "nonpayable",
      "type": "function"
    },
    {
      "inputs": [
        {
          "internalType": "address",
          "name": "to",
          "type": "address"
        },
        {
          "internalType": "uint256",
          "name": "amount",
          "type": "uint256"
        }
      ],
      "name": "mint",
      "outputs": [],
      "stateMutability": "nonpayable",
      "type": "function"
    },
    {
      "inputs": [
        {
          "internalType": "address",
          "name": "account",
          "type": "address"
        },
        {
          "internalType": "uint256",
          "name": "amount",
          "type": "uint256"
        }
      ],
      "name": "burnFrom",
      "outputs": [],
      "stateMutability": "nonpayable",
      "type": "function"
    }
  ],
  "bytecode": "0x60806040523480156200001157600080fd5b506040518060400160405280601081526020017f47726f777468204561726e2053494b410000000000000000000000000000000081525060059081620000589190620005c1565b506040518060400160405280600681526020017f676553494b410000000000000000000000000000000000000000000000000000815250600690816200009f9190620005c1565b50620000b56000801b33620000bb60201b60201c565b620006a8565b620000cd8282620000d160201b60201c565b5050565b620000e382826200010f60201b60201c565b6200010a81600160008581526020019081526020016000206200020060201b90919060201c565b505050565b6200012182826200023860201b60201c565b620001fc57600160008084815260200190815260200160002060000160008373ffffffffffffffffffffffffffffffffffffffff1673ffffffffffffffffffffffffffffffffffffffff16815260200190815260200160002060006101000a81548160ff021916908315150217905550620001a1620002a260201b60201c565b73ffffffffffffffffffffffffffffffffffffffff168173ffffffffffffffffffffffffffffffffffffffff16837f2f8788117e7eff1d82e926ec794901d17c78024a50270940304540a733656f0d60405160405180910390a45b5050565b600062000230836000018373ffffffffffffffffffffffffffffffffffffffff1660001b620002aa60201b60201c565b905092915050565b600080600084815260200190815260200160002060000160008373ffffffffffffffffffffffffffffffffffffffff1673ffffffffffffffffffffffffffffffffffffffff16815260200190815260200160002060009054906101000a900460ff16905092915050565b600033905090565b6000620002be83836200032460201b60201c565b620003195782600001829080600181540180825580915050600190039060005260206000200160009091909190915055826000018054905083600101600084815260200190815260200160002081905550600190506200031e565b600090505b92915050565b600080836001016000848152602001908152602001600020541415905092915050565b600081519050919050565b7f4e487b7100000000000000000000000000000000000000000000000000000000600052604160045260246000fd5b7f4e487b7100000000000000000000000000000000000000000000000000000000600052602260045260246000fd5b60006002820490506001821680620003c957607f821691505b602082108103620003df57620003de62000381565b5b50919050565b60008190508160005260206000209050919050565b60006020601f8301049050919050565b600082821b905092915050565b600060088302620004497fffffffffffffffffffffffffffffffffffffffffffffffffffffffffffffffff826200040a565b6200045586836200040a565b95508019841693508086168417925050509392505050565b6000819050919050565b6000819050919050565b6000620004a26200049c62000496846200046d565b62000477565b6200046d565b9050919050565b6000819050919050565b620004be8362000481565b620004d6620004cd82620004a9565b84845462000417565b825550505050565b600090565b620004ed620004de565b620004fa818484620004b3565b505050565b5b81811015620005225762000516600082620004e3565b60018101905062000500565b5050565b601f82111562000571576200053b81620003e5565b6200054684620003fa565b8101602085101562000556578190505b6200056e6200056585620003fa565b830182620004ff565b50505b505050565b600082821c905092915050565b6000620005966000198460080262000576565b1980831691505092915050565b6000620005b1838362000583565b9150826002028217905092915050565b620005cc8262000347565b67ffffffffffffffff811115620005e857620005e762000352565b5b620005f48254620003b0565b6200060182828562000526565b600060209050601f83116001811462000639576000841562000624578287015190505b620006308582620005a3565b865550620006a0565b601f1984166200064986620003e5565b60005b8281101562000673578489015182556001820191506020850194506020810190506200064c565b868310156200069357848901516200068f601f89168262000583565b8355505b6001600288020188555050505b505050505050565b612b1180620006b86000396000f3fe608060405234801561001057600080fd5b506004361061014d5760003560e01c806370a08231116100c3578063a9059cbb1161007c578063a9059cbb146103b2578063ca15c873146103e2578063d539139314610412578063d547741f14610430578063dd62ed3e1461044c578063fca3b5aa1461047c5761014d565b806370a08231146102ca57806379cc6790146102fa5780639010d07c1461031657806391d148541461034657806395d89b4114610376578063a217fddf146103945761014d565b8063248a9ca311610115578063248a9ca31461021e5780632eebdb8f1461024e5780632f2ff15d14610258578063313ce5671461027457806336568abe1461029257806340c10f19146102ae5761014d565b806301ffc9a71461015257806306fdde0314610182578063095ea7b3146101a057806318160ddd146101d057806323b872dd146101ee575b600080fd5b61016c60048036038101906101679190611c83565b610498565b6040516101799190611ccb565b60405180910390f35b61018a610512565b6040516101979190611d76565b60405180910390f35b6101ba60048036038101906101b59190611e2c565b6105a4565b6040516101c79190611ccb565b60405180910390f35b6101d86105c0565b6040516101e59190611e7b565b60405180910390f35b61020860048036038101906102039190611e96565b6105ca565b6040516102159190611ccb565b60405180910390f35b61023860048036038101906102339190611f1f565b610649565b6040516102459190611f5b565b60405180910390f35b610256610668565b005b610272600480360381019061026d9190611f76565b6106a2565b005b61027c6106c3565b6040516102899190611fd2565b60405180910390f35b6102ac60048036038101906102a79190611f76565b6106cc565b005b6102c860048036038101906102c39190611e2c565b61074f565b005b6102e460048036038101906102df9190611fed565b6107c6565b6040516102f19190611e7b565b60405180910390f35b610314600480360381019061030f9190611e2c565b61080f565b005b610330600480360381019061032b919061201a565b61086f565b60405161033d9190612069565b60405180910390f35b610360600480360381019061035b9190611f76565b61089e565b60405161036d9190611ccb565b60405180910390f35b61037e610908565b60405161038b9190611d76565b60405180910390f35b61039c61099a565b6040516103a99190611f5b565b60405180910390f35b6103cc60048036038101906103c79190611e2c565b6109a1565b6040516103d99190611ccb565b60405180910390f35b6103fc60048036038101906103f79190611f1f565b610a14565b6040516104099190611e7b565b60405180910390f35b61041a610a38565b6040516104279190611f5b565b60405180910390f35b61044a60048036038101906104459190611f76565b610a5c565b005b61046660048036038101906104619190612084565b610a7d565b6040516104739190611e7b565b60405180910390f35b61049660048036038101906104919190611fed565b610b04565b005b60007f5a05180f000000000000000000000000000000000000000000000000000000007bffffffffffffffffffffffffffffffffffffffffffffffffffffffff1916827bffffffffffffffffffffffffffffffffffffffffffffffffffffffff1916148061050b575061050a82610bdd565b5b9050919050565b606060058054610521906120f3565b80601f016020809104026020016040519081016040528092919081815260200182805461054d906120f3565b801561059a5780601f1061056f5761010080835404028352916020019161059a565b820191906000526020600020905b81548152906001019060200180831161057d57829003601f168201915b5050505050905090565b6000803390506105b5818585610c57565b600191505092915050565b6000600454905090565b6000600760009054906101000a900460ff1661061b576040517f08c379a000000000000000000000000000000000000000000000000000000000815260040161061290612170565b60405180910390fd5b6000610625610e20565b9050610632858285610e28565b61063d858585610eb4565b60019150509392505050565b6000806000838152602001908152602001600020600101549050919050565b6000801b61067581611117565b600760009054906101000a900460ff1615600760006101000a81548160ff02191690831515021790555050565b6106ab82610649565b6106b481611117565b6106be838361112b565b505050565b60006006905090565b6106d4610e20565b73ffffffffffffffffffffffffffffffffffffffff168173ffffffffffffffffffffffffffffffffffffffff1614610741576040517f08c379a000000000000000000000000000000000000000000000000000000000815260040161073890612202565b60405180910390fd5b61074b828261115f565b5050565b6107797f9f2df0fed2c77648de5860a4cc508cd0818c85b8b8a1ab4ceeef8d981c8956a63361089e565b6107b8576040517f08c379a00000000000000000000000000000000000000000000000000000000081526004016107af90612294565b60405180910390fd5b6107c28282611193565b5050565b6000600260008373ffffffffffffffffffffffffffffffffffffffff1673ffffffffffffffffffffffffffffffffffffffff168152602001908152602001600020549050919050565b600061081b8333610a7d565b905081811015610860576040517f08c379a000000000000000000000000000000000000000000000000000000000815260040161085790612300565b60405180910390fd5b61086a83836112db565b505050565b6000610896826001600086815260200190815260200160002061149b90919063ffffffff16565b905092915050565b600080600084815260200190815260200160002060000160008373ffffffffffffffffffffffffffffffffffffffff1673ffffffffffffffffffffffffffffffffffffffff16815260200190815260200160002060009054906101000a900460ff16905092915050565b606060068054610917906120f3565b80601f0160208091040260200160405190810160405280929190818152602001828054610943906120f3565b80156109905780601f1061096557610100808354040283529160200191610990565b820191906000526020600020905b81548152906001019060200180831161097357829003601f168201915b5050505050905090565b6000801b81565b6000600760009054906101000a900460ff166109f2576040517f08c379a00000000000000000000000000000000000000000000000000000000081526004016109e990612170565b60405180910390fd5b60006109fc610e20565b9050610a09818585610eb4565b600191505092915050565b6000610a31600160008481526020019081526020016000206114b5565b9050919050565b7f9f2df0fed2c77648de5860a4cc508cd0818c85b8b8a1ab4ceeef8d981c8956a681565b610a6582610649565b610a6e81611117565b610a78838361115f565b505050565b6000600360008473ffffffffffffffffffffffffffffffffffffffff1673ffffffffffffffffffffffffffffffffffffffff16815260200190815260200160002060008373ffffffffffffffffffffffffffffffffffffffff1673ffffffffffffffffffffffffffffffffffffffff16815260200190815260200160002054905092915050565b6000801b610b1181611117565b60005b610b3d7f9f2df0fed2c77648de5860a4cc508cd0818c85b8b8a1ab4ceeef8d981c8956a6610a14565b811015610bae576000610b707f9f2df0fed2c77648de5860a4cc508cd0818c85b8b8a1ab4ceeef8d981c8956a68361086f565b9050610b9c7f9f2df0fed2c77648de5860a4cc508cd0818c85b8b8a1ab4ceeef8d981c8956a68261115f565b5080610ba79061234f565b9050610b14565b50610bd97f9f2df0fed2c77648de5860a4cc508cd0818c85b8b8a1ab4ceeef8d981c8956a68361112b565b5050565b60007f7965db0b000000000000000000000000000000000000000000000000000000007bffffffffffffffffffffffffffffffffffffffffffffffffffffffff1916827bffffffffffffffffffffffffffffffffffffffffffffffffffffffff19161480610c505750610c4f826114ca565b5b9050919050565b600073ffffffffffffffffffffffffffffffffffffffff168373ffffffffffffffffffffffffffffffffffffffff1603610cc6576040517f08c379a0000000000000000000000000000000000000000000000000000000008152600401610cbd90612409565b60405180910390fd5b600073ffffffffffffffffffffffffffffffffffffffff168273ffffffffffffffffffffffffffffffffffffffff1603610d35576040517f08c379a0000000000000000000000000000000000000000000000000000000008152600401610d2c9061249b565b60405180910390fd5b80600360008573ffffffffffffffffffffffffffffffffffffffff1673ffffffffffffffffffffffffffffffffffffffff16815260200190815260200160002060008473ffffffffffffffffffffffffffffffffffffffff1673ffffffffffffffffffffffffffffffffffffffff168152602001908152602001600020819055508173ffffffffffffffffffffffffffffffffffffffff168373ffffffffffffffffffffffffffffffffffffffff167f8c5be1e5ebec7d5bd14f71427d1e84f3dd0314c0f7b2291e5b200ac8c7c3b92583604051610e139190611e7b565b60405180910390a3505050565b600033905090565b6000610e348484610a7d565b90507fffffffffffffffffffffffffffffffffffffffffffffffffffffffffffffffff8114610eae5781811015610ea0576040517f08c379a0000000000000000000000000000000000000000000000000000000008152600401610e9790612300565b60405180910390fd5b610ead8484848403610c57565b5b50505050565b600073ffffffffffffffffffffffffffffffffffffffff168373ffffffffffffffffffffffffffffffffffffffff1603610f23576040517f08c379a0000000000000000000000000000000000000000000000000000000008152600401610f1a9061252d565b60405180910390fd5b600073ffffffffffffffffffffffffffffffffffffffff168273ffffffffffffffffffffffffffffffffffffffff1603610f92576040517f08c379a0000000000000000000000000000000000000000000000000000000008152600401610f89906125bf565b60405180910390fd5b6000600260008573ffffffffffffffffffffffffffffffffffffffff1673ffffffffffffffffffffffffffffffffffffffff16815260200190815260200160002054905081811015611019576040517f08c379a000000000000000000000000000000000000000000000000000000000815260040161101090612651565b60405180910390fd5b818103600260008673ffffffffffffffffffffffffffffffffffffffff1673ffffffffffffffffffffffffffffffffffffffff1681526020019081526020016000208190555081600260008573ffffffffffffffffffffffffffffffffffffffff1673ffffffffffffffffffffffffffffffffffffffff168152602001908152602001600020600082825401925050819055508273ffffffffffffffffffffffffffffffffffffffff168473ffffffffffffffffffffffffffffffffffffffff167fddf252ad1be2c89b69c2b068fc378daa952ba7f163c4a11628f55a4df523b3ef846040516111099190611e7b565b60405180910390a350505050565b61112881611123610e20565b611534565b50565b61113582826115b9565b61115a816001600085815260200190815260200160002061169990919063ffffffff16565b505050565b61116982826116c9565b61118e81600160008581526020019081526020016000206117aa90919063ffffffff16565b505050565b600073ffffffffffffffffffffffffffffffffffffffff168273ffffffffffffffffffffffffffffffffffffffff1603611202576040517f08c379a00000000000000000000000000000000000000000000000000000000081526004016111f9906126bd565b60405180910390fd5b806004600082825461121491906126dd565b9250508190555080600260008473ffffffffffffffffffffffffffffffffffffffff1673ffffffffffffffffffffffffffffffffffffffff168152602001908152602001600020600082825461126a91906126dd565b925050819055508173ffffffffffffffffffffffffffffffffffffffff16600073ffffffffffffffffffffffffffffffffffffffff167fddf252ad1be2c89b69c2b068fc378daa952ba7f163c4a11628f55a4df523b3ef836040516112cf9190611e7b565b60405180910390a35050565b600073ffffffffffffffffffffffffffffffffffffffff168273ffffffffffffffffffffffffffffffffffffffff160361134a576040517f08c379a000000000000000000000000000000000000000000000000000000000815260040161134190612783565b60405180910390fd5b6000600260008473ffffffffffffffffffffffffffffffffffffffff1673ffffffffffffffffffffffffffffffffffffffff168152602001908152602001600020549050818110156113d1576040517f08c379a00000000000000000000000000000000000000000000000000000000081526004016113c890612815565b60405180910390fd5b818103600260008573ffffffffffffffffffffffffffffffffffffffff1673ffffffffffffffffffffffffffffffffffffffff1681526020019081526020016000208190555081600460008282546114299190612835565b92505081905550600073ffffffffffffffffffffffffffffffffffffffff168373ffffffffffffffffffffffffffffffffffffffff167fddf252ad1be2c89b69c2b068fc378daa952ba7f163c4a11628f55a4df523b3ef8460405161148e9190611e7b565b60405180910390a3505050565b60006114aa83600001836117da565b60001c905092915050565b60006114c382600001611805565b9050919050565b60007f01ffc9a7000000000000000000000000000000000000000000000000000000007bffffffffffffffffffffffffffffffffffffffffffffffffffffffff1916827bffffffffffffffffffffffffffffffffffffffffffffffffffffffff1916149050919050565b61153e828261089e565b6115b55761154b81611816565b6115598360001c6020611843565b60405160200161156a92919061293d565b6040516020818303038152906040526040517f08c379a00000000000000000000000000000000000000000000000000000000081526004016115ac9190611d76565b60405180910390fd5b5050565b6115c3828261089e565b61169557600160008084815260200190815260200160002060000160008373ffffffffffffffffffffffffffffffffffffffff1673ffffffffffffffffffffffffffffffffffffffff16815260200190815260200160002060006101000a81548160ff02191690831515021790555061163a610e20565b73ffffffffffffffffffffffffffffffffffffffff168173ffffffffffffffffffffffffffffffffffffffff16837f2f8788117e7eff1d82e926ec794901d17c78024a50270940304540a733656f0d60405160405180910390a45b5050565b60006116c1836000018373ffffffffffffffffffffffffffffffffffffffff1660001b611a7f565b905092915050565b6116d3828261089e565b156117a657600080600084815260200190815260200160002060000160008373ffffffffffffffffffffffffffffffffffffffff1673ffffffffffffffffffffffffffffffffffffffff16815260200190815260200160002060006101000a81548160ff02191690831515021790555061174b610e20565b73ffffffffffffffffffffffffffffffffffffffff168173ffffffffffffffffffffffffffffffffffffffff16837ff6391f5c32d9c69d2a47ea670b442974b53935d1edc7fd64eb21e047a839171b60405160405180910390a45b5050565b60006117d2836000018373ffffffffffffffffffffffffffffffffffffffff1660001b611aef565b905092915050565b60008260000182815481106117f2576117f1612977565b5b9060005260206000200154905092915050565b600081600001805490509050919050565b606061183c8273ffffffffffffffffffffffffffffffffffffffff16601460ff16611843565b9050919050565b60606000600283600261185691906129a6565b61186091906126dd565b67ffffffffffffffff811115611879576118786129e8565b5b6040519080825280601f01601f1916602001820160405280156118ab5781602001600182028036833780820191505090505b5090507f3000000000000000000000000000000000000000000000000000000000000000816000815181106118e3576118e2612977565b5b60200101907effffffffffffffffffffffffffffffffffffffffffffffffffffffffffffff1916908160001a9053507f78000000000000000000000000000000000000000000000000000000000000008160018151811061194757611946612977565b5b60200101907effffffffffffffffffffffffffffffffffffffffffffffffffffffffffffff1916908160001a9053506000600184600261198791906129a6565b61199191906126dd565b90505b6001811115611a31577f3031323334353637383961626364656600000000000000000000000000000000600f8616601081106119d3576119d2612977565b5b1a60f81b8282815181106119ea576119e9612977565b5b60200101907effffffffffffffffffffffffffffffffffffffffffffffffffffffffffffff1916908160001a905350600485901c945080611a2a90612a17565b9050611994565b5060008414611a75576040517f08c379a0000000000000000000000000000000000000000000000000000000008152600401611a6c90612a8c565b60405180910390fd5b8091505092915050565b6000611a8b8383611c03565b611ae4578260000182908060018154018082558091505060019003906000526020600020016000909190919091505582600001805490508360010160008481526020019081526020016000208190555060019050611ae9565b600090505b92915050565b60008083600101600084815260200190815260200160002054905060008114611bf7576000600182611b219190612835565b9050600060018660000180549050611b399190612835565b9050818114611ba8576000866000018281548110611b5a57611b59612977565b5b9060005260206000200154905080876000018481548110611b7e57611b7d612977565b5b90600052602060002001819055508387600101600083815260200190815260200160002081905550505b85600001805480611bbc57611bbb612aac565b5b600190038181906000526020600020016000905590558560010160008681526020019081526020016000206000905560019350505050611bfd565b60009150505b92915050565b600080836001016000848152602001908152602001600020541415905092915050565b600080fd5b60007fffffffff0000000000000000000000000000000000000000000000000000000082169050919050565b611c6081611c2b565b8114611c6b57600080fd5b50565b600081359050611c7d81611c57565b92915050565b600060208284031215611c9957611c98611c26565b5b6000611ca784828501611c6e565b91505092915050565b60008115159050919050565b611cc581611cb0565b82525050565b6000602082019050611ce06000830184611cbc565b92915050565b600081519050919050565b600082825260208201905092915050565b60005b83811015611d20578082015181840152602081019050611d05565b60008484015250505050565b6000601f19601f8301169050919050565b6000611d4882611ce6565b611d528185611cf1565b9350611d62818560208601611d02565b611d6b81611d2c565b840191505092915050565b60006020820190508181036000830152611d908184611d3d565b905092915050565b600073ffffffffffffffffffffffffffffffffffffffff82169050919050565b6000611dc382611d98565b9050919050565b611dd381611db8565b8114611dde57600080fd5b50565b600081359050611df081611dca565b92915050565b6000819050919050565b611e0981611df6565b8114611e1457600080fd5b50565b600081359050611e2681611e00565b92915050565b60008060408385031215611e4357611e42611c26565b5b6000611e5185828601611de1565b9250506020611e6285828601611e17565b9150509250929050565b611e7581611df6565b82525050565b6000602082019050611e906000830184611e6c565b92915050565b600080600060608486031215611eaf57611eae611c26565b5b6000611ebd86828701611de1565b9350506020611ece86828701611de1565b9250506040611edf86828701611e17565b9150509250925092565b6000819050919050565b611efc81611ee9565b8114611f0757600080fd5b50565b600081359050611f1981611ef3565b92915050565b600060208284031215611f3557611f34611c26565b5b6000611f4384828501611f0a565b91505092915050565b611f5581611ee9565b82525050565b6000602082019050611f706000830184611f4c565b92915050565b60008060408385031215611f8d57611f8c611c26565b5b6000611f9b85828601611f0a565b9250506020611fac85828601611de1565b9150509250929050565b600060ff82169050919050565b611fcc81611fb6565b82525050565b6000602082019050611fe76000830184611fc3565b92915050565b60006020828403121561200357612002611c26565b5b600061201184828501611de1565b91505092915050565b6000806040838503121561203157612030611c26565b5b600061203f85828601611f0a565b925050602061205085828601611e17565b9150509250929050565b61206381611db8565b82525050565b600060208201905061207e600083018461205a565b92915050565b6000806040838503121561209b5761209a611c26565b5b60006120a985828601611de1565b92505060206120ba85828601611de1565b9150509250929050565b7f4e487b7100000000000000000000000000000000000000000000000000000000600052602260045260246000fd5b6000600282049050600182168061210b57607f821691505b60208210810361211e5761211d6120c4565b5b50919050565b7f546f6b656e206973206e6f74207472616e7366657261626c6500000000000000600082015250565b600061215a601983611cf1565b915061216582612124565b602082019050919050565b600060208201905081810360008301526121898161214d565b9050919050565b7f416363657373436f6e74726f6c3a2063616e206f6e6c792072656e6f756e636560008201527f20726f6c657320666f722073656c660000000000000000000000000000000000602082015250565b60006121ec602f83611cf1565b91506121f782612190565b604082019050919050565b6000602082019050818103600083015261221b816121df565b9050919050565b7f45524332303a206d7573742068617665206d696e74657220726f6c6520746f2060008201527f6d696e7400000000000000000000000000000000000000000000000000000000602082015250565b600061227e602483611cf1565b915061228982612222565b604082019050919050565b600060208201905081810360008301526122ad81612271565b9050919050565b7f45524332303a20696e73756666696369656e7420616c6c6f77616e6365000000600082015250565b60006122ea601d83611cf1565b91506122f5826122b4565b602082019050919050565b60006020820190508181036000830152612319816122dd565b9050919050565b7f4e487b7100000000000000000000000000000000000000000000000000000000600052601160045260246000fd5b600061235a82611df6565b91507fffffffffffffffffffffffffffffffffffffffffffffffffffffffffffffffff820361238c5761238b612320565b5b600182019050919050565b7f45524332303a20617070726f76652066726f6d20746865207a65726f2061646460008201527f7265737300000000000000000000000000000000000000000000000000000000602082015250565b60006123f3602483611cf1565b91506123fe82612397565b604082019050919050565b60006020820190508181036000830152612422816123e6565b9050919050565b7f45524332303a20617070726f766520746f20746865207a65726f20616464726560008201527f7373000000000000000000000000000000000000000000000000000000000000602082015250565b6000612485602283611cf1565b915061249082612429565b604082019050919050565b600060208201905081810360008301526124b481612478565b9050919050565b7f45524332303a207472616e736665722066726f6d20746865207a65726f20616460008201527f6472657373000000000000000000000000000000000000000000000000000000602082015250565b6000612517602583611cf1565b9150612522826124bb565b604082019050919050565b600060208201905081810360008301526125468161250a565b9050919050565b7f45524332303a207472616e7366657220746f20746865207a65726f206164647260008201527f6573730000000000000000000000000000000000000000000000000000000000602082015250565b60006125a9602383611cf1565b91506125b48261254d565b604082019050919050565b600060208201905081810360008301526125d88161259c565b9050919050565b7f45524332303a207472616e7366657220616d6f756e742065786365656473206260008201527f616c616e63650000000000000000000000000000000000000000000000000000602082015250565b600061263b602683611cf1565b9150612646826125df565b604082019050919050565b6000602082019050818103600083015261266a8161262e565b9050919050565b7f45524332303a206d696e7420746f20746865207a65726f206164647265737300600082015250565b60006126a7601f83611cf1565b91506126b282612671565b602082019050919050565b600060208201905081810360008301526126d68161269a565b9050919050565b60006126e882611df6565b91506126f383611df6565b925082820190508082111561270b5761270a612320565b5b92915050565b7f45524332303a206275726e2066726f6d20746865207a65726f2061646472657360008201527f7300000000000000000000000000000000000000000000000000000000000000602082015250565b600061276d602183611cf1565b915061277882612711565b604082019050919050565b6000602082019050818103600083015261279c81612760565b9050919050565b7f45524332303a206275726e20616d6f756e7420657863656564732062616c616e60008201527f6365000000000000000000000000000000000000000000000000000000000000602082015250565b60006127ff602283611cf1565b915061280a826127a3565b604082019050919050565b6000602082019050818103600083015261282e816127f2565b9050919050565b600061284082611df6565b915061284b83611df6565b925082820390508181111561286357612862612320565b5b92915050565b600081905092915050565b7f416363657373436f6e74726f6c3a206163636f756e7420000000000000000000600082015250565b60006128aa601783612869565b91506128b582612874565b601782019050919050565b60006128cb82611ce6565b6128d58185612869565b93506128e5818560208601611d02565b80840191505092915050565b7f206973206d697373696e6720726f6c6520000000000000000000000000000000600082015250565b6000612927601183612869565b9150612932826128f1565b601182019050919050565b60006129488261289d565b915061295482856128c0565b915061295f8261291a565b915061296b82846128c0565b91508190509392505050565b7f4e487b7100000000000000000000000000000000000000000000000000000000600052603260045260246000fd5b60006129b182611df6565b91506129bc83611df6565b92508282026129ca81611df6565b915082820484148315176129e1576129e0612320565b5b5092915050565b7f4e487b7100000000000000000000000000000000000000000000000000000000600052604160045260246000fd5b6000612a2282611df6565b915060008203612a3557612a34612320565b5b600182039050919050565b7f537472696e67733a20686578206c656e67746820696e73756666696369656e74600082015250565b6000612a76602083611cf1565b9150612a8182612a40565b602082019050919050565b60006020820190508181036000830152612aa581612a69565b9050919050565b7f4e487b7100000000000000000000000000000000000000000000000000000000600052603160045260246000fdfea26469706673582212200e72f528670929143da9da5f71351642f8309d7cca9a2559d5bb2b6346d9065864736f6c63430008130033",
  "immutableReferences": {},
  "source": "// SPDX-License-Identifier: UNLICENSED\npragma solidity ^0.8.19;\n\nimport \"@openzeppelin/contracts/access/AccessControlEnumerable.sol\";\n\n/**\n * @dev Implementation of the {IERC20} interface with Burnable.\n *\n * This implementation is agnostic to the way tokens are created. This means\n * that a supply mechanism has to be added in a derived contract using {_mint}.\n * For a generic mechanism see {ERC20PresetMinterPauser}.\n *\n * We have followed general OpenZeppelin Contracts guidelines: functions revert\n * instead returning `false` on failure. This behavior is nonetheless\n * conventional and does not conflict with the expectations of ERC20\n * applications.\n *\n * Additionally, an {Approval} event is emitted on calls to {transferFrom}.\n * This allows applications to reconstruct the allowance for all accounts just\n * by listening to said events. Other implementations of the EIP may not emit\n * these events, as it isn't required by the specification.\n */\ncontract GrowthEarnSIKA is AccessControlEnumerable {\n  bytes32 public constant MINTER_ROLE = keccak256(\"MINTER_ROLE\");\n\n  mapping(address => uint256) private _balances;\n\n  mapping(address => mapping(address => uint256)) private _allowances;\n\n  uint256 private _totalSupply;\n\n  string private _name;\n  string private _symbol;\n\n  bool private isTransferable;\n\n  /**\n   * @dev Emitted when `value` tokens are moved from one account (`from`) to\n   * another (`to`).\n   *\n   * Note that `value` may be zero.\n   */\n  event Transfer(address indexed from, address indexed to, uint256 value);\n\n  /**\n   * @dev Emitted when the allowance of a `spender` for an `owner` is set by\n   * a call to {approve}. `value` is the new allowance.\n   */\n  event Approval(address indexed owner, address indexed spender, uint256 value);\n\n  /**\n   * @dev Sets the values for {name} and {symbol}.\n   *\n   * The default value of {decimals} is 18. To select a different value for\n   * {decimals} you should overload it.\n   *\n   * Grants `DEFAULT_ADMIN_ROLE` to the account that deploys the contract.\n   *\n   * All three of these values are immutable: they can only be set once \n   * during construction.\n   */\n  constructor() {\n    _name = \"Growth Earn SIKA\";\n    _symbol = \"geSIKA\";\n\n    _setupRole(DEFAULT_ADMIN_ROLE, msg.sender);\n  }\n\n  function setMinter(address contractAddress) external onlyRole(DEFAULT_ADMIN_ROLE) {\n    for (uint256 i = 0; i < getRoleMemberCount(MINTER_ROLE); ++i) {\n      address member = getRoleMember(MINTER_ROLE, i);\n      _revokeRole(MINTER_ROLE, member);\n    }\n\n    // `grantRole` respects onlyRole modifier unlike `_setupRole`\n    _grantRole(MINTER_ROLE, contractAddress);\n  }\n\n  function toggleIsTransferable() external onlyRole(DEFAULT_ADMIN_ROLE) {\n    isTransferable = !isTransferable;\n  }\n\n  /**\n   * @dev Returns the name of the token.\n   */\n  function name() public view returns (string memory) {\n    return _name;\n  }\n\n  /**\n   * @dev Returns the symbol of the token, usually a shorter version of the\n   * name.\n   */\n  function symbol() public view returns (string memory) {\n    return _symbol;\n  }\n\n  /**\n   * @dev Returns the number of decimals used to get its user representation.\n   * For example, if `decimals` equals `2`, a balance of `505` tokens should\n   * be displayed to a user as `5.05` (`505 / 10 ** 2`).\n   *\n   * Tokens usually opt for a value of 18, imitating the relationship between\n   * Ether and Wei. This is the value {ERC20} uses, unless this function is\n   * overridden;\n   *\n   * NOTE: This information is only used for _display_ purposes: it in\n   * no way affects any of the arithmetic of the contract, including\n   * {IERC20-balanceOf} and {IERC20-transfer}.\n   */\n  function decimals() public pure returns (uint8) {\n    return 6;\n  }\n\n  /**\n   * @dev See {IERC20-totalSupply}.\n   */\n  function totalSupply() public view returns (uint256) {\n    return _totalSupply;\n  }\n\n  /**\n   * @dev See {IERC20-balanceOf}.\n   */\n  function balanceOf(address account) public view returns (uint256) {\n    return _balances[account];\n  }\n\n  /**\n   * @dev See {IERC20-transfer}.\n   *\n   * Requirements:\n   *\n   * - `to` cannot be the zero address.\n   * - the caller must have a balance of at least `amount`.\n   */\n  function transfer(address to, uint256 amount) public returns (bool) {\n    require(isTransferable, \"Token is not transferable\");\n    address owner = _msgSender();\n    _transfer(owner, to, amount);\n    return true;\n  }\n\n  /**\n   * @dev See {IERC20-transferFrom}.\n   *\n   * Emits an {Approval} event indicating the updated allowance. This is not\n   * required by the EIP. See the note at the beginning of {ERC20}.\n   *\n   * NOTE: Does not update the allowance if the current allowance\n   * is the maximum `uint256`.\n   *\n   * Requirements:\n   *\n   * - `from` and `to` cannot be the zero address.\n   * - `from` must have a balance of at least `amount`.\n   * - the caller must have allowance for ``from``'s tokens of at least\n   * `amount`.\n   */\n  function transferFrom(address from, address to, uint256 amount) public returns (bool) {\n    require(isTransferable, \"Token is not transferable\");\n    address spender = _msgSender();\n    _spendAllowance(from, spender, amount);\n    _transfer(from, to, amount);\n    return true;\n  }\n\n  /**\n   * @dev Moves `amount` of tokens from `from` to `to`.\n   *\n   * This internal function is equivalent to {transfer}, and can be used to\n   * e.g. implement automatic token fees, slashing mechanisms, etc.\n   *\n   * Emits a {Transfer} event.\n   *\n   * Requirements:\n   *\n   * - `from` cannot be the zero address.\n   * - `to` cannot be the zero address.\n   * - `from` must have a balance of at least `amount`.\n   */\n  function _transfer(\n      address from,\n      address to,\n      uint256 amount\n  ) internal {\n      require(from != address(0), \"ERC20: transfer from the zero address\");\n      require(to != address(0), \"ERC20: transfer to the zero address\");\n\n      uint256 fromBalance = _balances[from];\n      require(fromBalance >= amount, \"ERC20: transfer amount exceeds balance\");\n      unchecked {\n          _balances[from] = fromBalance - amount;\n          // Overflow not possible: the sum of all balances is capped by totalSupply, and the sum is preserved by\n          // decrementing then incrementing.\n          _balances[to] += amount;\n      }\n\n      emit Transfer(from, to, amount);\n  }\n\n  /**\n   * @dev See {IERC20-allowance}.\n   */\n  function allowance(address owner, address spender) public view returns (uint256) {\n    return _allowances[owner][spender];\n  }\n\n  /**\n   * @dev See {IERC20-approve}.\n   *\n   * NOTE: If `amount` is the maximum `uint256`, the allowance is not updated on\n   * `transferFrom`. This is semantically equivalent to an infinite approval.\n   *\n   * Requirements:\n   *\n   * - `spender` cannot be the zero address.\n   */\n  function approve(address spender, uint256 amount) public returns (bool) {\n    address owner = msg.sender;\n    _approve(owner, spender, amount);\n    return true;\n  }\n\n  /**\n   * @dev Creates `amount` new tokens for `to`.\n   * \n   * See {ERC20-_mint}.\n   *\n   * Requirements:\n   *\n   * - the caller must have the `MINTER_ROLE`.\n   */\n  function mint(address to, uint256 amount) external {\n    require(hasRole(MINTER_ROLE, msg.sender), \"ERC20: must have minter role to mint\");\n    _mint(to, amount);\n  }\n  \n  /**\n   * @dev Destroys `amount` tokens from `account`, deducting from the caller's\n   * allowance.\n   *\n   * See {ERC20-_burn} and {ERC20-allowance}.\n   *\n   * Requirements:\n   *\n   * - the caller must have allowance for ``accounts``'s tokens of at least\n   * `amount`.\n   */\n  function burnFrom(address account, uint256 amount) public {\n    uint256 currentAllowance = allowance(account, msg.sender);\n    require(currentAllowance >= amount, \"ERC20: insufficient allowance\");\n\n    _burn(account, amount);\n  }\n\n  /** @dev Creates `amount` tokens and assigns them to `account`, increasing\n   * the total supply.\n   *\n   * Emits a {Transfer} event with `from` set to the zero address.\n   *\n   * Requirements:\n   *\n   * - `account` cannot be the zero address.\n   */\n  function _mint(address account, uint256 amount) internal {\n    require(account != address(0), \"ERC20: mint to the zero address\");\n\n    _totalSupply += amount;\n    _balances[account] += amount;\n    emit Transfer(address(0), account, amount);\n  }\n\n  /**\n   * @dev Destroys `amount` tokens from `account`, reducing the\n   * total supply.\n   *\n   * Emits a {Transfer} event with `to` set to the zero address.\n   *\n   * Requirements:\n   *\n   * - `account` cannot be the zero address.\n   * - `account` must have at least `amount` tokens.\n   */\n  function _burn(address account, uint256 amount) internal {\n    require(account != address(0), \"ERC20: burn from the zero address\");\n\n    uint256 accountBalance = _balances[account];\n    require(accountBalance >= amount, \"ERC20: burn amount exceeds balance\");\n    unchecked {\n      _balances[account] = accountBalance - amount;\n    }\n    _totalSupply -= amount;\n\n    emit Transfer(account, address(0), amount);\n  }\n\n  /**\n   * @dev Sets `amount` as the allowance of `spender` over the `owner` s tokens.\n   *\n   * This internal function is equivalent to `approve`, and can be used to\n   * e.g. set automatic allowances for certain subsystems, etc.\n   *\n   * Emits an {Approval} event.\n   *\n   * Requirements:\n   *\n   * - `owner` cannot be the zero address.\n   * - `spender` cannot be the zero address.\n   */\n  function _approve(\n    address owner,\n    address spender,\n    uint256 amount\n  ) internal {\n    require(owner != address(0), \"ERC20: approve from the zero address\");\n    require(spender != address(0), \"ERC20: approve to the zero address\");\n\n    _allowances[owner][spender] = amount;\n    emit Approval(owner, spender, amount);\n  }\n\n  /**\n   * @dev Updates `owner` s allowance for `spender` based on spent `amount`.\n   *\n   * Does not update the allowance amount in case of infinite allowance.\n   * Revert if not enough allowance is available.\n   *\n   * Might emit an {Approval} event.\n   */\n  function _spendAllowance(\n      address owner,\n      address spender,\n      uint256 amount\n  ) internal {\n      uint256 currentAllowance = allowance(owner, spender);\n      if (currentAllowance != type(uint256).max) {\n          require(currentAllowance >= amount, \"ERC20: insufficient allowance\");\n          unchecked {\n              _approve(owner, spender, currentAllowance - amount);\n          }\n      }\n  }\n\n}\n",
  "sourcePath": "/home/peps/progjects/kdsk/contracts/GrowthEarnSIKA.sol",
  "compiler": {
    "name": "solc",
    "version": "0.8.19+commit.7dd6d404.Emscripten.clang"
  },
  "schemaVersion": "3.4.14",
  "updatedAt": "2023-07-11T22:57:09.955Z",
  "networkType": "ethereum",
  "devdoc": {
    "details": "Implementation of the {IERC20} interface with Burnable. This implementation is agnostic to the way tokens are created. This means that a supply mechanism has to be added in a derived contract using {_mint}. For a generic mechanism see {ERC20PresetMinterPauser}. We have followed general OpenZeppelin Contracts guidelines: functions revert instead returning `false` on failure. This behavior is nonetheless conventional and does not conflict with the expectations of ERC20 applications. Additionally, an {Approval} event is emitted on calls to {transferFrom}. This allows applications to reconstruct the allowance for all accounts just by listening to said events. Other implementations of the EIP may not emit these events, as it isn't required by the specification.",
    "events": {
      "Approval(address,address,uint256)": {
        "details": "Emitted when the allowance of a `spender` for an `owner` is set by a call to {approve}. `value` is the new allowance."
      },
      "RoleAdminChanged(bytes32,bytes32,bytes32)": {
        "details": "Emitted when `newAdminRole` is set as ``role``'s admin role, replacing `previousAdminRole` `DEFAULT_ADMIN_ROLE` is the starting admin for all roles, despite {RoleAdminChanged} not being emitted signaling this. _Available since v3.1._"
      },
      "RoleGranted(bytes32,address,address)": {
        "details": "Emitted when `account` is granted `role`. `sender` is the account that originated the contract call, an admin role bearer except when using {AccessControl-_setupRole}."
      },
      "RoleRevoked(bytes32,address,address)": {
        "details": "Emitted when `account` is revoked `role`. `sender` is the account that originated the contract call:   - if using `revokeRole`, it is the admin role bearer   - if using `renounceRole`, it is the role bearer (i.e. `account`)"
      },
      "Transfer(address,address,uint256)": {
        "details": "Emitted when `value` tokens are moved from one account (`from`) to another (`to`). Note that `value` may be zero."
      }
    },
    "kind": "dev",
    "methods": {
      "allowance(address,address)": {
        "details": "See {IERC20-allowance}."
      },
      "approve(address,uint256)": {
        "details": "See {IERC20-approve}. NOTE: If `amount` is the maximum `uint256`, the allowance is not updated on `transferFrom`. This is semantically equivalent to an infinite approval. Requirements: - `spender` cannot be the zero address."
      },
      "balanceOf(address)": {
        "details": "See {IERC20-balanceOf}."
      },
      "burnFrom(address,uint256)": {
        "details": "Destroys `amount` tokens from `account`, deducting from the caller's allowance. See {ERC20-_burn} and {ERC20-allowance}. Requirements: - the caller must have allowance for ``accounts``'s tokens of at least `amount`."
      },
      "constructor": {
        "details": "Sets the values for {name} and {symbol}. The default value of {decimals} is 18. To select a different value for {decimals} you should overload it. Grants `DEFAULT_ADMIN_ROLE` to the account that deploys the contract. All three of these values are immutable: they can only be set once  during construction."
      },
      "decimals()": {
        "details": "Returns the number of decimals used to get its user representation. For example, if `decimals` equals `2`, a balance of `505` tokens should be displayed to a user as `5.05` (`505 / 10 ** 2`). Tokens usually opt for a value of 18, imitating the relationship between Ether and Wei. This is the value {ERC20} uses, unless this function is overridden; NOTE: This information is only used for _display_ purposes: it in no way affects any of the arithmetic of the contract, including {IERC20-balanceOf} and {IERC20-transfer}."
      },
      "getRoleAdmin(bytes32)": {
        "details": "Returns the admin role that controls `role`. See {grantRole} and {revokeRole}. To change a role's admin, use {_setRoleAdmin}."
      },
      "getRoleMember(bytes32,uint256)": {
        "details": "Returns one of the accounts that have `role`. `index` must be a value between 0 and {getRoleMemberCount}, non-inclusive. Role bearers are not sorted in any particular way, and their ordering may change at any point. WARNING: When using {getRoleMember} and {getRoleMemberCount}, make sure you perform all queries on the same block. See the following https://forum.openzeppelin.com/t/iterating-over-elements-on-enumerableset-in-openzeppelin-contracts/2296[forum post] for more information."
      },
      "getRoleMemberCount(bytes32)": {
        "details": "Returns the number of accounts that have `role`. Can be used together with {getRoleMember} to enumerate all bearers of a role."
      },
      "grantRole(bytes32,address)": {
        "details": "Grants `role` to `account`. If `account` had not been already granted `role`, emits a {RoleGranted} event. Requirements: - the caller must have ``role``'s admin role. May emit a {RoleGranted} event."
      },
      "hasRole(bytes32,address)": {
        "details": "Returns `true` if `account` has been granted `role`."
      },
      "mint(address,uint256)": {
        "details": "Creates `amount` new tokens for `to`.  See {ERC20-_mint}. Requirements: - the caller must have the `MINTER_ROLE`."
      },
      "name()": {
        "details": "Returns the name of the token."
      },
      "renounceRole(bytes32,address)": {
        "details": "Revokes `role` from the calling account. Roles are often managed via {grantRole} and {revokeRole}: this function's purpose is to provide a mechanism for accounts to lose their privileges if they are compromised (such as when a trusted device is misplaced). If the calling account had been revoked `role`, emits a {RoleRevoked} event. Requirements: - the caller must be `account`. May emit a {RoleRevoked} event."
      },
      "revokeRole(bytes32,address)": {
        "details": "Revokes `role` from `account`. If `account` had been granted `role`, emits a {RoleRevoked} event. Requirements: - the caller must have ``role``'s admin role. May emit a {RoleRevoked} event."
      },
      "supportsInterface(bytes4)": {
        "details": "See {IERC165-supportsInterface}."
      },
      "symbol()": {
        "details": "Returns the symbol of the token, usually a shorter version of the name."
      },
      "totalSupply()": {
        "details": "See {IERC20-totalSupply}."
      },
      "transfer(address,uint256)": {
        "details": "See {IERC20-transfer}. Requirements: - `to` cannot be the zero address. - the caller must have a balance of at least `amount`."
      },
      "transferFrom(address,address,uint256)": {
        "details": "See {IERC20-transferFrom}. Emits an {Approval} event indicating the updated allowance. This is not required by the EIP. See the note at the beginning of {ERC20}. NOTE: Does not update the allowance if the current allowance is the maximum `uint256`. Requirements: - `from` and `to` cannot be the zero address. - `from` must have a balance of at least `amount`. - the caller must have allowance for ``from``'s tokens of at least `amount`."
      }
    },
    "version": 1
  },
  "userdoc": {
    "kind": "user",
    "methods": {},
    "version": 1
  }
}