{
  "contractName": "GrowthEarn",
  "abi": [
    {
      "inputs": [
        {
          "internalType": "address",
          "name": "sikaTokenAddress",
          "type": "address"
        },
        {
          "internalType": "address",
          "name": "stakedTokenAddress",
          "type": "address"
        }
      ],
      "stateMutability": "nonpayable",
      "type": "constructor"
    },
    {
      "inputs": [],
      "name": "minDeposit",
      "outputs": [
        {
          "internalType": "uint256",
          "name": "",
          "type": "uint256"
        }
      ],
      "stateMutability": "view",
      "type": "function",
      "constant": true
    },
    {
      "inputs": [],
      "name": "totalLockedAmount",
      "outputs": [
        {
          "internalType": "uint256",
          "name": "",
          "type": "uint256"
        }
      ],
      "stateMutability": "view",
      "type": "function",
      "constant": true
    },
    {
      "inputs": [
        {
          "internalType": "address",
          "name": "contractAddress",
          "type": "address"
        }
      ],
      "name": "setAccountsContract",
      "outputs": [],
      "stateMutability": "nonpayable",
      "type": "function"
    },
    {
      "inputs": [
        {
          "internalType": "uint256",
          "name": "amount",
          "type": "uint256"
        }
      ],
      "name": "setMinDeposit",
      "outputs": [],
      "stateMutability": "nonpayable",
      "type": "function"
    },
    {
      "inputs": [],
      "name": "toggleAllowDepositing",
      "outputs": [],
      "stateMutability": "nonpayable",
      "type": "function"
    },
    {
      "inputs": [],
      "name": "toggleAllowWithdrawing",
      "outputs": [],
      "stateMutability": "nonpayable",
      "type": "function"
    },
    {
      "inputs": [],
      "name": "getInvestments",
      "outputs": [
        {
          "components": [
            {
              "internalType": "address",
              "name": "investor",
              "type": "address"
            },
            {
              "internalType": "uint256",
              "name": "unlockDate",
              "type": "uint256"
            },
            {
              "internalType": "uint256",
              "name": "amount",
              "type": "uint256"
            },
            {
              "internalType": "bool",
              "name": "unlocked",
              "type": "bool"
            }
          ],
          "internalType": "struct GrowthEarn.InvestmentStruct[]",
          "name": "",
          "type": "tuple[]"
        }
      ],
      "stateMutability": "view",
      "type": "function",
      "constant": true
    },
    {
      "inputs": [],
      "name": "getInvestmentsLength",
      "outputs": [
        {
          "internalType": "uint256",
          "name": "",
          "type": "uint256"
        }
      ],
      "stateMutability": "view",
      "type": "function",
      "constant": true
    },
    {
      "inputs": [
        {
          "internalType": "uint256",
          "name": "startLoopAtIndex",
          "type": "uint256"
        }
      ],
      "name": "disburseEarnings",
      "outputs": [],
      "stateMutability": "nonpayable",
      "type": "function"
    },
    {
      "inputs": [
        {
          "internalType": "uint256",
          "name": "amount",
          "type": "uint256"
        }
      ],
      "name": "withdraw",
      "outputs": [],
      "stateMutability": "nonpayable",
      "type": "function"
    },
    {
      "inputs": [
        {
          "internalType": "uint256",
          "name": "amount",
          "type": "uint256"
        }
      ],
      "name": "deposit",
      "outputs": [],
      "stateMutability": "nonpayable",
      "type": "function"
    }
  ],
  "bytecode": "0x60806040526001600360146101000a81548160ff0219169083151502179055506001600360156101000a81548160ff0219169083151502179055503480156200004757600080fd5b5060405162001db538038062001db583398181016040528101906200006d9190620001a1565b81600360006101000a81548173ffffffffffffffffffffffffffffffffffffffff021916908373ffffffffffffffffffffffffffffffffffffffff16021790555080600260006101000a81548173ffffffffffffffffffffffffffffffffffffffff021916908373ffffffffffffffffffffffffffffffffffffffff160217905550336000806101000a81548173ffffffffffffffffffffffffffffffffffffffff021916908373ffffffffffffffffffffffffffffffffffffffff1602179055505050620001e8565b600080fd5b600073ffffffffffffffffffffffffffffffffffffffff82169050919050565b600062000169826200013c565b9050919050565b6200017b816200015c565b81146200018757600080fd5b50565b6000815190506200019b8162000170565b92915050565b60008060408385031215620001bb57620001ba62000137565b5b6000620001cb858286016200018a565b9250506020620001de858286016200018a565b9150509250929050565b611bbd80620001f86000396000f3fe608060405234801561001057600080fd5b50600436106100a95760003560e01c80638fcc9cfb116100715780638fcc9cfb14610140578063b00cd77c1461015c578063b6b55f2514610166578063d624722d14610182578063e861303d146101a0578063edd60a89146101aa576100a9565b806305a9f274146100ae5780632e1a7d4d146100cc578063395bf562146100e857806341b3d1851461010657806342edceac14610124575b600080fd5b6100b66101c6565b6040516100c391906113cd565b60405180910390f35b6100e660048036038101906100e19190611419565b6101cc565b005b6100f06105b5565b6040516100fd91906113cd565b60405180910390f35b61010e610651565b60405161011b91906113cd565b60405180910390f35b61013e600480360381019061013991906114a4565b610657565b005b61015a60048036038101906101559190611419565b610857565b005b6101646108ef565b005b610180600480360381019061017b9190611419565b6109a9565b005b61018a610d3e565b604051610197919061160e565b60405180910390f35b6101a8610f18565b005b6101c460048036038101906101bf9190611419565b610fd2565b005b60055481565b60011515600360159054906101000a900460ff16151514610222576040517f08c379a00000000000000000000000000000000000000000000000000000000081526004016102199061168d565b60405180910390fd5b6000600760003373ffffffffffffffffffffffffffffffffffffffff1673ffffffffffffffffffffffffffffffffffffffff168152602001908152602001600020905080600001548211158015610314575081600260009054906101000a900473ffffffffffffffffffffffffffffffffffffffff1673ffffffffffffffffffffffffffffffffffffffff166370a08231336040518263ffffffff1660e01b81526004016102d091906116bc565b602060405180830381865afa1580156102ed573d6000803e3d6000fd5b505050506040513d601f19601f8201168201806040525081019061031191906116ec565b10155b610353576040517f08c379a000000000000000000000000000000000000000000000000000000000815260040161034a90611765565b60405180910390fd5b600082905060005b8260010180549050811015610464576000600684600101838154811061038457610383611785565b5b9060005260206000200154815481106103a05761039f611785565b5b90600052602060002090600402019050600015158160030160009054906101000a900460ff161515036103d35750610451565b828160020154111561040057828160020160008282546103f391906117e3565b9250508190555050610464565b80600201548310158015610418575060008160020154115b1561044f5780600201548361042d91906117e3565b9250806002015481600201600082825461044791906117e3565b925050819055505b505b808061045c90611817565b91505061035b565b508282600001600082825461047991906117e3565b92505081905550600260009054906101000a900473ffffffffffffffffffffffffffffffffffffffff1673ffffffffffffffffffffffffffffffffffffffff166379cc679033856040518363ffffffff1660e01b81526004016104dd92919061185f565b600060405180830381600087803b1580156104f757600080fd5b505af115801561050b573d6000803e3d6000fd5b50505050600360009054906101000a900473ffffffffffffffffffffffffffffffffffffffff1673ffffffffffffffffffffffffffffffffffffffff1663a9059cbb33856040518363ffffffff1660e01b815260040161056c92919061185f565b6020604051808303816000875af115801561058b573d6000803e3d6000fd5b505050506040513d601f19601f820116820180604052508101906105af91906118b4565b50505050565b60008060009054906101000a900473ffffffffffffffffffffffffffffffffffffffff1673ffffffffffffffffffffffffffffffffffffffff163373ffffffffffffffffffffffffffffffffffffffff1614610646576040517f08c379a000000000000000000000000000000000000000000000000000000000815260040161063d9061192d565b60405180910390fd5b600680549050905090565b60045481565b60008054906101000a900473ffffffffffffffffffffffffffffffffffffffff1673ffffffffffffffffffffffffffffffffffffffff163373ffffffffffffffffffffffffffffffffffffffff16146106e5576040517f08c379a00000000000000000000000000000000000000000000000000000000081526004016106dc9061192d565b60405180910390fd5b80600160006101000a81548173ffffffffffffffffffffffffffffffffffffffff021916908373ffffffffffffffffffffffffffffffffffffffff160217905550600160009054906101000a900473ffffffffffffffffffffffffffffffffffffffff1673ffffffffffffffffffffffffffffffffffffffff1663de7390dd306040518263ffffffff1660e01b815260040161078191906116bc565b602060405180830381865afa15801561079e573d6000803e3d6000fd5b505050506040513d601f19601f820116820180604052508101906107c291906118b4565b61085457600160009054906101000a900473ffffffffffffffffffffffffffffffffffffffff1673ffffffffffffffffffffffffffffffffffffffff1663702d687f306040518263ffffffff1660e01b815260040161082191906116bc565b600060405180830381600087803b15801561083b57600080fd5b505af115801561084f573d6000803e3d6000fd5b505050505b50565b60008054906101000a900473ffffffffffffffffffffffffffffffffffffffff1673ffffffffffffffffffffffffffffffffffffffff163373ffffffffffffffffffffffffffffffffffffffff16146108e5576040517f08c379a00000000000000000000000000000000000000000000000000000000081526004016108dc9061192d565b60405180910390fd5b8060048190555050565b60008054906101000a900473ffffffffffffffffffffffffffffffffffffffff1673ffffffffffffffffffffffffffffffffffffffff163373ffffffffffffffffffffffffffffffffffffffff161461097d576040517f08c379a00000000000000000000000000000000000000000000000000000000081526004016109749061192d565b60405180910390fd5b600360149054906101000a900460ff1615600360146101000a81548160ff021916908315150217905550565b60011515600360149054906101000a900460ff161515146109ff576040517f08c379a00000000000000000000000000000000000000000000000000000000081526004016109f690611999565b60405180910390fd5b600454811015610a44576040517f08c379a0000000000000000000000000000000000000000000000000000000008152600401610a3b90611a2b565b60405180910390fd5b600360009054906101000a900473ffffffffffffffffffffffffffffffffffffffff1673ffffffffffffffffffffffffffffffffffffffff166323b872dd3360008054906101000a900473ffffffffffffffffffffffffffffffffffffffff16846040518463ffffffff1660e01b8152600401610ac393929190611a4b565b6020604051808303816000875af1158015610ae2573d6000803e3d6000fd5b505050506040513d601f19601f82011682018060405250810190610b0691906118b4565b50610b0f611374565b624f1a0042610b1e9190611a82565b8160200181815250508181604001818152505033816000019073ffffffffffffffffffffffffffffffffffffffff16908173ffffffffffffffffffffffffffffffffffffffff1681525050600681908060018154018082558091505060019003906000526020600020906004020160009091909190915060008201518160000160006101000a81548173ffffffffffffffffffffffffffffffffffffffff021916908373ffffffffffffffffffffffffffffffffffffffff160217905550602082015181600101556040820151816002015560608201518160030160006101000a81548160ff02191690831515021790555050506000600760003373ffffffffffffffffffffffffffffffffffffffff1673ffffffffffffffffffffffffffffffffffffffff1681526020019081526020016000209050806001016001600680549050610c6b91906117e3565b9080600181540180825580915050600190039060005260206000200160009091909190915055600260009054906101000a900473ffffffffffffffffffffffffffffffffffffffff1673ffffffffffffffffffffffffffffffffffffffff166340c10f1933856040518363ffffffff1660e01b8152600401610cee92919061185f565b600060405180830381600087803b158015610d0857600080fd5b505af1158015610d1c573d6000803e3d6000fd5b505050508260056000828254610d329190611a82565b92505081905550505050565b60606000600760003373ffffffffffffffffffffffffffffffffffffffff1673ffffffffffffffffffffffffffffffffffffffff16815260200190815260200160002090506000816001018054905067ffffffffffffffff811115610da657610da5611ab6565b5b604051908082528060200260200182016040528015610ddf57816020015b610dcc611374565b815260200190600190039081610dc45790505b509050600080600090505b8360010180549050811015610f0e5760006006856001018381548110610e1357610e12611785565b5b906000526020600020015481548110610e2f57610e2e611785565b5b90600052602060002090600402019050806040518060800160405290816000820160009054906101000a900473ffffffffffffffffffffffffffffffffffffffff1673ffffffffffffffffffffffffffffffffffffffff1673ffffffffffffffffffffffffffffffffffffffff16815260200160018201548152602001600282015481526020016003820160009054906101000a900460ff161515151581525050848480610edc90611817565b955081518110610eef57610eee611785565b5b6020026020010181905250508080610f0690611817565b915050610dea565b5081935050505090565b60008054906101000a900473ffffffffffffffffffffffffffffffffffffffff1673ffffffffffffffffffffffffffffffffffffffff163373ffffffffffffffffffffffffffffffffffffffff1614610fa6576040517f08c379a0000000000000000000000000000000000000000000000000000000008152600401610f9d9061192d565b60405180910390fd5b600360159054906101000a900460ff1615600360156101000a81548160ff021916908315150217905550565b60008054906101000a900473ffffffffffffffffffffffffffffffffffffffff1673ffffffffffffffffffffffffffffffffffffffff163373ffffffffffffffffffffffffffffffffffffffff1614611060576040517f08c379a00000000000000000000000000000000000000000000000000000000081526004016110579061192d565b60405180910390fd5b6000808290505b60068054905081101561136f5760006006828154811061108a57611089611785565b5b906000526020600020906004020190506000816002015414806110b257506004548160020154105b156110bd575061135c565b600081600201549050634a817c80630e66ab75826110db9190611ae5565b6110e59190611b56565b816110f09190611a82565b9050600082600201548261110491906117e3565b9050600260009054906101000a900473ffffffffffffffffffffffffffffffffffffffff1673ffffffffffffffffffffffffffffffffffffffff166340c10f198460000160009054906101000a900473ffffffffffffffffffffffffffffffffffffffff16836040518363ffffffff1660e01b815260040161118792919061185f565b600060405180830381600087803b1580156111a157600080fd5b505af11580156111b5573d6000803e3d6000fd5b50505050808360020160008282546111cd9190611a82565b92505081905550600015158360030160009054906101000a900460ff1615150361120b5780600560008282546112039190611a82565b925050819055505b6000600760008560000160009054906101000a900473ffffffffffffffffffffffffffffffffffffffff1673ffffffffffffffffffffffffffffffffffffffff1673ffffffffffffffffffffffffffffffffffffffff1681526020019081526020016000209050600015158460030160009054906101000a900460ff16151514801561129b575083600101544210155b156112fe5760018460030160006101000a81548160ff0219169083151502179055508360020154600560008282546112d391906117e3565b9250508190555083600201548160000160008282546112f29190611a82565b92505081905550611338565b600115158460030160009054906101000a900460ff16151503611337578181600001600082825461132f9190611a82565b925050819055505b5b858061134390611817565b96505060648603611357575050505061136f565b505050505b808061136790611817565b915050611067565b505050565b6040518060800160405280600073ffffffffffffffffffffffffffffffffffffffff16815260200160008152602001600081526020016000151581525090565b6000819050919050565b6113c7816113b4565b82525050565b60006020820190506113e260008301846113be565b92915050565b600080fd5b6113f6816113b4565b811461140157600080fd5b50565b600081359050611413816113ed565b92915050565b60006020828403121561142f5761142e6113e8565b5b600061143d84828501611404565b91505092915050565b600073ffffffffffffffffffffffffffffffffffffffff82169050919050565b600061147182611446565b9050919050565b61148181611466565b811461148c57600080fd5b50565b60008135905061149e81611478565b92915050565b6000602082840312156114ba576114b96113e8565b5b60006114c88482850161148f565b91505092915050565b600081519050919050565b600082825260208201905092915050565b6000819050602082019050919050565b61150681611466565b82525050565b611515816113b4565b82525050565b60008115159050919050565b6115308161151b565b82525050565b60808201600082015161154c60008501826114fd565b50602082015161155f602085018261150c565b506040820151611572604085018261150c565b5060608201516115856060850182611527565b50505050565b60006115978383611536565b60808301905092915050565b6000602082019050919050565b60006115bb826114d1565b6115c581856114dc565b93506115d0836114ed565b8060005b838110156116015781516115e8888261158b565b97506115f3836115a3565b9250506001810190506115d4565b5085935050505092915050565b6000602082019050818103600083015261162881846115b0565b905092915050565b600082825260208201905092915050565b7f5769746864726177696e6720686173206265656e2068616c7465640000000000600082015250565b6000611677601b83611630565b915061168282611641565b602082019050919050565b600060208201905081810360008301526116a68161166a565b9050919050565b6116b681611466565b82525050565b60006020820190506116d160008301846116ad565b92915050565b6000815190506116e6816113ed565b92915050565b600060208284031215611702576117016113e8565b5b6000611710848285016116d7565b91505092915050565b7f416d6f756e74206578636565647320756e6c6f636b65642062616c616e636500600082015250565b600061174f601f83611630565b915061175a82611719565b602082019050919050565b6000602082019050818103600083015261177e81611742565b9050919050565b7f4e487b7100000000000000000000000000000000000000000000000000000000600052603260045260246000fd5b7f4e487b7100000000000000000000000000000000000000000000000000000000600052601160045260246000fd5b60006117ee826113b4565b91506117f9836113b4565b9250828203905081811115611811576118106117b4565b5b92915050565b6000611822826113b4565b91507fffffffffffffffffffffffffffffffffffffffffffffffffffffffffffffffff8203611854576118536117b4565b5b600182019050919050565b600060408201905061187460008301856116ad565b61188160208301846113be565b9392505050565b6118918161151b565b811461189c57600080fd5b50565b6000815190506118ae81611888565b92915050565b6000602082840312156118ca576118c96113e8565b5b60006118d88482850161189f565b91505092915050565b7f596f75277265206e6f7420746865206f776e6572000000000000000000000000600082015250565b6000611917601483611630565b9150611922826118e1565b602082019050919050565b600060208201905081810360008301526119468161190a565b9050919050565b7f4465706f736974696e6720686173206265656e2068616c746564000000000000600082015250565b6000611983601a83611630565b915061198e8261194d565b602082019050919050565b600060208201905081810360008301526119b281611976565b9050919050565b7f416d6f756e742069732062656c6f7720746865206d696e696d756d206465706f60008201527f73697420616c6c6f776564000000000000000000000000000000000000000000602082015250565b6000611a15602b83611630565b9150611a20826119b9565b604082019050919050565b60006020820190508181036000830152611a4481611a08565b9050919050565b6000606082019050611a6060008301866116ad565b611a6d60208301856116ad565b611a7a60408301846113be565b949350505050565b6000611a8d826113b4565b9150611a98836113b4565b9250828201905080821115611ab057611aaf6117b4565b5b92915050565b7f4e487b7100000000000000000000000000000000000000000000000000000000600052604160045260246000fd5b6000611af0826113b4565b9150611afb836113b4565b9250828202611b09816113b4565b91508282048414831517611b2057611b1f6117b4565b5b5092915050565b7f4e487b7100000000000000000000000000000000000000000000000000000000600052601260045260246000fd5b6000611b61826113b4565b9150611b6c836113b4565b925082611b7c57611b7b611b27565b5b82820490509291505056fea2646970667358221220136fb8f5ae0dea82c63fea7b833afeadb97f1dd5b61eba3b458013f6930e425d64736f6c63430008130033",
  "immutableReferences": {},
  "source": "// SPDX-License-Identifier: UNLICENSED\npragma solidity ^0.8.19;\n\nimport \"@openzeppelin/contracts/token/ERC20/IERC20.sol\";\nimport \"./IAccounts.sol\";\nimport \"./IBurnableToken.sol\";\n\ncontract GrowthEarn {\n\n  address treasury;\n\n  IAccounts accountsContract;\n  IBurnableToken stakedToken;\n  IERC20 sikaToken;\n\n  bool allowDepositing = true;\n  bool allowWithdrawing = true;\n\n  uint256 public minDeposit;\n  uint256 public totalLockedAmount;\n\n  struct InvestmentStruct {\n    address investor;\n    uint256 unlockDate;\n    uint256 amount;\n    bool unlocked;\n  }\n\n  InvestmentStruct[] investments;\n\n  // Don't track empty indices since we're using a mapping \n  // which leaves no empty slots when deletions are performed\n  struct InvestorStruct {\n    uint256 unlockedAmount;\n    uint256[] stakesIndices;\n  }\n\n  mapping(address => InvestorStruct) investors; // investor => InvestorStruct\n\n  modifier onlyTreasury {\n    require(msg.sender == treasury, \"You're not the owner\");\n    _;\n  }\n\n  constructor(address sikaTokenAddress, address stakedTokenAddress) {\n    sikaToken = IERC20(sikaTokenAddress);\n    stakedToken = IBurnableToken(stakedTokenAddress);\n    treasury = msg.sender;\n  }\n\n  // IMPORTANT!! This contract must be granted admin role in Accounts.sol\n  //             in migration or test script via `Accounts.addAdmin`\n  //             It serves to allow using Accounts.toggleIsExcludedFromTransferFee\n\n  function setAccountsContract(address contractAddress) external onlyTreasury {\n    accountsContract = IAccounts(contractAddress);\n    if (!accountsContract.isExcludedFromTransferFee(address(this))) {\n      accountsContract.toggleIsExcludedFromTransferFee(address(this));\n    }\n  }\n\n  function setMinDeposit(uint256 amount) external onlyTreasury {\n    minDeposit = amount;\n  }\n\n  function toggleAllowDepositing() external onlyTreasury {\n    allowDepositing = !allowDepositing;\n  }\n\n  function toggleAllowWithdrawing() external onlyTreasury {\n    allowWithdrawing = !allowWithdrawing;\n  }\n\n  function getInvestments() external view returns(InvestmentStruct[] memory) {\n    InvestorStruct storage investor = investors[msg.sender];\n    InvestmentStruct[] memory results = new InvestmentStruct[](investor.stakesIndices.length);\n\n    uint256 j;\n    for (uint256 i = 0; i < investor.stakesIndices.length; i++) {\n      InvestmentStruct storage anInvestment = investments[investor.stakesIndices[i]];\n      results[j++] = anInvestment;\n    }\n\n    return results;\n  }\n\n  // Process\n  // 1. call getInvestmentsLength\n  // 2. call disburseEarnings by supplying loop's starting index\n  //    each call disburses earnings for ~100 accounts\n  function getInvestmentsLength() external onlyTreasury view returns(uint256) {\n    return investments.length;\n  }\n\n  function disburseEarnings(uint256 startLoopAtIndex) external onlyTreasury {\n\n    uint256 counter;\n\n    // iterate over investments\n    // below this loop is a way for those with amount below minimum \n    // deposit to unlock their tokens after the locking period\n    for (uint256 i = startLoopAtIndex; i < investments.length; i++) {\n      InvestmentStruct storage anInvestment = investments[i];\n\n      if (anInvestment.amount == 0 || anInvestment.amount < minDeposit) {\n        continue; // non-existent key or amount below minimum deposit\n      }\n\n      // IMPORTANT: Overflow may occur but value will \n      //            be truncated, hence no need to fix it.\n      uint256 stakedAmount = anInvestment.amount;\n\n      // 6764% Fixed APY @ 0.1932876712% every 4 hours\n      // > 0.1932876712 * 10000000000\n      // 1932876712\n      // > (((1932876712/2)/2)/2)\n      // 241609589\n      // > (((10000000000/2)/2)/2)\n      // 1250000000\n      stakedAmount += (stakedAmount * 241609589) / 1250000000;\n\n      uint256 mintAmount = stakedAmount - anInvestment.amount;\n      stakedToken.mint(anInvestment.investor, mintAmount);\n      anInvestment.amount += mintAmount;\n\n      // We're keeping this above auto-unlock bcoz\n      // there might be an unlocking right after this\n      if (anInvestment.unlocked == false) {\n        totalLockedAmount += mintAmount; // Addition\n      }\n\n      InvestorStruct storage investor = investors[anInvestment.investor];\n\n      // Auto-Unlock\n      if (anInvestment.unlocked == false && block.timestamp >= anInvestment.unlockDate) {\n        anInvestment.unlocked = true;\n        totalLockedAmount -= anInvestment.amount; // Subtraction\n        investor.unlockedAmount += anInvestment.amount;\n      } else if (anInvestment.unlocked == true) {\n        investor.unlockedAmount += mintAmount;\n      }\n\n      counter++;\n      if (counter == 100) { // TODO: find number of accounts which is best for saving gas\n        break;\n      }\n    }\n  }\n\n  // withdraw an unlocked amount, which means when unlocking date is due, \n  // `unlockedAmount` should be incremented for that account\n  function withdraw(uint256 amount) external {\n    require(allowWithdrawing == true, \"Withdrawing has been halted\");\n\n    InvestorStruct storage investor = investors[msg.sender];\n\n    require(\n      amount <= investor.unlockedAmount && stakedToken.balanceOf(msg.sender) >= amount, \n      \"Amount exceeds unlocked balance\"\n    );\n\n    uint256 tempAmount = amount;\n\n    // iterate and make deductions on unlocked investments until amount \n    // is reached... delete investment whose amount is fully utilized\n    for (uint256 i = 0; i < investor.stakesIndices.length; i++) {\n      InvestmentStruct storage anInvestment = investments[investor.stakesIndices[i]];\n      if (anInvestment.unlocked == false) {\n        continue;\n      }\n      if (anInvestment.amount > tempAmount) {\n        anInvestment.amount -= tempAmount;\n        break; // will always be our exit point\n      } else if (tempAmount >= anInvestment.amount && anInvestment.amount > 0) {\n        tempAmount -= anInvestment.amount;\n        anInvestment.amount -= anInvestment.amount;\n      }\n    }\n\n    // its a surety that tempAmount will be zero at this point\n\n    investor.unlockedAmount -= amount;\n    stakedToken.burnFrom(msg.sender, amount);\n\n    // IMPORTANT: management must make sure there are \n    //            enough funds in contract always\n    sikaToken.transfer(msg.sender, amount);\n  }\n\n  function deposit(uint256 amount) external {\n    require(allowDepositing == true, \"Depositing has been halted\");\n\n    // no need to check this again in disburseEarnings\n    require(amount >= minDeposit, \"Amount is below the minimum deposit allowed\");\n\n    sikaToken.transferFrom(msg.sender, treasury, amount);\n\n    InvestmentStruct memory anInvestment;\n    anInvestment.unlockDate = block.timestamp + 60 days;\n    anInvestment.amount = amount;\n    anInvestment.investor = msg.sender;\n\n    investments.push(anInvestment);\n\n    InvestorStruct storage investor = investors[msg.sender];\n    investor.stakesIndices.push(investments.length - 1);\n\n    stakedToken.mint(msg.sender, amount);\n    totalLockedAmount += amount;\n  }\n\n}\n",
  "sourcePath": "/home/peps/progjects/kdsk/contracts/GrowthEarn.sol",
  "compiler": {
    "name": "solc",
    "version": "0.8.19+commit.7dd6d404.Emscripten.clang"
  },
  "schemaVersion": "3.4.14",
  "updatedAt": "2023-07-11T22:57:09.918Z",
  "networkType": "ethereum",
  "devdoc": {
    "kind": "dev",
    "methods": {},
    "version": 1
  },
  "userdoc": {
    "kind": "user",
    "methods": {},
    "version": 1
  }
}