{
  "contractName": "GrowthEarn",
  "abi": [
    {
      "inputs": [
        {
          "internalType": "address",
          "name": "sikaTokenAddress",
          "type": "address"
        },
        {
          "internalType": "address",
          "name": "stakedTokenAddress",
          "type": "address"
        }
      ],
      "stateMutability": "nonpayable",
      "type": "constructor"
    },
    {
      "inputs": [],
      "name": "minDeposit",
      "outputs": [
        {
          "internalType": "uint256",
          "name": "",
          "type": "uint256"
        }
      ],
      "stateMutability": "view",
      "type": "function"
    },
    {
      "inputs": [],
      "name": "totalLockedAmount",
      "outputs": [
        {
          "internalType": "uint256",
          "name": "",
          "type": "uint256"
        }
      ],
      "stateMutability": "view",
      "type": "function"
    },
    {
      "inputs": [
        {
          "internalType": "address",
          "name": "contractAddress",
          "type": "address"
        }
      ],
      "name": "setAccountsContract",
      "outputs": [],
      "stateMutability": "nonpayable",
      "type": "function"
    },
    {
      "inputs": [
        {
          "internalType": "uint256",
          "name": "amount",
          "type": "uint256"
        }
      ],
      "name": "setMinDeposit",
      "outputs": [],
      "stateMutability": "nonpayable",
      "type": "function"
    },
    {
      "inputs": [],
      "name": "toggleAllowDepositing",
      "outputs": [],
      "stateMutability": "nonpayable",
      "type": "function"
    },
    {
      "inputs": [],
      "name": "toggleAllowWithdrawing",
      "outputs": [],
      "stateMutability": "nonpayable",
      "type": "function"
    },
    {
      "inputs": [],
      "name": "getUnlockedAmount",
      "outputs": [
        {
          "internalType": "uint256",
          "name": "",
          "type": "uint256"
        }
      ],
      "stateMutability": "view",
      "type": "function"
    },
    {
      "inputs": [],
      "name": "getInvestments",
      "outputs": [
        {
          "components": [
            {
              "internalType": "address",
              "name": "investor",
              "type": "address"
            },
            {
              "internalType": "uint256",
              "name": "unlockDate",
              "type": "uint256"
            },
            {
              "internalType": "uint256",
              "name": "amount",
              "type": "uint256"
            },
            {
              "internalType": "bool",
              "name": "unlocked",
              "type": "bool"
            }
          ],
          "internalType": "struct GrowthEarn.InvestmentStruct[]",
          "name": "",
          "type": "tuple[]"
        }
      ],
      "stateMutability": "view",
      "type": "function"
    },
    {
      "inputs": [],
      "name": "getInvestmentsLength",
      "outputs": [
        {
          "internalType": "uint256",
          "name": "",
          "type": "uint256"
        }
      ],
      "stateMutability": "view",
      "type": "function"
    },
    {
      "inputs": [
        {
          "internalType": "uint256",
          "name": "startLoopAtIndex",
          "type": "uint256"
        }
      ],
      "name": "disburseEarnings",
      "outputs": [],
      "stateMutability": "nonpayable",
      "type": "function"
    },
    {
      "inputs": [
        {
          "internalType": "uint256",
          "name": "amount",
          "type": "uint256"
        }
      ],
      "name": "withdraw",
      "outputs": [],
      "stateMutability": "nonpayable",
      "type": "function"
    },
    {
      "inputs": [
        {
          "internalType": "uint256",
          "name": "amount",
          "type": "uint256"
        }
      ],
      "name": "deposit",
      "outputs": [],
      "stateMutability": "nonpayable",
      "type": "function"
    }
  ],
  "bytecode": "0x60806040526001600360146101000a81548160ff0219169083151502179055506001600360156101000a81548160ff0219169083151502179055503480156200004757600080fd5b5060405162001e2d38038062001e2d83398181016040528101906200006d9190620001a1565b81600360006101000a81548173ffffffffffffffffffffffffffffffffffffffff021916908373ffffffffffffffffffffffffffffffffffffffff16021790555080600260006101000a81548173ffffffffffffffffffffffffffffffffffffffff021916908373ffffffffffffffffffffffffffffffffffffffff160217905550336000806101000a81548173ffffffffffffffffffffffffffffffffffffffff021916908373ffffffffffffffffffffffffffffffffffffffff1602179055505050620001e8565b600080fd5b600073ffffffffffffffffffffffffffffffffffffffff82169050919050565b600062000169826200013c565b9050919050565b6200017b816200015c565b81146200018757600080fd5b50565b6000815190506200019b8162000170565b92915050565b60008060408385031215620001bb57620001ba62000137565b5b6000620001cb858286016200018a565b9250506020620001de858286016200018a565b9150509250929050565b611c3580620001f86000396000f3fe608060405234801561001057600080fd5b50600436106100b45760003560e01c80638fcc9cfb116100715780638fcc9cfb14610169578063b00cd77c14610185578063b6b55f251461018f578063d624722d146101ab578063e861303d146101c9578063edd60a89146101d3576100b4565b806305a9f274146100b957806324ea3626146100d75780632e1a7d4d146100f5578063395bf5621461011157806341b3d1851461012f57806342edceac1461014d575b600080fd5b6100c16101ef565b6040516100ce9190611445565b60405180910390f35b6100df6101f5565b6040516100ec9190611445565b60405180910390f35b61010f600480360381019061010a9190611491565b610244565b005b61011961062d565b6040516101269190611445565b60405180910390f35b6101376106c9565b6040516101449190611445565b60405180910390f35b6101676004803603810190610162919061151c565b6106cf565b005b610183600480360381019061017e9190611491565b6108cf565b005b61018d610967565b005b6101a960048036038101906101a49190611491565b610a21565b005b6101b3610db6565b6040516101c09190611686565b60405180910390f35b6101d1610f90565b005b6101ed60048036038101906101e89190611491565b61104a565b005b60055481565b600080600760003373ffffffffffffffffffffffffffffffffffffffff1673ffffffffffffffffffffffffffffffffffffffff1681526020019081526020016000209050806000015491505090565b60011515600360159054906101000a900460ff1615151461029a576040517f08c379a000000000000000000000000000000000000000000000000000000000815260040161029190611705565b60405180910390fd5b6000600760003373ffffffffffffffffffffffffffffffffffffffff1673ffffffffffffffffffffffffffffffffffffffff16815260200190815260200160002090508060000154821115801561038c575081600260009054906101000a900473ffffffffffffffffffffffffffffffffffffffff1673ffffffffffffffffffffffffffffffffffffffff166370a08231336040518263ffffffff1660e01b81526004016103489190611734565b602060405180830381865afa158015610365573d6000803e3d6000fd5b505050506040513d601f19601f820116820180604052508101906103899190611764565b10155b6103cb576040517f08c379a00000000000000000000000000000000000000000000000000000000081526004016103c2906117dd565b60405180910390fd5b600082905060005b82600101805490508110156104dc57600060068460010183815481106103fc576103fb6117fd565b5b906000526020600020015481548110610418576104176117fd565b5b90600052602060002090600402019050600015158160030160009054906101000a900460ff1615150361044b57506104c9565b8281600201541115610478578281600201600082825461046b919061185b565b92505081905550506104dc565b80600201548310158015610490575060008160020154115b156104c7578060020154836104a5919061185b565b925080600201548160020160008282546104bf919061185b565b925050819055505b505b80806104d49061188f565b9150506103d3565b50828260000160008282546104f1919061185b565b92505081905550600260009054906101000a900473ffffffffffffffffffffffffffffffffffffffff1673ffffffffffffffffffffffffffffffffffffffff166379cc679033856040518363ffffffff1660e01b81526004016105559291906118d7565b600060405180830381600087803b15801561056f57600080fd5b505af1158015610583573d6000803e3d6000fd5b50505050600360009054906101000a900473ffffffffffffffffffffffffffffffffffffffff1673ffffffffffffffffffffffffffffffffffffffff1663a9059cbb33856040518363ffffffff1660e01b81526004016105e49291906118d7565b6020604051808303816000875af1158015610603573d6000803e3d6000fd5b505050506040513d601f19601f82011682018060405250810190610627919061192c565b50505050565b60008060009054906101000a900473ffffffffffffffffffffffffffffffffffffffff1673ffffffffffffffffffffffffffffffffffffffff163373ffffffffffffffffffffffffffffffffffffffff16146106be576040517f08c379a00000000000000000000000000000000000000000000000000000000081526004016106b5906119a5565b60405180910390fd5b600680549050905090565b60045481565b60008054906101000a900473ffffffffffffffffffffffffffffffffffffffff1673ffffffffffffffffffffffffffffffffffffffff163373ffffffffffffffffffffffffffffffffffffffff161461075d576040517f08c379a0000000000000000000000000000000000000000000000000000000008152600401610754906119a5565b60405180910390fd5b80600160006101000a81548173ffffffffffffffffffffffffffffffffffffffff021916908373ffffffffffffffffffffffffffffffffffffffff160217905550600160009054906101000a900473ffffffffffffffffffffffffffffffffffffffff1673ffffffffffffffffffffffffffffffffffffffff1663de7390dd306040518263ffffffff1660e01b81526004016107f99190611734565b602060405180830381865afa158015610816573d6000803e3d6000fd5b505050506040513d601f19601f8201168201806040525081019061083a919061192c565b6108cc57600160009054906101000a900473ffffffffffffffffffffffffffffffffffffffff1673ffffffffffffffffffffffffffffffffffffffff1663702d687f306040518263ffffffff1660e01b81526004016108999190611734565b600060405180830381600087803b1580156108b357600080fd5b505af11580156108c7573d6000803e3d6000fd5b505050505b50565b60008054906101000a900473ffffffffffffffffffffffffffffffffffffffff1673ffffffffffffffffffffffffffffffffffffffff163373ffffffffffffffffffffffffffffffffffffffff161461095d576040517f08c379a0000000000000000000000000000000000000000000000000000000008152600401610954906119a5565b60405180910390fd5b8060048190555050565b60008054906101000a900473ffffffffffffffffffffffffffffffffffffffff1673ffffffffffffffffffffffffffffffffffffffff163373ffffffffffffffffffffffffffffffffffffffff16146109f5576040517f08c379a00000000000000000000000000000000000000000000000000000000081526004016109ec906119a5565b60405180910390fd5b600360149054906101000a900460ff1615600360146101000a81548160ff021916908315150217905550565b60011515600360149054906101000a900460ff16151514610a77576040517f08c379a0000000000000000000000000000000000000000000000000000000008152600401610a6e90611a11565b60405180910390fd5b600454811015610abc576040517f08c379a0000000000000000000000000000000000000000000000000000000008152600401610ab390611aa3565b60405180910390fd5b600360009054906101000a900473ffffffffffffffffffffffffffffffffffffffff1673ffffffffffffffffffffffffffffffffffffffff166323b872dd3360008054906101000a900473ffffffffffffffffffffffffffffffffffffffff16846040518463ffffffff1660e01b8152600401610b3b93929190611ac3565b6020604051808303816000875af1158015610b5a573d6000803e3d6000fd5b505050506040513d601f19601f82011682018060405250810190610b7e919061192c565b50610b876113ec565b62278d0042610b969190611afa565b8160200181815250508181604001818152505033816000019073ffffffffffffffffffffffffffffffffffffffff16908173ffffffffffffffffffffffffffffffffffffffff1681525050600681908060018154018082558091505060019003906000526020600020906004020160009091909190915060008201518160000160006101000a81548173ffffffffffffffffffffffffffffffffffffffff021916908373ffffffffffffffffffffffffffffffffffffffff160217905550602082015181600101556040820151816002015560608201518160030160006101000a81548160ff02191690831515021790555050506000600760003373ffffffffffffffffffffffffffffffffffffffff1673ffffffffffffffffffffffffffffffffffffffff1681526020019081526020016000209050806001016001600680549050610ce3919061185b565b9080600181540180825580915050600190039060005260206000200160009091909190915055600260009054906101000a900473ffffffffffffffffffffffffffffffffffffffff1673ffffffffffffffffffffffffffffffffffffffff166340c10f1933856040518363ffffffff1660e01b8152600401610d669291906118d7565b600060405180830381600087803b158015610d8057600080fd5b505af1158015610d94573d6000803e3d6000fd5b505050508260056000828254610daa9190611afa565b92505081905550505050565b60606000600760003373ffffffffffffffffffffffffffffffffffffffff1673ffffffffffffffffffffffffffffffffffffffff16815260200190815260200160002090506000816001018054905067ffffffffffffffff811115610e1e57610e1d611b2e565b5b604051908082528060200260200182016040528015610e5757816020015b610e446113ec565b815260200190600190039081610e3c5790505b509050600080600090505b8360010180549050811015610f865760006006856001018381548110610e8b57610e8a6117fd565b5b906000526020600020015481548110610ea757610ea66117fd565b5b90600052602060002090600402019050806040518060800160405290816000820160009054906101000a900473ffffffffffffffffffffffffffffffffffffffff1673ffffffffffffffffffffffffffffffffffffffff1673ffffffffffffffffffffffffffffffffffffffff16815260200160018201548152602001600282015481526020016003820160009054906101000a900460ff161515151581525050848480610f549061188f565b955081518110610f6757610f666117fd565b5b6020026020010181905250508080610f7e9061188f565b915050610e62565b5081935050505090565b60008054906101000a900473ffffffffffffffffffffffffffffffffffffffff1673ffffffffffffffffffffffffffffffffffffffff163373ffffffffffffffffffffffffffffffffffffffff161461101e576040517f08c379a0000000000000000000000000000000000000000000000000000000008152600401611015906119a5565b60405180910390fd5b600360159054906101000a900460ff1615600360156101000a81548160ff021916908315150217905550565b60008054906101000a900473ffffffffffffffffffffffffffffffffffffffff1673ffffffffffffffffffffffffffffffffffffffff163373ffffffffffffffffffffffffffffffffffffffff16146110d8576040517f08c379a00000000000000000000000000000000000000000000000000000000081526004016110cf906119a5565b60405180910390fd5b6000808290505b6006805490508110156113e757600060068281548110611102576111016117fd565b5b9060005260206000209060040201905060008160020154148061112a57506004548160020154105b1561113557506113d4565b600081600201549050634a817c80630e66ab75826111539190611b5d565b61115d9190611bce565b816111689190611afa565b9050600082600201548261117c919061185b565b9050600260009054906101000a900473ffffffffffffffffffffffffffffffffffffffff1673ffffffffffffffffffffffffffffffffffffffff166340c10f198460000160009054906101000a900473ffffffffffffffffffffffffffffffffffffffff16836040518363ffffffff1660e01b81526004016111ff9291906118d7565b600060405180830381600087803b15801561121957600080fd5b505af115801561122d573d6000803e3d6000fd5b50505050808360020160008282546112459190611afa565b92505081905550600015158360030160009054906101000a900460ff1615150361128357806005600082825461127b9190611afa565b925050819055505b6000600760008560000160009054906101000a900473ffffffffffffffffffffffffffffffffffffffff1673ffffffffffffffffffffffffffffffffffffffff1673ffffffffffffffffffffffffffffffffffffffff1681526020019081526020016000209050600015158460030160009054906101000a900460ff161515148015611313575083600101544210155b156113765760018460030160006101000a81548160ff02191690831515021790555083600201546005600082825461134b919061185b565b92505081905550836002015481600001600082825461136a9190611afa565b925050819055506113b0565b600115158460030160009054906101000a900460ff161515036113af57818160000160008282546113a79190611afa565b925050819055505b5b85806113bb9061188f565b965050606486036113cf57505050506113e7565b505050505b80806113df9061188f565b9150506110df565b505050565b6040518060800160405280600073ffffffffffffffffffffffffffffffffffffffff16815260200160008152602001600081526020016000151581525090565b6000819050919050565b61143f8161142c565b82525050565b600060208201905061145a6000830184611436565b92915050565b600080fd5b61146e8161142c565b811461147957600080fd5b50565b60008135905061148b81611465565b92915050565b6000602082840312156114a7576114a6611460565b5b60006114b58482850161147c565b91505092915050565b600073ffffffffffffffffffffffffffffffffffffffff82169050919050565b60006114e9826114be565b9050919050565b6114f9816114de565b811461150457600080fd5b50565b600081359050611516816114f0565b92915050565b60006020828403121561153257611531611460565b5b600061154084828501611507565b91505092915050565b600081519050919050565b600082825260208201905092915050565b6000819050602082019050919050565b61157e816114de565b82525050565b61158d8161142c565b82525050565b60008115159050919050565b6115a881611593565b82525050565b6080820160008201516115c46000850182611575565b5060208201516115d76020850182611584565b5060408201516115ea6040850182611584565b5060608201516115fd606085018261159f565b50505050565b600061160f83836115ae565b60808301905092915050565b6000602082019050919050565b600061163382611549565b61163d8185611554565b935061164883611565565b8060005b838110156116795781516116608882611603565b975061166b8361161b565b92505060018101905061164c565b5085935050505092915050565b600060208201905081810360008301526116a08184611628565b905092915050565b600082825260208201905092915050565b7f5769746864726177696e6720686173206265656e2068616c7465640000000000600082015250565b60006116ef601b836116a8565b91506116fa826116b9565b602082019050919050565b6000602082019050818103600083015261171e816116e2565b9050919050565b61172e816114de565b82525050565b60006020820190506117496000830184611725565b92915050565b60008151905061175e81611465565b92915050565b60006020828403121561177a57611779611460565b5b60006117888482850161174f565b91505092915050565b7f416d6f756e74206578636565647320756e6c6f636b65642062616c616e636500600082015250565b60006117c7601f836116a8565b91506117d282611791565b602082019050919050565b600060208201905081810360008301526117f6816117ba565b9050919050565b7f4e487b7100000000000000000000000000000000000000000000000000000000600052603260045260246000fd5b7f4e487b7100000000000000000000000000000000000000000000000000000000600052601160045260246000fd5b60006118668261142c565b91506118718361142c565b92508282039050818111156118895761188861182c565b5b92915050565b600061189a8261142c565b91507fffffffffffffffffffffffffffffffffffffffffffffffffffffffffffffffff82036118cc576118cb61182c565b5b600182019050919050565b60006040820190506118ec6000830185611725565b6118f96020830184611436565b9392505050565b61190981611593565b811461191457600080fd5b50565b60008151905061192681611900565b92915050565b60006020828403121561194257611941611460565b5b600061195084828501611917565b91505092915050565b7f596f75277265206e6f7420746865206f776e6572000000000000000000000000600082015250565b600061198f6014836116a8565b915061199a82611959565b602082019050919050565b600060208201905081810360008301526119be81611982565b9050919050565b7f4465706f736974696e6720686173206265656e2068616c746564000000000000600082015250565b60006119fb601a836116a8565b9150611a06826119c5565b602082019050919050565b60006020820190508181036000830152611a2a816119ee565b9050919050565b7f416d6f756e742069732062656c6f7720746865206d696e696d756d206465706f60008201527f73697420616c6c6f776564000000000000000000000000000000000000000000602082015250565b6000611a8d602b836116a8565b9150611a9882611a31565b604082019050919050565b60006020820190508181036000830152611abc81611a80565b9050919050565b6000606082019050611ad86000830186611725565b611ae56020830185611725565b611af26040830184611436565b949350505050565b6000611b058261142c565b9150611b108361142c565b9250828201905080821115611b2857611b2761182c565b5b92915050565b7f4e487b7100000000000000000000000000000000000000000000000000000000600052604160045260246000fd5b6000611b688261142c565b9150611b738361142c565b9250828202611b818161142c565b91508282048414831517611b9857611b9761182c565b5b5092915050565b7f4e487b7100000000000000000000000000000000000000000000000000000000600052601260045260246000fd5b6000611bd98261142c565b9150611be48361142c565b925082611bf457611bf3611b9f565b5b82820490509291505056fea26469706673582212206635270ad53517c272a824886cbd6c1181fc8f3cbc5db37c00f25fc1390113b564736f6c63430008130033",
  "immutableReferences": {},
  "source": "// SPDX-License-Identifier: UNLICENSED\npragma solidity ^0.8.19;\n\nimport \"@openzeppelin/contracts/token/ERC20/IERC20.sol\";\nimport \"./IAccounts.sol\";\nimport \"./IBurnableToken.sol\";\n\ncontract GrowthEarn {\n\n  address treasury;\n\n  IAccounts accountsContract;\n  IBurnableToken stakedToken;\n  IERC20 sikaToken;\n\n  bool allowDepositing = true;\n  bool allowWithdrawing = true;\n\n  uint256 public minDeposit;\n  uint256 public totalLockedAmount;\n\n  struct InvestmentStruct {\n    address investor;\n    uint256 unlockDate;\n    uint256 amount;\n    bool unlocked;\n  }\n\n  InvestmentStruct[] investments;\n\n  // Don't track empty indices since we're using a mapping \n  // which leaves no empty slots when deletions are performed\n  struct InvestorStruct {\n    uint256 unlockedAmount;\n    uint256[] stakesIndices;\n  }\n\n  mapping(address => InvestorStruct) investors; // investor => InvestorStruct\n\n  modifier onlyTreasury {\n    require(msg.sender == treasury, \"You're not the owner\");\n    _;\n  }\n\n  constructor(address sikaTokenAddress, address stakedTokenAddress) {\n    sikaToken = IERC20(sikaTokenAddress);\n    stakedToken = IBurnableToken(stakedTokenAddress);\n    treasury = msg.sender;\n  }\n\n  // IMPORTANT!! This contract must be granted admin role in Accounts.sol\n  //             in migration or test script via `Accounts.addAdmin`\n  //             It serves to allow using Accounts.toggleIsExcludedFromTransferFee\n\n  function setAccountsContract(address contractAddress) external onlyTreasury {\n    accountsContract = IAccounts(contractAddress);\n    if (!accountsContract.isExcludedFromTransferFee(address(this))) {\n      accountsContract.toggleIsExcludedFromTransferFee(address(this));\n    }\n  }\n\n  function setMinDeposit(uint256 amount) external onlyTreasury {\n    minDeposit = amount;\n  }\n\n  function toggleAllowDepositing() external onlyTreasury {\n    allowDepositing = !allowDepositing;\n  }\n\n  function toggleAllowWithdrawing() external onlyTreasury {\n    allowWithdrawing = !allowWithdrawing;\n  }\n\n  function getUnlockedAmount() external view returns(uint256) {\n    InvestorStruct storage investor = investors[msg.sender];\n    return investor.unlockedAmount;\n  }\n\n  function getInvestments() external view returns(InvestmentStruct[] memory) {\n    InvestorStruct storage investor = investors[msg.sender];\n    InvestmentStruct[] memory results = new InvestmentStruct[](investor.stakesIndices.length);\n\n    uint256 j;\n    for (uint256 i = 0; i < investor.stakesIndices.length; i++) {\n      InvestmentStruct storage anInvestment = investments[investor.stakesIndices[i]];\n      results[j++] = anInvestment;\n    }\n\n    return results;\n  }\n\n  // Process\n  // 1. call getInvestmentsLength\n  // 2. call disburseEarnings by supplying loop's starting index\n  //    each call disburses earnings for ~100 accounts\n  function getInvestmentsLength() external onlyTreasury view returns(uint256) {\n    return investments.length;\n  }\n\n  function disburseEarnings(uint256 startLoopAtIndex) external onlyTreasury {\n\n    uint256 counter;\n\n    // iterate over investments\n    // below this loop is a way for those with amount below minimum \n    // deposit to unlock their tokens after the locking period\n    for (uint256 i = startLoopAtIndex; i < investments.length; i++) {\n      InvestmentStruct storage anInvestment = investments[i];\n\n      if (anInvestment.amount == 0 || anInvestment.amount < minDeposit) {\n        continue; // non-existent key or amount below minimum deposit\n      }\n\n      // IMPORTANT: Overflow may occur but value will \n      //            be truncated, hence no need to fix it.\n      uint256 stakedAmount = anInvestment.amount;\n\n      // 6764% Fixed APY @ 0.1932876712% every 4 hours\n      // > 0.1932876712 * 10000000000\n      // 1932876712\n      // > (((1932876712/2)/2)/2)\n      // 241609589\n      // > (((10000000000/2)/2)/2)\n      // 1250000000\n      stakedAmount += (stakedAmount * 241609589) / 1250000000;\n\n      uint256 mintAmount = stakedAmount - anInvestment.amount;\n      stakedToken.mint(anInvestment.investor, mintAmount);\n      anInvestment.amount += mintAmount;\n\n      // We're keeping this above auto-unlock bcoz\n      // there might be an unlocking right after this\n      if (anInvestment.unlocked == false) {\n        totalLockedAmount += mintAmount; // Addition\n      }\n\n      InvestorStruct storage investor = investors[anInvestment.investor];\n\n      // Auto-Unlock\n      if (anInvestment.unlocked == false && block.timestamp >= anInvestment.unlockDate) {\n        anInvestment.unlocked = true;\n        totalLockedAmount -= anInvestment.amount; // Subtraction\n        investor.unlockedAmount += anInvestment.amount;\n      } else if (anInvestment.unlocked == true) {\n        investor.unlockedAmount += mintAmount;\n      }\n\n      counter++;\n      if (counter == 100) { // TODO: find number of accounts which is best for saving gas\n        break;\n      }\n    }\n  }\n\n  // withdraw an unlocked amount, which means when unlocking date is due, \n  // `unlockedAmount` should be incremented for that account\n  function withdraw(uint256 amount) external {\n    require(allowWithdrawing == true, \"Withdrawing has been halted\");\n\n    InvestorStruct storage investor = investors[msg.sender];\n\n    require(\n      amount <= investor.unlockedAmount && stakedToken.balanceOf(msg.sender) >= amount, \n      \"Amount exceeds unlocked balance\"\n    );\n\n    uint256 tempAmount = amount;\n\n    // iterate and make deductions on unlocked investments until amount \n    // is reached... delete investment whose amount is fully utilized\n    for (uint256 i = 0; i < investor.stakesIndices.length; i++) {\n      InvestmentStruct storage anInvestment = investments[investor.stakesIndices[i]];\n      if (anInvestment.unlocked == false) {\n        continue;\n      }\n      if (anInvestment.amount > tempAmount) {\n        anInvestment.amount -= tempAmount;\n        break; // will always be our exit point\n      } else if (tempAmount >= anInvestment.amount && anInvestment.amount > 0) {\n        tempAmount -= anInvestment.amount;\n        anInvestment.amount -= anInvestment.amount;\n      }\n    }\n\n    // its a surety that tempAmount will be zero at this point\n\n    investor.unlockedAmount -= amount;\n    stakedToken.burnFrom(msg.sender, amount);\n\n    // IMPORTANT: management must make sure there are \n    //            enough funds in contract always\n    sikaToken.transfer(msg.sender, amount);\n  }\n\n  function deposit(uint256 amount) external {\n    require(allowDepositing == true, \"Depositing has been halted\");\n\n    // no need to check this again in disburseEarnings\n    // bcoz withdawals can span multiple investments which\n    // can definitely make some investments have their remainder\n    // lower than the minimum deposit \n    require(amount >= minDeposit, \"Amount is below the minimum deposit allowed\");\n\n    sikaToken.transferFrom(msg.sender, treasury, amount);\n\n    InvestmentStruct memory anInvestment;\n    anInvestment.unlockDate = block.timestamp + 30 days;\n    anInvestment.amount = amount;\n    anInvestment.investor = msg.sender;\n\n    investments.push(anInvestment);\n\n    InvestorStruct storage investor = investors[msg.sender];\n    investor.stakesIndices.push(investments.length - 1);\n\n    stakedToken.mint(msg.sender, amount);\n    totalLockedAmount += amount;\n  }\n\n}\n",
  "sourcePath": "/home/peps/progjects/kdsk/contracts/GrowthEarn.sol",
  "compiler": {
    "name": "solc",
    "version": "0.8.19+commit.7dd6d404.Emscripten.clang"
  },
  "schemaVersion": "3.4.14",
  "updatedAt": "2023-07-12T12:12:45.727Z",
  "devdoc": {
    "kind": "dev",
    "methods": {},
    "version": 1
  },
  "userdoc": {
    "kind": "user",
    "methods": {},
    "version": 1
  }
}