{
  "contractName": "Presale",
  "abi": [
    {
      "inputs": [
        {
          "internalType": "address",
          "name": "_utilityTokenAddress",
          "type": "address"
        }
      ],
      "stateMutability": "nonpayable",
      "type": "constructor"
    },
    {
      "anonymous": false,
      "inputs": [
        {
          "indexed": false,
          "internalType": "address",
          "name": "buyer",
          "type": "address"
        },
        {
          "indexed": false,
          "internalType": "uint256",
          "name": "amount",
          "type": "uint256"
        }
      ],
      "name": "Sold",
      "type": "event"
    },
    {
      "inputs": [],
      "name": "presaleHasStarted",
      "outputs": [
        {
          "internalType": "bool",
          "name": "",
          "type": "bool"
        }
      ],
      "stateMutability": "view",
      "type": "function",
      "constant": true
    },
    {
      "inputs": [
        {
          "internalType": "address",
          "name": "_usdcTokenAddress",
          "type": "address"
        },
        {
          "internalType": "address",
          "name": "_usdtTokenAddress",
          "type": "address"
        },
        {
          "internalType": "uint256",
          "name": "_multiplier",
          "type": "uint256"
        },
        {
          "internalType": "uint256",
          "name": "_divider",
          "type": "uint256"
        }
      ],
      "name": "setRate",
      "outputs": [],
      "stateMutability": "nonpayable",
      "type": "function"
    },
    {
      "inputs": [],
      "name": "getRate",
      "outputs": [
        {
          "internalType": "uint256",
          "name": "",
          "type": "uint256"
        },
        {
          "internalType": "uint256",
          "name": "",
          "type": "uint256"
        }
      ],
      "stateMutability": "view",
      "type": "function",
      "constant": true
    },
    {
      "inputs": [],
      "name": "togglePresaleHasStarted",
      "outputs": [],
      "stateMutability": "nonpayable",
      "type": "function"
    },
    {
      "inputs": [],
      "name": "getParticipant",
      "outputs": [
        {
          "components": [
            {
              "internalType": "uint256",
              "name": "lockedAmount",
              "type": "uint256"
            },
            {
              "internalType": "uint256",
              "name": "unlockDate",
              "type": "uint256"
            },
            {
              "internalType": "bool",
              "name": "claimed",
              "type": "bool"
            }
          ],
          "internalType": "struct Presale.ParticipantStruct",
          "name": "",
          "type": "tuple"
        }
      ],
      "stateMutability": "view",
      "type": "function",
      "constant": true
    },
    {
      "inputs": [],
      "name": "claim",
      "outputs": [],
      "stateMutability": "nonpayable",
      "type": "function"
    },
    {
      "inputs": [
        {
          "internalType": "address",
          "name": "usdTokenAddress",
          "type": "address"
        },
        {
          "internalType": "uint256",
          "name": "usdAmount",
          "type": "uint256"
        }
      ],
      "name": "buy",
      "outputs": [],
      "stateMutability": "nonpayable",
      "type": "function"
    }
  ],
  "bytecode": "0x60806040523480156200001157600080fd5b50604051620015693803806200156983398181016040528101906200003791906200019d565b80600a60006101000a81548173ffffffffffffffffffffffffffffffffffffffff021916908373ffffffffffffffffffffffffffffffffffffffff160217905550600a60009054906101000a900473ffffffffffffffffffffffffffffffffffffffff16600b60006101000a81548173ffffffffffffffffffffffffffffffffffffffff021916908373ffffffffffffffffffffffffffffffffffffffff160217905550691a784379d99db4200000600181905550336000806101000a81548173ffffffffffffffffffffffffffffffffffffffff021916908373ffffffffffffffffffffffffffffffffffffffff16021790555050620001cf565b600080fd5b600073ffffffffffffffffffffffffffffffffffffffff82169050919050565b6000620001658262000138565b9050919050565b620001778162000158565b81146200018357600080fd5b50565b60008151905062000197816200016c565b92915050565b600060208284031215620001b657620001b562000133565b5b6000620001c68482850162000186565b91505092915050565b61138a80620001df6000396000f3fe608060405234801561001057600080fd5b506004361061007d5760003560e01c8063679aefce1161005b578063679aefce146100b4578063a36b7d7f146100d3578063cce7ec13146100ef578063d5f520981461010b5761007d565b806314b8786214610082578063418cac1c146100a05780634e71d92d146100aa575b600080fd5b61008a610129565b6040516100979190610bcc565b60405180910390f35b6100a86101af565b005b6100b2610350565b005b6100bc6104f6565b6040516100ca929190610bf6565b60405180910390f35b6100ed60048036038101906100e89190610cae565b610507565b005b61010960048036038101906101049190610d15565b6106f1565b005b610113610b20565b6040516101209190610d64565b60405180910390f35b610131610b33565b600560003373ffffffffffffffffffffffffffffffffffffffff1673ffffffffffffffffffffffffffffffffffffffff16815260200190815260200160002060405180606001604052908160008201548152602001600182015481526020016002820160009054906101000a900460ff161515151581525050905090565b60008054906101000a900473ffffffffffffffffffffffffffffffffffffffff1673ffffffffffffffffffffffffffffffffffffffff163373ffffffffffffffffffffffffffffffffffffffff161461023d576040517f08c379a000000000000000000000000000000000000000000000000000000000815260040161023490610ddc565b60405180910390fd5b691a784379d99db4200000600b60009054906101000a900473ffffffffffffffffffffffffffffffffffffffff1673ffffffffffffffffffffffffffffffffffffffff166370a08231306040518263ffffffff1660e01b81526004016102a39190610e0b565b602060405180830381865afa1580156102c0573d6000803e3d6000fd5b505050506040513d601f19601f820116820180604052508101906102e49190610e3b565b14610324576040517f08c379a000000000000000000000000000000000000000000000000000000000815260040161031b90610eda565b60405180910390fd5b600460009054906101000a900460ff1615600460006101000a81548160ff021916908315150217905550565b6000600560003373ffffffffffffffffffffffffffffffffffffffff1673ffffffffffffffffffffffffffffffffffffffff1681526020019081526020016000209050806001015442116103d9576040517f08c379a00000000000000000000000000000000000000000000000000000000081526004016103d090610f46565b60405180910390fd5b600015158160020160009054906101000a900460ff16151514610431576040517f08c379a000000000000000000000000000000000000000000000000000000000815260040161042890610fd8565b60405180910390fd5b60018160020160006101000a81548160ff021916908315150217905550600b60009054906101000a900473ffffffffffffffffffffffffffffffffffffffff1673ffffffffffffffffffffffffffffffffffffffff1663a9059cbb3383600001546040518363ffffffff1660e01b81526004016104af929190610ff8565b6020604051808303816000875af11580156104ce573d6000803e3d6000fd5b505050506040513d601f19601f820116820180604052508101906104f2919061104d565b5050565b600080600254600354915091509091565b60008054906101000a900473ffffffffffffffffffffffffffffffffffffffff1673ffffffffffffffffffffffffffffffffffffffff163373ffffffffffffffffffffffffffffffffffffffff1614610595576040517f08c379a000000000000000000000000000000000000000000000000000000000815260040161058c90610ddc565b60405180910390fd5b83600660006101000a81548173ffffffffffffffffffffffffffffffffffffffff021916908373ffffffffffffffffffffffffffffffffffffffff160217905550600660009054906101000a900473ffffffffffffffffffffffffffffffffffffffff16600760006101000a81548173ffffffffffffffffffffffffffffffffffffffff021916908373ffffffffffffffffffffffffffffffffffffffff16021790555082600860006101000a81548173ffffffffffffffffffffffffffffffffffffffff021916908373ffffffffffffffffffffffffffffffffffffffff160217905550600860009054906101000a900473ffffffffffffffffffffffffffffffffffffffff16600960006101000a81548173ffffffffffffffffffffffffffffffffffffffff021916908373ffffffffffffffffffffffffffffffffffffffff160217905550816002819055508060038190555050505050565b60011515600460009054906101000a900460ff16151514610747576040517f08c379a000000000000000000000000000000000000000000000000000000000815260040161073e906110c6565b60405180910390fd5b60006001541161078c576040517f08c379a000000000000000000000000000000000000000000000000000000000815260040161078390611132565b60405180910390fd5b60006003546002548361079f9190611181565b6107a991906111f2565b90508060015410156107f0576040517f08c379a00000000000000000000000000000000000000000000000000000000081526004016107e790611295565b60405180910390fd5b600660009054906101000a900473ffffffffffffffffffffffffffffffffffffffff1673ffffffffffffffffffffffffffffffffffffffff168373ffffffffffffffffffffffffffffffffffffffff160361090d57600760009054906101000a900473ffffffffffffffffffffffffffffffffffffffff1673ffffffffffffffffffffffffffffffffffffffff166323b872dd3360008054906101000a900473ffffffffffffffffffffffffffffffffffffffff16856040518463ffffffff1660e01b81526004016108c4939291906112b5565b6020604051808303816000875af11580156108e3573d6000803e3d6000fd5b505050506040513d601f19601f82011682018060405250810190610907919061104d565b50610a27565b600860009054906101000a900473ffffffffffffffffffffffffffffffffffffffff1673ffffffffffffffffffffffffffffffffffffffff168373ffffffffffffffffffffffffffffffffffffffff1603610a2657600960009054906101000a900473ffffffffffffffffffffffffffffffffffffffff1673ffffffffffffffffffffffffffffffffffffffff166323b872dd3360008054906101000a900473ffffffffffffffffffffffffffffffffffffffff16856040518463ffffffff1660e01b81526004016109e1939291906112b5565b6020604051808303816000875af1158015610a00573d6000803e3d6000fd5b505050506040513d601f19601f82011682018060405250810190610a24919061104d565b505b5b60405180606001604052808281526020016201518042610a4791906112ec565b815260200160001515815250600560003373ffffffffffffffffffffffffffffffffffffffff1673ffffffffffffffffffffffffffffffffffffffff168152602001908152602001600020600082015181600001556020820151816001015560408201518160020160006101000a81548160ff0219169083151502179055509050508060016000828254610adb9190611320565b925050819055507fae92ab4b6f8f401ead768d3273e6bb937a13e39827d19c6376e8fd4512a05d9a3382604051610b13929190610ff8565b60405180910390a1505050565b600460009054906101000a900460ff1681565b604051806060016040528060008152602001600081526020016000151581525090565b6000819050919050565b610b6981610b56565b82525050565b60008115159050919050565b610b8481610b6f565b82525050565b606082016000820151610ba06000850182610b60565b506020820151610bb36020850182610b60565b506040820151610bc66040850182610b7b565b50505050565b6000606082019050610be16000830184610b8a565b92915050565b610bf081610b56565b82525050565b6000604082019050610c0b6000830185610be7565b610c186020830184610be7565b9392505050565b600080fd5b600073ffffffffffffffffffffffffffffffffffffffff82169050919050565b6000610c4f82610c24565b9050919050565b610c5f81610c44565b8114610c6a57600080fd5b50565b600081359050610c7c81610c56565b92915050565b610c8b81610b56565b8114610c9657600080fd5b50565b600081359050610ca881610c82565b92915050565b60008060008060808587031215610cc857610cc7610c1f565b5b6000610cd687828801610c6d565b9450506020610ce787828801610c6d565b9350506040610cf887828801610c99565b9250506060610d0987828801610c99565b91505092959194509250565b60008060408385031215610d2c57610d2b610c1f565b5b6000610d3a85828601610c6d565b9250506020610d4b85828601610c99565b9150509250929050565b610d5e81610b6f565b82525050565b6000602082019050610d796000830184610d55565b92915050565b600082825260208201905092915050565b7f4e6f742074726561737572790000000000000000000000000000000000000000600082015250565b6000610dc6600c83610d7f565b9150610dd182610d90565b602082019050919050565b60006020820190508181036000830152610df581610db9565b9050919050565b610e0581610c44565b82525050565b6000602082019050610e206000830184610dfc565b92915050565b600081519050610e3581610c82565b92915050565b600060208284031215610e5157610e50610c1f565b5b6000610e5f84828501610e26565b91505092915050565b7f5574696c69747920746f6b656e2062616c616e636520646f6573206e6f74206d60008201527f6174636820657870656374656420616d6f756e74000000000000000000000000602082015250565b6000610ec4603483610d7f565b9150610ecf82610e68565b604082019050919050565b60006020820190508181036000830152610ef381610eb7565b9050919050565b7f556e6c6f636b65642064617465206973206e6f74206475650000000000000000600082015250565b6000610f30601883610d7f565b9150610f3b82610efa565b602082019050919050565b60006020820190508181036000830152610f5f81610f23565b9050919050565b7f596f75206861766520616c726561647920636c61696d656420796f757220707560008201527f7263686173650000000000000000000000000000000000000000000000000000602082015250565b6000610fc2602683610d7f565b9150610fcd82610f66565b604082019050919050565b60006020820190508181036000830152610ff181610fb5565b9050919050565b600060408201905061100d6000830185610dfc565b61101a6020830184610be7565b9392505050565b61102a81610b6f565b811461103557600080fd5b50565b60008151905061104781611021565b92915050565b60006020828403121561106357611062610c1f565b5b600061107184828501611038565b91505092915050565b7f50726573616c6520686173206e6f742073746172746564000000000000000000600082015250565b60006110b0601783610d7f565b91506110bb8261107a565b602082019050919050565b600060208201905081810360008301526110df816110a3565b9050919050565b7f50726573616c652068617320656e646564000000000000000000000000000000600082015250565b600061111c601183610d7f565b9150611127826110e6565b602082019050919050565b6000602082019050818103600083015261114b8161110f565b9050919050565b7f4e487b7100000000000000000000000000000000000000000000000000000000600052601160045260246000fd5b600061118c82610b56565b915061119783610b56565b92508282026111a581610b56565b915082820484148315176111bc576111bb611152565b5b5092915050565b7f4e487b7100000000000000000000000000000000000000000000000000000000600052601260045260246000fd5b60006111fd82610b56565b915061120883610b56565b925082611218576112176111c3565b5b828204905092915050565b7f416d6f756e742072656d61696e696e67206973206c6573736572207468616e2060008201527f74686520616d6f756e7420796f7527726520627579696e670000000000000000602082015250565b600061127f603883610d7f565b915061128a82611223565b604082019050919050565b600060208201905081810360008301526112ae81611272565b9050919050565b60006060820190506112ca6000830186610dfc565b6112d76020830185610dfc565b6112e46040830184610be7565b949350505050565b60006112f782610b56565b915061130283610b56565b925082820190508082111561131a57611319611152565b5b92915050565b600061132b82610b56565b915061133683610b56565b925082820390508181111561134e5761134d611152565b5b9291505056fea2646970667358221220f1f855ed0c132b5f910b89eebf975fd94788a8211fee3a9b20834e953fe5bd6264736f6c63430008130033",
  "immutableReferences": {},
  "source": "// SPDX-License-Identifier: UNLICENSED\npragma solidity ^0.8.19;\n\nimport \"@openzeppelin/contracts/token/ERC20/IERC20.sol\";\n\ncontract Presale {\n\n  address treasury;\n  uint256 saleRemainder;\n  uint256 buyMultiplier;\n  uint256 buyDivider;\n  bool public presaleHasStarted;\n\n  struct ParticipantStruct {\n    uint256 lockedAmount;\n    uint256 unlockDate;\n    bool claimed;\n  }\n\n  mapping(address => ParticipantStruct) participants;\n\n  address usdcTokenAddress;\n  IERC20 usdcToken;\n\n  address usdtTokenAddress;\n  IERC20 usdtToken;\n\n  address utilityTokenAddress;\n  IERC20 utilityToken;\n\n  event Sold(address buyer, uint256 amount);\n\n  modifier onlyTreasury {\n    require(msg.sender == treasury, \"Not treasury\");\n    _;\n  }\n\n  constructor(address _utilityTokenAddress) {\n    utilityTokenAddress = _utilityTokenAddress;\n    utilityToken = IERC20(utilityTokenAddress);\n    saleRemainder = 125000 ether;\n    treasury = msg.sender;\n  }\n\n  // (usdAmount * 6250) / 21 === 40p per token\n  // multiplier = 6250\n  // divider = 21\n  function setRate(\n    address _usdcTokenAddress, \n    address _usdtTokenAddress,\n    uint256 _multiplier,\n    uint256 _divider\n  ) external onlyTreasury {\n    usdcTokenAddress = _usdcTokenAddress;\n    usdcToken = IERC20(usdcTokenAddress);\n\n    usdtTokenAddress = _usdtTokenAddress;\n    usdtToken = IERC20(usdtTokenAddress);\n\n    buyMultiplier = _multiplier;\n    buyDivider = _divider;\n  }\n\n  function getRate() external view returns (uint256, uint256) {\n    return (buyMultiplier, buyDivider);\n  }\n\n  function togglePresaleHasStarted() external onlyTreasury {\n    // make sure kdsk balance for this contract matches amount allocated in whitepaper\n    // 12.5% of KDSK\n    require(\n      utilityToken.balanceOf(address(this)) == 125000 ether, \n      \"Utility token balance does not match expected amount\"\n    );\n    presaleHasStarted = !presaleHasStarted;\n  }\n\n  function getParticipant() external view returns (ParticipantStruct memory) {\n    return participants[msg.sender];\n  }\n\n  function claim() external {\n    ParticipantStruct storage participant = participants[msg.sender];\n    require(block.timestamp > participant.unlockDate, \"Unlocked date is not due\");\n    require(participant.claimed == false, \"You have already claimed your purchase\");\n    participant.claimed = true;\n    utilityToken.transfer(msg.sender, participant.lockedAmount);\n  }\n\n  function buy(address usdTokenAddress, uint256 usdAmount) external {\n    require(presaleHasStarted == true, \"Presale has not started\");\n    require(saleRemainder > 0, \"Presale has ended\");\n    // (usdAmount * 6250) / 21 === 40p per token\n    // 6250/21 === USD equivalent of 40 pesewas\n    uint256 buyAmount = (usdAmount * buyMultiplier) / buyDivider;\n    require(saleRemainder >= buyAmount, \"Amount remaining is lesser than the amount you're buying\");\n\n    if (usdTokenAddress == usdcTokenAddress) {\n      usdcToken.transferFrom(msg.sender, treasury, usdAmount);\n    } else if (usdTokenAddress == usdtTokenAddress) {\n      usdtToken.transferFrom(msg.sender, treasury, usdAmount);\n    }\n\n    participants[msg.sender] = ParticipantStruct(\n      buyAmount, \n      // block.timestamp + 21 days, \n      block.timestamp + 1 days, \n      false\n    );\n\n    saleRemainder -= buyAmount;\n    emit Sold(msg.sender, buyAmount);\n  }\n\n}\n",
  "sourcePath": "/home/peps/progjects/kdsk/contracts/Presale.sol",
  "compiler": {
    "name": "solc",
    "version": "0.8.19+commit.7dd6d404.Emscripten.clang"
  },
  "schemaVersion": "3.4.14",
  "updatedAt": "2023-06-29T10:33:35.350Z",
  "networkType": "ethereum",
  "devdoc": {
    "kind": "dev",
    "methods": {},
    "version": 1
  },
  "userdoc": {
    "kind": "user",
    "methods": {},
    "version": 1
  }
}