{
  "contractName": "Sika",
  "abi": [
    {
      "inputs": [],
      "stateMutability": "nonpayable",
      "type": "constructor"
    },
    {
      "anonymous": false,
      "inputs": [
        {
          "indexed": true,
          "internalType": "address",
          "name": "owner",
          "type": "address"
        },
        {
          "indexed": true,
          "internalType": "address",
          "name": "spender",
          "type": "address"
        },
        {
          "indexed": false,
          "internalType": "uint256",
          "name": "value",
          "type": "uint256"
        }
      ],
      "name": "Approval",
      "type": "event"
    },
    {
      "anonymous": false,
      "inputs": [
        {
          "indexed": false,
          "internalType": "address",
          "name": "",
          "type": "address"
        },
        {
          "indexed": false,
          "internalType": "uint256",
          "name": "",
          "type": "uint256"
        }
      ],
      "name": "Fueled",
      "type": "event"
    },
    {
      "anonymous": false,
      "inputs": [
        {
          "indexed": false,
          "internalType": "address",
          "name": "account",
          "type": "address"
        }
      ],
      "name": "Paused",
      "type": "event"
    },
    {
      "anonymous": false,
      "inputs": [
        {
          "indexed": true,
          "internalType": "bytes32",
          "name": "role",
          "type": "bytes32"
        },
        {
          "indexed": true,
          "internalType": "bytes32",
          "name": "previousAdminRole",
          "type": "bytes32"
        },
        {
          "indexed": true,
          "internalType": "bytes32",
          "name": "newAdminRole",
          "type": "bytes32"
        }
      ],
      "name": "RoleAdminChanged",
      "type": "event"
    },
    {
      "anonymous": false,
      "inputs": [
        {
          "indexed": true,
          "internalType": "bytes32",
          "name": "role",
          "type": "bytes32"
        },
        {
          "indexed": true,
          "internalType": "address",
          "name": "account",
          "type": "address"
        },
        {
          "indexed": true,
          "internalType": "address",
          "name": "sender",
          "type": "address"
        }
      ],
      "name": "RoleGranted",
      "type": "event"
    },
    {
      "anonymous": false,
      "inputs": [
        {
          "indexed": true,
          "internalType": "bytes32",
          "name": "role",
          "type": "bytes32"
        },
        {
          "indexed": true,
          "internalType": "address",
          "name": "account",
          "type": "address"
        },
        {
          "indexed": true,
          "internalType": "address",
          "name": "sender",
          "type": "address"
        }
      ],
      "name": "RoleRevoked",
      "type": "event"
    },
    {
      "anonymous": false,
      "inputs": [
        {
          "indexed": true,
          "internalType": "address",
          "name": "from",
          "type": "address"
        },
        {
          "indexed": true,
          "internalType": "address",
          "name": "to",
          "type": "address"
        },
        {
          "indexed": false,
          "internalType": "uint256",
          "name": "value",
          "type": "uint256"
        }
      ],
      "name": "Transfer",
      "type": "event"
    },
    {
      "anonymous": false,
      "inputs": [
        {
          "indexed": false,
          "internalType": "address",
          "name": "account",
          "type": "address"
        }
      ],
      "name": "Unpaused",
      "type": "event"
    },
    {
      "inputs": [],
      "name": "DEFAULT_ADMIN_ROLE",
      "outputs": [
        {
          "internalType": "bytes32",
          "name": "",
          "type": "bytes32"
        }
      ],
      "stateMutability": "view",
      "type": "function",
      "constant": true
    },
    {
      "inputs": [],
      "name": "MINTER_ROLE",
      "outputs": [
        {
          "internalType": "bytes32",
          "name": "",
          "type": "bytes32"
        }
      ],
      "stateMutability": "view",
      "type": "function",
      "constant": true
    },
    {
      "inputs": [],
      "name": "PAUSER_ROLE",
      "outputs": [
        {
          "internalType": "bytes32",
          "name": "",
          "type": "bytes32"
        }
      ],
      "stateMutability": "view",
      "type": "function",
      "constant": true
    },
    {
      "inputs": [
        {
          "internalType": "address",
          "name": "owner",
          "type": "address"
        },
        {
          "internalType": "address",
          "name": "spender",
          "type": "address"
        }
      ],
      "name": "allowance",
      "outputs": [
        {
          "internalType": "uint256",
          "name": "",
          "type": "uint256"
        }
      ],
      "stateMutability": "view",
      "type": "function",
      "constant": true
    },
    {
      "inputs": [
        {
          "internalType": "address",
          "name": "spender",
          "type": "address"
        },
        {
          "internalType": "uint256",
          "name": "amount",
          "type": "uint256"
        }
      ],
      "name": "approve",
      "outputs": [
        {
          "internalType": "bool",
          "name": "",
          "type": "bool"
        }
      ],
      "stateMutability": "nonpayable",
      "type": "function"
    },
    {
      "inputs": [
        {
          "internalType": "address",
          "name": "account",
          "type": "address"
        }
      ],
      "name": "balanceOf",
      "outputs": [
        {
          "internalType": "uint256",
          "name": "",
          "type": "uint256"
        }
      ],
      "stateMutability": "view",
      "type": "function",
      "constant": true
    },
    {
      "inputs": [
        {
          "internalType": "uint256",
          "name": "amount",
          "type": "uint256"
        }
      ],
      "name": "burn",
      "outputs": [],
      "stateMutability": "nonpayable",
      "type": "function"
    },
    {
      "inputs": [
        {
          "internalType": "address",
          "name": "account",
          "type": "address"
        },
        {
          "internalType": "uint256",
          "name": "amount",
          "type": "uint256"
        }
      ],
      "name": "burnFrom",
      "outputs": [],
      "stateMutability": "nonpayable",
      "type": "function"
    },
    {
      "inputs": [],
      "name": "decimals",
      "outputs": [
        {
          "internalType": "uint8",
          "name": "",
          "type": "uint8"
        }
      ],
      "stateMutability": "view",
      "type": "function",
      "constant": true
    },
    {
      "inputs": [
        {
          "internalType": "address",
          "name": "spender",
          "type": "address"
        },
        {
          "internalType": "uint256",
          "name": "subtractedValue",
          "type": "uint256"
        }
      ],
      "name": "decreaseAllowance",
      "outputs": [
        {
          "internalType": "bool",
          "name": "",
          "type": "bool"
        }
      ],
      "stateMutability": "nonpayable",
      "type": "function"
    },
    {
      "inputs": [
        {
          "internalType": "bytes32",
          "name": "role",
          "type": "bytes32"
        }
      ],
      "name": "getRoleAdmin",
      "outputs": [
        {
          "internalType": "bytes32",
          "name": "",
          "type": "bytes32"
        }
      ],
      "stateMutability": "view",
      "type": "function",
      "constant": true
    },
    {
      "inputs": [
        {
          "internalType": "bytes32",
          "name": "role",
          "type": "bytes32"
        },
        {
          "internalType": "uint256",
          "name": "index",
          "type": "uint256"
        }
      ],
      "name": "getRoleMember",
      "outputs": [
        {
          "internalType": "address",
          "name": "",
          "type": "address"
        }
      ],
      "stateMutability": "view",
      "type": "function",
      "constant": true
    },
    {
      "inputs": [
        {
          "internalType": "bytes32",
          "name": "role",
          "type": "bytes32"
        }
      ],
      "name": "getRoleMemberCount",
      "outputs": [
        {
          "internalType": "uint256",
          "name": "",
          "type": "uint256"
        }
      ],
      "stateMutability": "view",
      "type": "function",
      "constant": true
    },
    {
      "inputs": [
        {
          "internalType": "bytes32",
          "name": "role",
          "type": "bytes32"
        },
        {
          "internalType": "address",
          "name": "account",
          "type": "address"
        }
      ],
      "name": "grantRole",
      "outputs": [],
      "stateMutability": "nonpayable",
      "type": "function"
    },
    {
      "inputs": [
        {
          "internalType": "bytes32",
          "name": "role",
          "type": "bytes32"
        },
        {
          "internalType": "address",
          "name": "account",
          "type": "address"
        }
      ],
      "name": "hasRole",
      "outputs": [
        {
          "internalType": "bool",
          "name": "",
          "type": "bool"
        }
      ],
      "stateMutability": "view",
      "type": "function",
      "constant": true
    },
    {
      "inputs": [
        {
          "internalType": "address",
          "name": "spender",
          "type": "address"
        },
        {
          "internalType": "uint256",
          "name": "addedValue",
          "type": "uint256"
        }
      ],
      "name": "increaseAllowance",
      "outputs": [
        {
          "internalType": "bool",
          "name": "",
          "type": "bool"
        }
      ],
      "stateMutability": "nonpayable",
      "type": "function"
    },
    {
      "inputs": [],
      "name": "name",
      "outputs": [
        {
          "internalType": "string",
          "name": "",
          "type": "string"
        }
      ],
      "stateMutability": "view",
      "type": "function",
      "constant": true
    },
    {
      "inputs": [],
      "name": "paused",
      "outputs": [
        {
          "internalType": "bool",
          "name": "",
          "type": "bool"
        }
      ],
      "stateMutability": "view",
      "type": "function",
      "constant": true
    },
    {
      "inputs": [
        {
          "internalType": "bytes32",
          "name": "role",
          "type": "bytes32"
        },
        {
          "internalType": "address",
          "name": "account",
          "type": "address"
        }
      ],
      "name": "renounceRole",
      "outputs": [],
      "stateMutability": "nonpayable",
      "type": "function"
    },
    {
      "inputs": [
        {
          "internalType": "bytes32",
          "name": "role",
          "type": "bytes32"
        },
        {
          "internalType": "address",
          "name": "account",
          "type": "address"
        }
      ],
      "name": "revokeRole",
      "outputs": [],
      "stateMutability": "nonpayable",
      "type": "function"
    },
    {
      "inputs": [
        {
          "internalType": "bytes4",
          "name": "interfaceId",
          "type": "bytes4"
        }
      ],
      "name": "supportsInterface",
      "outputs": [
        {
          "internalType": "bool",
          "name": "",
          "type": "bool"
        }
      ],
      "stateMutability": "view",
      "type": "function",
      "constant": true
    },
    {
      "inputs": [],
      "name": "symbol",
      "outputs": [
        {
          "internalType": "string",
          "name": "",
          "type": "string"
        }
      ],
      "stateMutability": "view",
      "type": "function",
      "constant": true
    },
    {
      "inputs": [],
      "name": "totalSupply",
      "outputs": [
        {
          "internalType": "uint256",
          "name": "",
          "type": "uint256"
        }
      ],
      "stateMutability": "view",
      "type": "function",
      "constant": true
    },
    {
      "inputs": [
        {
          "internalType": "address",
          "name": "to",
          "type": "address"
        },
        {
          "internalType": "uint256",
          "name": "amount",
          "type": "uint256"
        }
      ],
      "name": "transfer",
      "outputs": [
        {
          "internalType": "bool",
          "name": "",
          "type": "bool"
        }
      ],
      "stateMutability": "nonpayable",
      "type": "function"
    },
    {
      "inputs": [
        {
          "internalType": "address",
          "name": "from",
          "type": "address"
        },
        {
          "internalType": "address",
          "name": "to",
          "type": "address"
        },
        {
          "internalType": "uint256",
          "name": "amount",
          "type": "uint256"
        }
      ],
      "name": "transferFrom",
      "outputs": [
        {
          "internalType": "bool",
          "name": "",
          "type": "bool"
        }
      ],
      "stateMutability": "nonpayable",
      "type": "function"
    },
    {
      "stateMutability": "payable",
      "type": "receive",
      "payable": true
    },
    {
      "inputs": [],
      "name": "pause",
      "outputs": [],
      "stateMutability": "nonpayable",
      "type": "function"
    },
    {
      "inputs": [],
      "name": "unpause",
      "outputs": [],
      "stateMutability": "nonpayable",
      "type": "function"
    },
    {
      "inputs": [
        {
          "internalType": "address",
          "name": "to",
          "type": "address"
        },
        {
          "internalType": "uint256",
          "name": "amount",
          "type": "uint256"
        }
      ],
      "name": "mint",
      "outputs": [],
      "stateMutability": "nonpayable",
      "type": "function"
    },
    {
      "inputs": [
        {
          "internalType": "address",
          "name": "contractAddress",
          "type": "address"
        }
      ],
      "name": "setAccountsContract",
      "outputs": [],
      "stateMutability": "nonpayable",
      "type": "function"
    },
    {
      "inputs": [
        {
          "internalType": "address",
          "name": "contractAddress",
          "type": "address"
        }
      ],
      "name": "setExchangeContract",
      "outputs": [],
      "stateMutability": "nonpayable",
      "type": "function"
    }
  ],
  "bytecode": "0x60806040523480156200001157600080fd5b506040518060400160405280600481526020017f53696b61000000000000000000000000000000000000000000000000000000008152506040518060400160405280600481526020017f53494b410000000000000000000000000000000000000000000000000000000081525081600390816200008f919062000646565b508060049081620000a1919062000646565b5050506000600560006101000a81548160ff021916908315150217905550620000d46000801b336200013e60201b60201c565b620001067f65d7a28e3265b37a6474929f336521b332c1681b933f6cb9f3376673440d862a336200013e60201b60201c565b620001387f9f2df0fed2c77648de5860a4cc508cd0818c85b8b8a1ab4ceeef8d981c8956a6336200013e60201b60201c565b6200072d565b6200015082826200015460201b60201c565b5050565b6200016682826200019260201b60201c565b6200018d81600760008581526020019081526020016000206200028460201b90919060201c565b505050565b620001a48282620002bc60201b60201c565b620002805760016006600084815260200190815260200160002060000160008373ffffffffffffffffffffffffffffffffffffffff1673ffffffffffffffffffffffffffffffffffffffff16815260200190815260200160002060006101000a81548160ff021916908315150217905550620002256200032760201b60201c565b73ffffffffffffffffffffffffffffffffffffffff168173ffffffffffffffffffffffffffffffffffffffff16837f2f8788117e7eff1d82e926ec794901d17c78024a50270940304540a733656f0d60405160405180910390a45b5050565b6000620002b4836000018373ffffffffffffffffffffffffffffffffffffffff1660001b6200032f60201b60201c565b905092915050565b60006006600084815260200190815260200160002060000160008373ffffffffffffffffffffffffffffffffffffffff1673ffffffffffffffffffffffffffffffffffffffff16815260200190815260200160002060009054906101000a900460ff16905092915050565b600033905090565b6000620003438383620003a960201b60201c565b6200039e578260000182908060018154018082558091505060019003906000526020600020016000909190919091505582600001805490508360010160008481526020019081526020016000208190555060019050620003a3565b600090505b92915050565b600080836001016000848152602001908152602001600020541415905092915050565b600081519050919050565b7f4e487b7100000000000000000000000000000000000000000000000000000000600052604160045260246000fd5b7f4e487b7100000000000000000000000000000000000000000000000000000000600052602260045260246000fd5b600060028204905060018216806200044e57607f821691505b60208210810362000464576200046362000406565b5b50919050565b60008190508160005260206000209050919050565b60006020601f8301049050919050565b600082821b905092915050565b600060088302620004ce7fffffffffffffffffffffffffffffffffffffffffffffffffffffffffffffffff826200048f565b620004da86836200048f565b95508019841693508086168417925050509392505050565b6000819050919050565b6000819050919050565b600062000527620005216200051b84620004f2565b620004fc565b620004f2565b9050919050565b6000819050919050565b620005438362000506565b6200055b62000552826200052e565b8484546200049c565b825550505050565b600090565b6200057262000563565b6200057f81848462000538565b505050565b5b81811015620005a7576200059b60008262000568565b60018101905062000585565b5050565b601f821115620005f657620005c0816200046a565b620005cb846200047f565b81016020851015620005db578190505b620005f3620005ea856200047f565b83018262000584565b50505b505050565b600082821c905092915050565b60006200061b60001984600802620005fb565b1980831691505092915050565b600062000636838362000608565b9150826002028217905092915050565b6200065182620003cc565b67ffffffffffffffff8111156200066d576200066c620003d7565b5b62000679825462000435565b62000686828285620005ab565b600060209050601f831160018114620006be5760008415620006a9578287015190505b620006b5858262000628565b86555062000725565b601f198416620006ce866200046a565b60005b82811015620006f857848901518255600182019150602085019450602081019050620006d1565b8683101562000718578489015162000714601f89168262000608565b8355505b6001600288020188555050505b505050505050565b61383a806200073d6000396000f3fe6080604052600436106101d15760003560e01c806370a08231116100f7578063a457c2d711610095578063d547741f11610064578063d547741f14610706578063dd62ed3e1461072f578063e5c42a3b1461076c578063e63ab1e91461079557610211565b8063a457c2d714610624578063a9059cbb14610661578063ca15c8731461069e578063d5391393146106db57610211565b80639010d07c116100d15780639010d07c1461055457806391d148541461059157806395d89b41146105ce578063a217fddf146105f957610211565b806370a08231146104d757806379cc6790146105145780638456cb591461053d57610211565b8063313ce5671161016f57806340c10f191161013e57806340c10f191461043157806342966c681461045a57806342edceac146104835780635c975abb146104ac57610211565b8063313ce5671461038957806336568abe146103b457806339509351146103dd5780633f4ba83a1461041a57610211565b806318160ddd116101ab57806318160ddd146102bb57806323b872dd146102e6578063248a9ca3146103235780632f2ff15d1461036057610211565b806301ffc9a71461021657806306fdde0314610253578063095ea7b31461027e57610211565b36610211577f7b3a0ee449d6fe864ca17f85b89b735b999a41e6bde22b4422ec7756740d4497333460405161020792919061272e565b60405180910390a1005b600080fd5b34801561022257600080fd5b5061023d600480360381019061023891906127b4565b6107c0565b60405161024a91906127fc565b60405180910390f35b34801561025f57600080fd5b5061026861083a565b60405161027591906128a7565b60405180910390f35b34801561028a57600080fd5b506102a560048036038101906102a09190612921565b6108cc565b6040516102b291906127fc565b60405180910390f35b3480156102c757600080fd5b506102d06108ef565b6040516102dd9190612961565b60405180910390f35b3480156102f257600080fd5b5061030d6004803603810190610308919061297c565b6108f9565b60405161031a91906127fc565b60405180910390f35b34801561032f57600080fd5b5061034a60048036038101906103459190612a05565b610928565b6040516103579190612a41565b60405180910390f35b34801561036c57600080fd5b5061038760048036038101906103829190612a5c565b610948565b005b34801561039557600080fd5b5061039e610969565b6040516103ab9190612ab8565b60405180910390f35b3480156103c057600080fd5b506103db60048036038101906103d69190612a5c565b610972565b005b3480156103e957600080fd5b5061040460048036038101906103ff9190612921565b6109f5565b60405161041191906127fc565b60405180910390f35b34801561042657600080fd5b5061042f610a2c565b005b34801561043d57600080fd5b5061045860048036038101906104539190612921565b610a61565b005b34801561046657600080fd5b50610481600480360381019061047c9190612ad3565b610a9a565b005b34801561048f57600080fd5b506104aa60048036038101906104a59190612b00565b610aae565b005b3480156104b857600080fd5b506104c1610b00565b6040516104ce91906127fc565b60405180910390f35b3480156104e357600080fd5b506104fe60048036038101906104f99190612b00565b610b17565b60405161050b9190612961565b60405180910390f35b34801561052057600080fd5b5061053b60048036038101906105369190612921565b610b5f565b005b34801561054957600080fd5b50610552610b7f565b005b34801561056057600080fd5b5061057b60048036038101906105769190612b2d565b610bb4565b6040516105889190612b6d565b60405180910390f35b34801561059d57600080fd5b506105b860048036038101906105b39190612a5c565b610be3565b6040516105c591906127fc565b60405180910390f35b3480156105da57600080fd5b506105e3610c4e565b6040516105f091906128a7565b60405180910390f35b34801561060557600080fd5b5061060e610ce0565b60405161061b9190612a41565b60405180910390f35b34801561063057600080fd5b5061064b60048036038101906106469190612921565b610ce7565b60405161065891906127fc565b60405180910390f35b34801561066d57600080fd5b5061068860048036038101906106839190612921565b610d5e565b60405161069591906127fc565b60405180910390f35b3480156106aa57600080fd5b506106c560048036038101906106c09190612a05565b610d81565b6040516106d29190612961565b60405180910390f35b3480156106e757600080fd5b506106f0610da5565b6040516106fd9190612a41565b60405180910390f35b34801561071257600080fd5b5061072d60048036038101906107289190612a5c565b610dc9565b005b34801561073b57600080fd5b5061075660048036038101906107519190612b88565b610dea565b6040516107639190612961565b60405180910390f35b34801561077857600080fd5b50610793600480360381019061078e9190612b00565b610e71565b005b3480156107a157600080fd5b506107aa610fd8565b6040516107b79190612a41565b60405180910390f35b60007f5a05180f000000000000000000000000000000000000000000000000000000007bffffffffffffffffffffffffffffffffffffffffffffffffffffffff1916827bffffffffffffffffffffffffffffffffffffffffffffffffffffffff19161480610833575061083282610ffc565b5b9050919050565b60606003805461084990612bf7565b80601f016020809104026020016040519081016040528092919081815260200182805461087590612bf7565b80156108c25780601f10610897576101008083540402835291602001916108c2565b820191906000526020600020905b8154815290600101906020018083116108a557829003601f168201915b5050505050905090565b6000806108d7611076565b90506108e481858561107e565b600191505092915050565b6000600254905090565b600080610904611076565b9050610911858285611247565b61091c8585856112d3565b60019150509392505050565b600060066000838152602001908152602001600020600101549050919050565b61095182610928565b61095a816117b7565b61096483836117cb565b505050565b60006012905090565b61097a611076565b73ffffffffffffffffffffffffffffffffffffffff168173ffffffffffffffffffffffffffffffffffffffff16146109e7576040517f08c379a00000000000000000000000000000000000000000000000000000000081526004016109de90612c9a565b60405180910390fd5b6109f182826117ff565b5050565b600080610a00611076565b9050610a21818585610a128589610dea565b610a1c9190612ce9565b61107e565b600191505092915050565b7f65d7a28e3265b37a6474929f336521b332c1681b933f6cb9f3376673440d862a610a56816117b7565b610a5e611833565b50565b7f9f2df0fed2c77648de5860a4cc508cd0818c85b8b8a1ab4ceeef8d981c8956a6610a8b816117b7565b610a958383611896565b505050565b610aab610aa5611076565b826119ec565b50565b6000801b610abb816117b7565b81600860006101000a81548173ffffffffffffffffffffffffffffffffffffffff021916908373ffffffffffffffffffffffffffffffffffffffff1602179055505050565b6000600560009054906101000a900460ff16905090565b60008060008373ffffffffffffffffffffffffffffffffffffffff1673ffffffffffffffffffffffffffffffffffffffff168152602001908152602001600020549050919050565b610b7182610b6b611076565b83611247565b610b7b82826119ec565b5050565b7f65d7a28e3265b37a6474929f336521b332c1681b933f6cb9f3376673440d862a610ba9816117b7565b610bb1611bb9565b50565b6000610bdb8260076000868152602001908152602001600020611c1c90919063ffffffff16565b905092915050565b60006006600084815260200190815260200160002060000160008373ffffffffffffffffffffffffffffffffffffffff1673ffffffffffffffffffffffffffffffffffffffff16815260200190815260200160002060009054906101000a900460ff16905092915050565b606060048054610c5d90612bf7565b80601f0160208091040260200160405190810160405280929190818152602001828054610c8990612bf7565b8015610cd65780601f10610cab57610100808354040283529160200191610cd6565b820191906000526020600020905b815481529060010190602001808311610cb957829003601f168201915b5050505050905090565b6000801b81565b600080610cf2611076565b90506000610d008286610dea565b905083811015610d45576040517f08c379a0000000000000000000000000000000000000000000000000000000008152600401610d3c90612d8f565b60405180910390fd5b610d52828686840361107e565b60019250505092915050565b600080610d69611076565b9050610d768185856112d3565b600191505092915050565b6000610d9e60076000848152602001908152602001600020611c36565b9050919050565b7f9f2df0fed2c77648de5860a4cc508cd0818c85b8b8a1ab4ceeef8d981c8956a681565b610dd282610928565b610ddb816117b7565b610de583836117ff565b505050565b6000600160008473ffffffffffffffffffffffffffffffffffffffff1673ffffffffffffffffffffffffffffffffffffffff16815260200190815260200160002060008373ffffffffffffffffffffffffffffffffffffffff1673ffffffffffffffffffffffffffffffffffffffff16815260200190815260200160002054905092915050565b6000801b610e7e816117b7565b6000610e8e6000801b6000610bb4565b905060005b610ebc7f9f2df0fed2c77648de5860a4cc508cd0818c85b8b8a1ab4ceeef8d981c8956a6610d81565b811015610f67576000610eef7f9f2df0fed2c77648de5860a4cc508cd0818c85b8b8a1ab4ceeef8d981c8956a683610bb4565b90508073ffffffffffffffffffffffffffffffffffffffff168373ffffffffffffffffffffffffffffffffffffffff1603610f2a5750610f56565b610f547f9f2df0fed2c77648de5860a4cc508cd0818c85b8b8a1ab4ceeef8d981c8956a6826117ff565b505b80610f6090612daf565b9050610e93565b50610f927f9f2df0fed2c77648de5860a4cc508cd0818c85b8b8a1ab4ceeef8d981c8956a6846117cb565b82600960006101000a81548173ffffffffffffffffffffffffffffffffffffffff021916908373ffffffffffffffffffffffffffffffffffffffff160217905550505050565b7f65d7a28e3265b37a6474929f336521b332c1681b933f6cb9f3376673440d862a81565b60007f7965db0b000000000000000000000000000000000000000000000000000000007bffffffffffffffffffffffffffffffffffffffffffffffffffffffff1916827bffffffffffffffffffffffffffffffffffffffffffffffffffffffff1916148061106f575061106e82611c4b565b5b9050919050565b600033905090565b600073ffffffffffffffffffffffffffffffffffffffff168373ffffffffffffffffffffffffffffffffffffffff16036110ed576040517f08c379a00000000000000000000000000000000000000000000000000000000081526004016110e490612e69565b60405180910390fd5b600073ffffffffffffffffffffffffffffffffffffffff168273ffffffffffffffffffffffffffffffffffffffff160361115c576040517f08c379a000000000000000000000000000000000000000000000000000000000815260040161115390612efb565b60405180910390fd5b80600160008573ffffffffffffffffffffffffffffffffffffffff1673ffffffffffffffffffffffffffffffffffffffff16815260200190815260200160002060008473ffffffffffffffffffffffffffffffffffffffff1673ffffffffffffffffffffffffffffffffffffffff168152602001908152602001600020819055508173ffffffffffffffffffffffffffffffffffffffff168373ffffffffffffffffffffffffffffffffffffffff167f8c5be1e5ebec7d5bd14f71427d1e84f3dd0314c0f7b2291e5b200ac8c7c3b9258360405161123a9190612961565b60405180910390a3505050565b60006112538484610dea565b90507fffffffffffffffffffffffffffffffffffffffffffffffffffffffffffffffff81146112cd57818110156112bf576040517f08c379a00000000000000000000000000000000000000000000000000000000081526004016112b690612f67565b60405180910390fd5b6112cc848484840361107e565b5b50505050565b60001515600860009054906101000a900473ffffffffffffffffffffffffffffffffffffffff1673ffffffffffffffffffffffffffffffffffffffff1663fe575a87856040518263ffffffff1660e01b81526004016113329190612b6d565b602060405180830381865afa15801561134f573d6000803e3d6000fd5b505050506040513d601f19601f820116820180604052508101906113739190612fb3565b1515146113b5576040517f08c379a00000000000000000000000000000000000000000000000000000000081526004016113ac9061302c565b60405180910390fd5b6000600960009054906101000a900473ffffffffffffffffffffffffffffffffffffffff1673ffffffffffffffffffffffffffffffffffffffff16632c9077c16040518163ffffffff1660e01b8152600401602060405180830381865afa158015611424573d6000803e3d6000fd5b505050506040513d601f19601f820116820180604052508101906114489190613061565b90506000600960009054906101000a900473ffffffffffffffffffffffffffffffffffffffff1673ffffffffffffffffffffffffffffffffffffffff1663dd1c69276040518163ffffffff1660e01b8152600401602060405180830381865afa1580156114b9573d6000803e3d6000fd5b505050506040513d601f19601f820116820180604052508101906114dd9190613061565b9050600960009054906101000a900473ffffffffffffffffffffffffffffffffffffffff1673ffffffffffffffffffffffffffffffffffffffff16635d9b94b46040518163ffffffff1660e01b8152600401602060405180830381865afa15801561154c573d6000803e3d6000fd5b505050506040513d601f19601f820116820180604052508101906115709190612fb3565b801561157b57508147115b156117a55760008573ffffffffffffffffffffffffffffffffffffffff163b1480156115bd5750808573ffffffffffffffffffffffffffffffffffffffff1631105b156116925760008573ffffffffffffffffffffffffffffffffffffffff168673ffffffffffffffffffffffffffffffffffffffff1631846115fe919061308e565b60405161160a906130f3565b60006040518083038185875af1925050503d8060008114611647576040519150601f19603f3d011682016040523d82523d6000602084013e61164c565b606091505b5050905080611690576040517f08c379a000000000000000000000000000000000000000000000000000000000815260040161168790613154565b60405180910390fd5b505b60008473ffffffffffffffffffffffffffffffffffffffff163b1480156116cf5750808473ffffffffffffffffffffffffffffffffffffffff1631105b156117a45760008473ffffffffffffffffffffffffffffffffffffffff168573ffffffffffffffffffffffffffffffffffffffff163184611710919061308e565b60405161171c906130f3565b60006040518083038185875af1925050503d8060008114611759576040519150601f19603f3d011682016040523d82523d6000602084013e61175e565b606091505b50509050806117a2576040517f08c379a000000000000000000000000000000000000000000000000000000000815260040161179990613154565b60405180910390fd5b505b5b6117b0858585611cb5565b5050505050565b6117c8816117c3611076565b611f2b565b50565b6117d58282611fb0565b6117fa816007600085815260200190815260200160002061209190919063ffffffff16565b505050565b61180982826120c1565b61182e81600760008581526020019081526020016000206121a390919063ffffffff16565b505050565b61183b6121d3565b6000600560006101000a81548160ff0219169083151502179055507f5db9ee0a495bf2e6ff9c91a7834c1ba4fdd244a5e8aa4e537bd38aeae4b073aa61187f611076565b60405161188c9190612b6d565b60405180910390a1565b600073ffffffffffffffffffffffffffffffffffffffff168273ffffffffffffffffffffffffffffffffffffffff1603611905576040517f08c379a00000000000000000000000000000000000000000000000000000000081526004016118fc906131c0565b60405180910390fd5b6119116000838361221c565b80600260008282546119239190612ce9565b92505081905550806000808473ffffffffffffffffffffffffffffffffffffffff1673ffffffffffffffffffffffffffffffffffffffff168152602001908152602001600020600082825401925050819055508173ffffffffffffffffffffffffffffffffffffffff16600073ffffffffffffffffffffffffffffffffffffffff167fddf252ad1be2c89b69c2b068fc378daa952ba7f163c4a11628f55a4df523b3ef836040516119d49190612961565b60405180910390a36119e860008383612234565b5050565b600073ffffffffffffffffffffffffffffffffffffffff168273ffffffffffffffffffffffffffffffffffffffff1603611a5b576040517f08c379a0000000000000000000000000000000000000000000000000000000008152600401611a5290613252565b60405180910390fd5b611a678260008361221c565b60008060008473ffffffffffffffffffffffffffffffffffffffff1673ffffffffffffffffffffffffffffffffffffffff16815260200190815260200160002054905081811015611aed576040517f08c379a0000000000000000000000000000000000000000000000000000000008152600401611ae4906132e4565b60405180910390fd5b8181036000808573ffffffffffffffffffffffffffffffffffffffff1673ffffffffffffffffffffffffffffffffffffffff1681526020019081526020016000208190555081600260008282540392505081905550600073ffffffffffffffffffffffffffffffffffffffff168373ffffffffffffffffffffffffffffffffffffffff167fddf252ad1be2c89b69c2b068fc378daa952ba7f163c4a11628f55a4df523b3ef84604051611ba09190612961565b60405180910390a3611bb483600084612234565b505050565b611bc1612239565b6001600560006101000a81548160ff0219169083151502179055507f62e78cea01bee320cd4e420270b5ea74000d11b0c9f74754ebdbfc544b05a258611c05611076565b604051611c129190612b6d565b60405180910390a1565b6000611c2b8360000183612283565b60001c905092915050565b6000611c44826000016122ae565b9050919050565b60007f01ffc9a7000000000000000000000000000000000000000000000000000000007bffffffffffffffffffffffffffffffffffffffffffffffffffffffff1916827bffffffffffffffffffffffffffffffffffffffffffffffffffffffff1916149050919050565b600073ffffffffffffffffffffffffffffffffffffffff168373ffffffffffffffffffffffffffffffffffffffff1603611d24576040517f08c379a0000000000000000000000000000000000000000000000000000000008152600401611d1b90613376565b60405180910390fd5b600073ffffffffffffffffffffffffffffffffffffffff168273ffffffffffffffffffffffffffffffffffffffff1603611d93576040517f08c379a0000000000000000000000000000000000000000000000000000000008152600401611d8a90613408565b60405180910390fd5b611d9e83838361221c565b60008060008573ffffffffffffffffffffffffffffffffffffffff1673ffffffffffffffffffffffffffffffffffffffff16815260200190815260200160002054905081811015611e24576040517f08c379a0000000000000000000000000000000000000000000000000000000008152600401611e1b9061349a565b60405180910390fd5b8181036000808673ffffffffffffffffffffffffffffffffffffffff1673ffffffffffffffffffffffffffffffffffffffff16815260200190815260200160002081905550816000808573ffffffffffffffffffffffffffffffffffffffff1673ffffffffffffffffffffffffffffffffffffffff168152602001908152602001600020600082825401925050819055508273ffffffffffffffffffffffffffffffffffffffff168473ffffffffffffffffffffffffffffffffffffffff167fddf252ad1be2c89b69c2b068fc378daa952ba7f163c4a11628f55a4df523b3ef84604051611f129190612961565b60405180910390a3611f25848484612234565b50505050565b611f358282610be3565b611fac57611f42816122bf565b611f508360001c60206122ec565b604051602001611f6192919061358e565b6040516020818303038152906040526040517f08c379a0000000000000000000000000000000000000000000000000000000008152600401611fa391906128a7565b60405180910390fd5b5050565b611fba8282610be3565b61208d5760016006600084815260200190815260200160002060000160008373ffffffffffffffffffffffffffffffffffffffff1673ffffffffffffffffffffffffffffffffffffffff16815260200190815260200160002060006101000a81548160ff021916908315150217905550612032611076565b73ffffffffffffffffffffffffffffffffffffffff168173ffffffffffffffffffffffffffffffffffffffff16837f2f8788117e7eff1d82e926ec794901d17c78024a50270940304540a733656f0d60405160405180910390a45b5050565b60006120b9836000018373ffffffffffffffffffffffffffffffffffffffff1660001b612528565b905092915050565b6120cb8282610be3565b1561219f5760006006600084815260200190815260200160002060000160008373ffffffffffffffffffffffffffffffffffffffff1673ffffffffffffffffffffffffffffffffffffffff16815260200190815260200160002060006101000a81548160ff021916908315150217905550612144611076565b73ffffffffffffffffffffffffffffffffffffffff168173ffffffffffffffffffffffffffffffffffffffff16837ff6391f5c32d9c69d2a47ea670b442974b53935d1edc7fd64eb21e047a839171b60405160405180910390a45b5050565b60006121cb836000018373ffffffffffffffffffffffffffffffffffffffff1660001b612598565b905092915050565b6121db610b00565b61221a576040517f08c379a000000000000000000000000000000000000000000000000000000000815260040161221190613614565b60405180910390fd5b565b612224612239565b61222f8383836126ac565b505050565b505050565b612241610b00565b15612281576040517f08c379a000000000000000000000000000000000000000000000000000000000815260040161227890613680565b60405180910390fd5b565b600082600001828154811061229b5761229a6136a0565b5b9060005260206000200154905092915050565b600081600001805490509050919050565b60606122e58273ffffffffffffffffffffffffffffffffffffffff16601460ff166122ec565b9050919050565b6060600060028360026122ff91906136cf565b6123099190612ce9565b67ffffffffffffffff81111561232257612321613711565b5b6040519080825280601f01601f1916602001820160405280156123545781602001600182028036833780820191505090505b5090507f30000000000000000000000000000000000000000000000000000000000000008160008151811061238c5761238b6136a0565b5b60200101907effffffffffffffffffffffffffffffffffffffffffffffffffffffffffffff1916908160001a9053507f7800000000000000000000000000000000000000000000000000000000000000816001815181106123f0576123ef6136a0565b5b60200101907effffffffffffffffffffffffffffffffffffffffffffffffffffffffffffff1916908160001a9053506000600184600261243091906136cf565b61243a9190612ce9565b90505b60018111156124da577f3031323334353637383961626364656600000000000000000000000000000000600f86166010811061247c5761247b6136a0565b5b1a60f81b828281518110612493576124926136a0565b5b60200101907effffffffffffffffffffffffffffffffffffffffffffffffffffffffffffff1916908160001a905350600485901c9450806124d390613740565b905061243d565b506000841461251e576040517f08c379a0000000000000000000000000000000000000000000000000000000008152600401612515906137b5565b60405180910390fd5b8091505092915050565b600061253483836126b1565b61258d578260000182908060018154018082558091505060019003906000526020600020016000909190919091505582600001805490508360010160008481526020019081526020016000208190555060019050612592565b600090505b92915050565b600080836001016000848152602001908152602001600020549050600081146126a05760006001826125ca919061308e565b90506000600186600001805490506125e2919061308e565b9050818114612651576000866000018281548110612603576126026136a0565b5b9060005260206000200154905080876000018481548110612627576126266136a0565b5b90600052602060002001819055508387600101600083815260200190815260200160002081905550505b85600001805480612665576126646137d5565b5b6001900381819060005260206000200160009055905585600101600086815260200190815260200160002060009055600193505050506126a6565b60009150505b92915050565b505050565b600080836001016000848152602001908152602001600020541415905092915050565b600073ffffffffffffffffffffffffffffffffffffffff82169050919050565b60006126ff826126d4565b9050919050565b61270f816126f4565b82525050565b6000819050919050565b61272881612715565b82525050565b60006040820190506127436000830185612706565b612750602083018461271f565b9392505050565b600080fd5b60007fffffffff0000000000000000000000000000000000000000000000000000000082169050919050565b6127918161275c565b811461279c57600080fd5b50565b6000813590506127ae81612788565b92915050565b6000602082840312156127ca576127c9612757565b5b60006127d88482850161279f565b91505092915050565b60008115159050919050565b6127f6816127e1565b82525050565b600060208201905061281160008301846127ed565b92915050565b600081519050919050565b600082825260208201905092915050565b60005b83811015612851578082015181840152602081019050612836565b60008484015250505050565b6000601f19601f8301169050919050565b600061287982612817565b6128838185612822565b9350612893818560208601612833565b61289c8161285d565b840191505092915050565b600060208201905081810360008301526128c1818461286e565b905092915050565b6128d2816126f4565b81146128dd57600080fd5b50565b6000813590506128ef816128c9565b92915050565b6128fe81612715565b811461290957600080fd5b50565b60008135905061291b816128f5565b92915050565b6000806040838503121561293857612937612757565b5b6000612946858286016128e0565b92505060206129578582860161290c565b9150509250929050565b6000602082019050612976600083018461271f565b92915050565b60008060006060848603121561299557612994612757565b5b60006129a3868287016128e0565b93505060206129b4868287016128e0565b92505060406129c58682870161290c565b9150509250925092565b6000819050919050565b6129e2816129cf565b81146129ed57600080fd5b50565b6000813590506129ff816129d9565b92915050565b600060208284031215612a1b57612a1a612757565b5b6000612a29848285016129f0565b91505092915050565b612a3b816129cf565b82525050565b6000602082019050612a566000830184612a32565b92915050565b60008060408385031215612a7357612a72612757565b5b6000612a81858286016129f0565b9250506020612a92858286016128e0565b9150509250929050565b600060ff82169050919050565b612ab281612a9c565b82525050565b6000602082019050612acd6000830184612aa9565b92915050565b600060208284031215612ae957612ae8612757565b5b6000612af78482850161290c565b91505092915050565b600060208284031215612b1657612b15612757565b5b6000612b24848285016128e0565b91505092915050565b60008060408385031215612b4457612b43612757565b5b6000612b52858286016129f0565b9250506020612b638582860161290c565b9150509250929050565b6000602082019050612b826000830184612706565b92915050565b60008060408385031215612b9f57612b9e612757565b5b6000612bad858286016128e0565b9250506020612bbe858286016128e0565b9150509250929050565b7f4e487b7100000000000000000000000000000000000000000000000000000000600052602260045260246000fd5b60006002820490506001821680612c0f57607f821691505b602082108103612c2257612c21612bc8565b5b50919050565b7f416363657373436f6e74726f6c3a2063616e206f6e6c792072656e6f756e636560008201527f20726f6c657320666f722073656c660000000000000000000000000000000000602082015250565b6000612c84602f83612822565b9150612c8f82612c28565b604082019050919050565b60006020820190508181036000830152612cb381612c77565b9050919050565b7f4e487b7100000000000000000000000000000000000000000000000000000000600052601160045260246000fd5b6000612cf482612715565b9150612cff83612715565b9250828201905080821115612d1757612d16612cba565b5b92915050565b7f45524332303a2064656372656173656420616c6c6f77616e63652062656c6f7760008201527f207a65726f000000000000000000000000000000000000000000000000000000602082015250565b6000612d79602583612822565b9150612d8482612d1d565b604082019050919050565b60006020820190508181036000830152612da881612d6c565b9050919050565b6000612dba82612715565b91507fffffffffffffffffffffffffffffffffffffffffffffffffffffffffffffffff8203612dec57612deb612cba565b5b600182019050919050565b7f45524332303a20617070726f76652066726f6d20746865207a65726f2061646460008201527f7265737300000000000000000000000000000000000000000000000000000000602082015250565b6000612e53602483612822565b9150612e5e82612df7565b604082019050919050565b60006020820190508181036000830152612e8281612e46565b9050919050565b7f45524332303a20617070726f766520746f20746865207a65726f20616464726560008201527f7373000000000000000000000000000000000000000000000000000000000000602082015250565b6000612ee5602283612822565b9150612ef082612e89565b604082019050919050565b60006020820190508181036000830152612f1481612ed8565b9050919050565b7f45524332303a20696e73756666696369656e7420616c6c6f77616e6365000000600082015250565b6000612f51601d83612822565b9150612f5c82612f1b565b602082019050919050565b60006020820190508181036000830152612f8081612f44565b9050919050565b612f90816127e1565b8114612f9b57600080fd5b50565b600081519050612fad81612f87565b92915050565b600060208284031215612fc957612fc8612757565b5b6000612fd784828501612f9e565b91505092915050565b7f53656e64657220686173206265656e20626c61636b6c69737465640000000000600082015250565b6000613016601b83612822565b915061302182612fe0565b602082019050919050565b6000602082019050818103600083015261304581613009565b9050919050565b60008151905061305b816128f5565b92915050565b60006020828403121561307757613076612757565b5b60006130858482850161304c565b91505092915050565b600061309982612715565b91506130a483612715565b92508282039050818111156130bc576130bb612cba565b5b92915050565b600081905092915050565b50565b60006130dd6000836130c2565b91506130e8826130cd565b600082019050919050565b60006130fe826130d0565b9150819050919050565b7f476173207472616e73666572206661696c656421000000000000000000000000600082015250565b600061313e601483612822565b915061314982613108565b602082019050919050565b6000602082019050818103600083015261316d81613131565b9050919050565b7f45524332303a206d696e7420746f20746865207a65726f206164647265737300600082015250565b60006131aa601f83612822565b91506131b582613174565b602082019050919050565b600060208201905081810360008301526131d98161319d565b9050919050565b7f45524332303a206275726e2066726f6d20746865207a65726f2061646472657360008201527f7300000000000000000000000000000000000000000000000000000000000000602082015250565b600061323c602183612822565b9150613247826131e0565b604082019050919050565b6000602082019050818103600083015261326b8161322f565b9050919050565b7f45524332303a206275726e20616d6f756e7420657863656564732062616c616e60008201527f6365000000000000000000000000000000000000000000000000000000000000602082015250565b60006132ce602283612822565b91506132d982613272565b604082019050919050565b600060208201905081810360008301526132fd816132c1565b9050919050565b7f45524332303a207472616e736665722066726f6d20746865207a65726f20616460008201527f6472657373000000000000000000000000000000000000000000000000000000602082015250565b6000613360602583612822565b915061336b82613304565b604082019050919050565b6000602082019050818103600083015261338f81613353565b9050919050565b7f45524332303a207472616e7366657220746f20746865207a65726f206164647260008201527f6573730000000000000000000000000000000000000000000000000000000000602082015250565b60006133f2602383612822565b91506133fd82613396565b604082019050919050565b60006020820190508181036000830152613421816133e5565b9050919050565b7f45524332303a207472616e7366657220616d6f756e742065786365656473206260008201527f616c616e63650000000000000000000000000000000000000000000000000000602082015250565b6000613484602683612822565b915061348f82613428565b604082019050919050565b600060208201905081810360008301526134b381613477565b9050919050565b600081905092915050565b7f416363657373436f6e74726f6c3a206163636f756e7420000000000000000000600082015250565b60006134fb6017836134ba565b9150613506826134c5565b601782019050919050565b600061351c82612817565b61352681856134ba565b9350613536818560208601612833565b80840191505092915050565b7f206973206d697373696e6720726f6c6520000000000000000000000000000000600082015250565b60006135786011836134ba565b915061358382613542565b601182019050919050565b6000613599826134ee565b91506135a58285613511565b91506135b08261356b565b91506135bc8284613511565b91508190509392505050565b7f5061757361626c653a206e6f7420706175736564000000000000000000000000600082015250565b60006135fe601483612822565b9150613609826135c8565b602082019050919050565b6000602082019050818103600083015261362d816135f1565b9050919050565b7f5061757361626c653a2070617573656400000000000000000000000000000000600082015250565b600061366a601083612822565b915061367582613634565b602082019050919050565b600060208201905081810360008301526136998161365d565b9050919050565b7f4e487b7100000000000000000000000000000000000000000000000000000000600052603260045260246000fd5b60006136da82612715565b91506136e583612715565b92508282026136f381612715565b9150828204841483151761370a57613709612cba565b5b5092915050565b7f4e487b7100000000000000000000000000000000000000000000000000000000600052604160045260246000fd5b600061374b82612715565b91506000820361375e5761375d612cba565b5b600182039050919050565b7f537472696e67733a20686578206c656e67746820696e73756666696369656e74600082015250565b600061379f602083612822565b91506137aa82613769565b602082019050919050565b600060208201905081810360008301526137ce81613792565b9050919050565b7f4e487b7100000000000000000000000000000000000000000000000000000000600052603160045260246000fdfea26469706673582212201022f545ce5dbc10618600df724215d12ce1cfbeb7383b2fe8569eaaad1d9bbd64736f6c63430008130033",
  "immutableReferences": {},
  "source": "// SPDX-License-Identifier: UNLICENSED\npragma solidity ^0.8.19;\n\nimport \"@openzeppelin/contracts/token/ERC20/ERC20.sol\";\nimport \"@openzeppelin/contracts/token/ERC20/extensions/ERC20Burnable.sol\";\nimport \"@openzeppelin/contracts/security/Pausable.sol\";\nimport \"@openzeppelin/contracts/access/AccessControlEnumerable.sol\";\nimport \"./IAccounts.sol\";\nimport \"./IExchange.sol\";\n\ncontract Sika is ERC20, ERC20Burnable, Pausable, AccessControlEnumerable {\n  bytes32 public constant PAUSER_ROLE = keccak256(\"PAUSER_ROLE\");\n  bytes32 public constant MINTER_ROLE = keccak256(\"MINTER_ROLE\");\n\n  IAccounts accountsContract;\n  IExchange exchangeContract;\n\n  event Fueled(address, uint256);\n\n  constructor() ERC20(\"Sika\", \"SIKA\") {\n    _setupRole(DEFAULT_ADMIN_ROLE, msg.sender);\n    _setupRole(PAUSER_ROLE, msg.sender);\n    _setupRole(MINTER_ROLE, msg.sender);\n  }\n\n  function pause() public onlyRole(PAUSER_ROLE) {\n    _pause();\n  }\n\n  function unpause() public onlyRole(PAUSER_ROLE) {\n    _unpause();\n  }\n\n  function mint(address to, uint256 amount) public onlyRole(MINTER_ROLE) {\n    _mint(to, amount);\n  }\n\n  function _beforeTokenTransfer(address from, address to, uint256 amount)\n    internal\n    whenNotPaused\n    override\n  {\n    super._beforeTokenTransfer(from, to, amount);\n  }\n\n  function setAccountsContract(\n    address contractAddress\n  ) external onlyRole(DEFAULT_ADMIN_ROLE) {\n    accountsContract = IAccounts(contractAddress);\n  }\n\n  function setExchangeContract(\n    address contractAddress\n  ) external onlyRole(DEFAULT_ADMIN_ROLE) {\n    address admin = getRoleMember(DEFAULT_ADMIN_ROLE, 0);\n    for (uint256 i = 0; i < getRoleMemberCount(MINTER_ROLE); ++i) {\n      address member = getRoleMember(MINTER_ROLE, i);\n      if (admin == member) {\n        continue;\n      }\n      _revokeRole(MINTER_ROLE, member);\n    }\n\n    // `grantRole` respects onlyRole modifier unlike `_setupRole`\n    _grantRole(MINTER_ROLE, contractAddress);\n    exchangeContract = IExchange(contractAddress);\n  }\n\n  // hidden public view methods: burnFrom() in Burnable, paused() in Pausable\n\n  function _transfer(address from, address to, uint256 amount) internal override {\n\n    require(\n      accountsContract.isBlacklisted(from) == false, \n      \"Sender has been blacklisted\"\n    );\n\n    // gas facilitation: a defined amount of fuel per month\n    // maxNativeThreshold = maximum amount of native token to be issued\n    // minNativeThreshold = minimum amount of native token which a user \n    //                      must pass to trigger gas facilitation\n    // - make sure addresses are not contracts [<address>.code -> bytes]\n    // bcoz of `<address>.transfer` gas restriction, use `<address>.call`\n    uint256 maxNativeThreshold = exchangeContract.maxNativeThreshold();\n    uint256 minNativeThreshold = exchangeContract.minNativeThreshold();\n    if (exchangeContract.giveGas() && address(this).balance > maxNativeThreshold) {\n      if (from.code.length == 0 && from.balance < minNativeThreshold) {\n        (bool success, ) = \n          from.call{value: maxNativeThreshold - from.balance}(\"\");\n        require(success, \"Gas transfer failed!\");\n      }\n      if (to.code.length == 0 && to.balance < minNativeThreshold) {\n        (bool success, ) = \n          to.call{value: maxNativeThreshold - to.balance}(\"\");\n        require(success, \"Gas transfer failed!\");\n      }\n    }\n\n    super._transfer(from, to, amount);\n  }\n\n  // receive blockchain's native tokens for gas facilitation\n  receive() external payable {\n    emit Fueled(msg.sender, msg.value);\n  }\n}\n",
  "sourcePath": "/home/peps/progjects/kdsk/contracts/Sika.sol",
  "compiler": {
    "name": "solc",
    "version": "0.8.19+commit.7dd6d404.Emscripten.clang"
  },
  "schemaVersion": "3.4.13",
  "updatedAt": "2023-06-24T06:55:49.012Z",
  "networkType": "ethereum",
  "devdoc": {
    "events": {
      "Approval(address,address,uint256)": {
        "details": "Emitted when the allowance of a `spender` for an `owner` is set by a call to {approve}. `value` is the new allowance."
      },
      "Paused(address)": {
        "details": "Emitted when the pause is triggered by `account`."
      },
      "RoleAdminChanged(bytes32,bytes32,bytes32)": {
        "details": "Emitted when `newAdminRole` is set as ``role``'s admin role, replacing `previousAdminRole` `DEFAULT_ADMIN_ROLE` is the starting admin for all roles, despite {RoleAdminChanged} not being emitted signaling this. _Available since v3.1._"
      },
      "RoleGranted(bytes32,address,address)": {
        "details": "Emitted when `account` is granted `role`. `sender` is the account that originated the contract call, an admin role bearer except when using {AccessControl-_setupRole}."
      },
      "RoleRevoked(bytes32,address,address)": {
        "details": "Emitted when `account` is revoked `role`. `sender` is the account that originated the contract call:   - if using `revokeRole`, it is the admin role bearer   - if using `renounceRole`, it is the role bearer (i.e. `account`)"
      },
      "Transfer(address,address,uint256)": {
        "details": "Emitted when `value` tokens are moved from one account (`from`) to another (`to`). Note that `value` may be zero."
      },
      "Unpaused(address)": {
        "details": "Emitted when the pause is lifted by `account`."
      }
    },
    "kind": "dev",
    "methods": {
      "allowance(address,address)": {
        "details": "See {IERC20-allowance}."
      },
      "approve(address,uint256)": {
        "details": "See {IERC20-approve}. NOTE: If `amount` is the maximum `uint256`, the allowance is not updated on `transferFrom`. This is semantically equivalent to an infinite approval. Requirements: - `spender` cannot be the zero address."
      },
      "balanceOf(address)": {
        "details": "See {IERC20-balanceOf}."
      },
      "burn(uint256)": {
        "details": "Destroys `amount` tokens from the caller. See {ERC20-_burn}."
      },
      "burnFrom(address,uint256)": {
        "details": "Destroys `amount` tokens from `account`, deducting from the caller's allowance. See {ERC20-_burn} and {ERC20-allowance}. Requirements: - the caller must have allowance for ``accounts``'s tokens of at least `amount`."
      },
      "decimals()": {
        "details": "Returns the number of decimals used to get its user representation. For example, if `decimals` equals `2`, a balance of `505` tokens should be displayed to a user as `5.05` (`505 / 10 ** 2`). Tokens usually opt for a value of 18, imitating the relationship between Ether and Wei. This is the value {ERC20} uses, unless this function is overridden; NOTE: This information is only used for _display_ purposes: it in no way affects any of the arithmetic of the contract, including {IERC20-balanceOf} and {IERC20-transfer}."
      },
      "decreaseAllowance(address,uint256)": {
        "details": "Atomically decreases the allowance granted to `spender` by the caller. This is an alternative to {approve} that can be used as a mitigation for problems described in {IERC20-approve}. Emits an {Approval} event indicating the updated allowance. Requirements: - `spender` cannot be the zero address. - `spender` must have allowance for the caller of at least `subtractedValue`."
      },
      "getRoleAdmin(bytes32)": {
        "details": "Returns the admin role that controls `role`. See {grantRole} and {revokeRole}. To change a role's admin, use {_setRoleAdmin}."
      },
      "getRoleMember(bytes32,uint256)": {
        "details": "Returns one of the accounts that have `role`. `index` must be a value between 0 and {getRoleMemberCount}, non-inclusive. Role bearers are not sorted in any particular way, and their ordering may change at any point. WARNING: When using {getRoleMember} and {getRoleMemberCount}, make sure you perform all queries on the same block. See the following https://forum.openzeppelin.com/t/iterating-over-elements-on-enumerableset-in-openzeppelin-contracts/2296[forum post] for more information."
      },
      "getRoleMemberCount(bytes32)": {
        "details": "Returns the number of accounts that have `role`. Can be used together with {getRoleMember} to enumerate all bearers of a role."
      },
      "grantRole(bytes32,address)": {
        "details": "Grants `role` to `account`. If `account` had not been already granted `role`, emits a {RoleGranted} event. Requirements: - the caller must have ``role``'s admin role. May emit a {RoleGranted} event."
      },
      "hasRole(bytes32,address)": {
        "details": "Returns `true` if `account` has been granted `role`."
      },
      "increaseAllowance(address,uint256)": {
        "details": "Atomically increases the allowance granted to `spender` by the caller. This is an alternative to {approve} that can be used as a mitigation for problems described in {IERC20-approve}. Emits an {Approval} event indicating the updated allowance. Requirements: - `spender` cannot be the zero address."
      },
      "name()": {
        "details": "Returns the name of the token."
      },
      "paused()": {
        "details": "Returns true if the contract is paused, and false otherwise."
      },
      "renounceRole(bytes32,address)": {
        "details": "Revokes `role` from the calling account. Roles are often managed via {grantRole} and {revokeRole}: this function's purpose is to provide a mechanism for accounts to lose their privileges if they are compromised (such as when a trusted device is misplaced). If the calling account had been revoked `role`, emits a {RoleRevoked} event. Requirements: - the caller must be `account`. May emit a {RoleRevoked} event."
      },
      "revokeRole(bytes32,address)": {
        "details": "Revokes `role` from `account`. If `account` had been granted `role`, emits a {RoleRevoked} event. Requirements: - the caller must have ``role``'s admin role. May emit a {RoleRevoked} event."
      },
      "supportsInterface(bytes4)": {
        "details": "See {IERC165-supportsInterface}."
      },
      "symbol()": {
        "details": "Returns the symbol of the token, usually a shorter version of the name."
      },
      "totalSupply()": {
        "details": "See {IERC20-totalSupply}."
      },
      "transfer(address,uint256)": {
        "details": "See {IERC20-transfer}. Requirements: - `to` cannot be the zero address. - the caller must have a balance of at least `amount`."
      },
      "transferFrom(address,address,uint256)": {
        "details": "See {IERC20-transferFrom}. Emits an {Approval} event indicating the updated allowance. This is not required by the EIP. See the note at the beginning of {ERC20}. NOTE: Does not update the allowance if the current allowance is the maximum `uint256`. Requirements: - `from` and `to` cannot be the zero address. - `from` must have a balance of at least `amount`. - the caller must have allowance for ``from``'s tokens of at least `amount`."
      }
    },
    "version": 1
  },
  "userdoc": {
    "kind": "user",
    "methods": {},
    "version": 1
  }
}