{
  "contractName": "StakingPool",
  "abi": [
    {
      "inputs": [
        {
          "internalType": "address",
          "name": "unstakedTokenAddress",
          "type": "address"
        },
        {
          "internalType": "address",
          "name": "stakedTokenAddress",
          "type": "address"
        }
      ],
      "stateMutability": "nonpayable",
      "type": "constructor"
    },
    {
      "inputs": [],
      "name": "issuedEarningsIndex",
      "outputs": [
        {
          "internalType": "uint256",
          "name": "",
          "type": "uint256"
        }
      ],
      "stateMutability": "view",
      "type": "function",
      "constant": true
    },
    {
      "inputs": [],
      "name": "minStakeAmount",
      "outputs": [
        {
          "internalType": "uint256",
          "name": "",
          "type": "uint256"
        }
      ],
      "stateMutability": "view",
      "type": "function",
      "constant": true
    },
    {
      "inputs": [],
      "name": "totalLockedAmount",
      "outputs": [
        {
          "internalType": "uint256",
          "name": "",
          "type": "uint256"
        }
      ],
      "stateMutability": "view",
      "type": "function",
      "constant": true
    },
    {
      "inputs": [
        {
          "internalType": "address",
          "name": "contractAddress",
          "type": "address"
        }
      ],
      "name": "setAccountsContract",
      "outputs": [],
      "stateMutability": "nonpayable",
      "type": "function"
    },
    {
      "inputs": [
        {
          "internalType": "uint256",
          "name": "amount",
          "type": "uint256"
        }
      ],
      "name": "setMinStakeAmount",
      "outputs": [],
      "stateMutability": "nonpayable",
      "type": "function"
    },
    {
      "inputs": [],
      "name": "toggleAllowStaking",
      "outputs": [],
      "stateMutability": "nonpayable",
      "type": "function"
    },
    {
      "inputs": [],
      "name": "toggleAllowUnstaking",
      "outputs": [],
      "stateMutability": "nonpayable",
      "type": "function"
    },
    {
      "inputs": [],
      "name": "getUnlockedAmount",
      "outputs": [
        {
          "internalType": "uint256",
          "name": "",
          "type": "uint256"
        }
      ],
      "stateMutability": "view",
      "type": "function",
      "constant": true
    },
    {
      "inputs": [],
      "name": "getStakes",
      "outputs": [
        {
          "components": [
            {
              "internalType": "address",
              "name": "staker",
              "type": "address"
            },
            {
              "internalType": "uint256",
              "name": "startedAtEarningsIndex",
              "type": "uint256"
            },
            {
              "internalType": "uint16",
              "name": "lockingDays",
              "type": "uint16"
            },
            {
              "internalType": "uint256",
              "name": "amount",
              "type": "uint256"
            },
            {
              "internalType": "bool",
              "name": "unlocked",
              "type": "bool"
            }
          ],
          "internalType": "struct StakingPool.StakeStruct[]",
          "name": "",
          "type": "tuple[]"
        }
      ],
      "stateMutability": "view",
      "type": "function",
      "constant": true
    },
    {
      "inputs": [],
      "name": "getStakesLength",
      "outputs": [
        {
          "internalType": "uint256",
          "name": "",
          "type": "uint256"
        }
      ],
      "stateMutability": "view",
      "type": "function",
      "constant": true
    },
    {
      "inputs": [
        {
          "internalType": "uint256",
          "name": "startLoopAtIndex",
          "type": "uint256"
        }
      ],
      "name": "disburseEarnings",
      "outputs": [],
      "stateMutability": "nonpayable",
      "type": "function"
    },
    {
      "inputs": [
        {
          "internalType": "uint256",
          "name": "amount",
          "type": "uint256"
        }
      ],
      "name": "unstake",
      "outputs": [],
      "stateMutability": "nonpayable",
      "type": "function"
    },
    {
      "inputs": [
        {
          "internalType": "uint16",
          "name": "lockingDays",
          "type": "uint16"
        },
        {
          "internalType": "uint256",
          "name": "amount",
          "type": "uint256"
        }
      ],
      "name": "stake",
      "outputs": [],
      "stateMutability": "nonpayable",
      "type": "function"
    }
  ],
  "bytecode": "0x60806040526001600360146101000a81548160ff0219169083151502179055506001600360156101000a81548160ff0219169083151502179055503480156200004757600080fd5b50604051620024373803806200243783398181016040528101906200006d9190620001a1565b81600360006101000a81548173ffffffffffffffffffffffffffffffffffffffff021916908373ffffffffffffffffffffffffffffffffffffffff16021790555080600260006101000a81548173ffffffffffffffffffffffffffffffffffffffff021916908373ffffffffffffffffffffffffffffffffffffffff160217905550336000806101000a81548173ffffffffffffffffffffffffffffffffffffffff021916908373ffffffffffffffffffffffffffffffffffffffff1602179055505050620001e8565b600080fd5b600073ffffffffffffffffffffffffffffffffffffffff82169050919050565b600062000169826200013c565b9050919050565b6200017b816200015c565b81146200018757600080fd5b50565b6000815190506200019b8162000170565b92915050565b60008060408385031215620001bb57620001ba62000137565b5b6000620001cb858286016200018a565b9250506020620001de858286016200018a565b9150509250929050565b61223f80620001f86000396000f3fe608060405234801561001057600080fd5b50600436106100cf5760003560e01c8063863ed73d1161008c578063df4b477611610066578063df4b4776146101b4578063eb4af045146101d2578063edd60a89146101ee578063f18876841461020a576100cf565b8063863ed73d14610184578063a1b22747146101a0578063c9dd39a2146101aa576100cf565b806305a9f274146100d457806324ea3626146100f25780632860ebd7146101105780632e17de781461012e57806342edceac1461014a5780634bade67e14610166575b600080fd5b6100dc610228565b6040516100e99190611803565b60405180910390f35b6100fa61022e565b6040516101079190611803565b60405180910390f35b61011861027d565b6040516101259190611803565b60405180910390f35b6101486004803603810190610143919061184f565b610283565b005b610164600480360381019061015f91906118da565b610644565b005b61016e610844565b60405161017b9190611803565b60405180910390f35b61019e60048036038101906101999190611941565b6108e0565b005b6101a8610e29565b005b6101b2610ee3565b005b6101bc610f9d565b6040516101c99190611ae0565b60405180910390f35b6101ec60048036038101906101e7919061184f565b611197565b005b6102086004803603810190610203919061184f565b61122f565b005b610212611799565b60405161021f9190611803565b60405180910390f35b60055481565b600080600860003373ffffffffffffffffffffffffffffffffffffffff1673ffffffffffffffffffffffffffffffffffffffff1681526020019081526020016000209050806000015491505090565b60065481565b60011515600360159054906101000a900460ff161515146102d9576040517f08c379a00000000000000000000000000000000000000000000000000000000081526004016102d090611b5f565b60405180910390fd5b6000600860003373ffffffffffffffffffffffffffffffffffffffff1673ffffffffffffffffffffffffffffffffffffffff1681526020019081526020016000209050806000015482111580156103cb575081600260009054906101000a900473ffffffffffffffffffffffffffffffffffffffff1673ffffffffffffffffffffffffffffffffffffffff166370a08231336040518263ffffffff1660e01b81526004016103879190611b8e565b602060405180830381865afa1580156103a4573d6000803e3d6000fd5b505050506040513d601f19601f820116820180604052508101906103c89190611bbe565b10155b61040a576040517f08c379a000000000000000000000000000000000000000000000000000000000815260040161040190611c37565b60405180910390fd5b60005b81600101805490508110156104f4576000600783600101838154811061043657610435611c57565b5b90600052602060002001548154811061045257610451611c57565b5b906000526020600020906005020190506000849050600115158260040160009054906101000a900460ff161515036104df5780826003015411156104b257808260030160008282546104a49190611cb5565b9250508190555050506104f4565b84811080156104c657506000826003015410155b156104de578160030154816104db9190611cb5565b90505b5b505080806104ec90611ce9565b91505061040d565b50818160000160008282546105099190611cb5565b92505081905550600260009054906101000a900473ffffffffffffffffffffffffffffffffffffffff1673ffffffffffffffffffffffffffffffffffffffff166379cc679033846040518363ffffffff1660e01b815260040161056d929190611d31565b600060405180830381600087803b15801561058757600080fd5b505af115801561059b573d6000803e3d6000fd5b50505050600360009054906101000a900473ffffffffffffffffffffffffffffffffffffffff1673ffffffffffffffffffffffffffffffffffffffff1663a9059cbb33846040518363ffffffff1660e01b81526004016105fc929190611d31565b6020604051808303816000875af115801561061b573d6000803e3d6000fd5b505050506040513d601f19601f8201168201806040525081019061063f9190611d86565b505050565b60008054906101000a900473ffffffffffffffffffffffffffffffffffffffff1673ffffffffffffffffffffffffffffffffffffffff163373ffffffffffffffffffffffffffffffffffffffff16146106d2576040517f08c379a00000000000000000000000000000000000000000000000000000000081526004016106c990611dff565b60405180910390fd5b80600160006101000a81548173ffffffffffffffffffffffffffffffffffffffff021916908373ffffffffffffffffffffffffffffffffffffffff160217905550600160009054906101000a900473ffffffffffffffffffffffffffffffffffffffff1673ffffffffffffffffffffffffffffffffffffffff1663de7390dd306040518263ffffffff1660e01b815260040161076e9190611b8e565b602060405180830381865afa15801561078b573d6000803e3d6000fd5b505050506040513d601f19601f820116820180604052508101906107af9190611d86565b61084157600160009054906101000a900473ffffffffffffffffffffffffffffffffffffffff1673ffffffffffffffffffffffffffffffffffffffff1663702d687f306040518263ffffffff1660e01b815260040161080e9190611b8e565b600060405180830381600087803b15801561082857600080fd5b505af115801561083c573d6000803e3d6000fd5b505050505b50565b60008060009054906101000a900473ffffffffffffffffffffffffffffffffffffffff1673ffffffffffffffffffffffffffffffffffffffff163373ffffffffffffffffffffffffffffffffffffffff16146108d5576040517f08c379a00000000000000000000000000000000000000000000000000000000081526004016108cc90611dff565b60405180910390fd5b600780549050905090565b60011515600360149054906101000a900460ff16151514610936576040517f08c379a000000000000000000000000000000000000000000000000000000000815260040161092d90611e6b565b60405180910390fd5b60045481101561097b576040517f08c379a000000000000000000000000000000000000000000000000000000000815260040161097290611ed7565b60405180910390fd5b80600360009054906101000a900473ffffffffffffffffffffffffffffffffffffffff1673ffffffffffffffffffffffffffffffffffffffff166370a08231336040518263ffffffff1660e01b81526004016109d79190611b8e565b602060405180830381865afa1580156109f4573d6000803e3d6000fd5b505050506040513d601f19601f82011682018060405250810190610a189190611bbe565b1015610a59576040517f08c379a0000000000000000000000000000000000000000000000000000000008152600401610a5090611f43565b60405180910390fd5b600360009054906101000a900473ffffffffffffffffffffffffffffffffffffffff1673ffffffffffffffffffffffffffffffffffffffff166323b872dd3360008054906101000a900473ffffffffffffffffffffffffffffffffffffffff16846040518463ffffffff1660e01b8152600401610ad893929190611f63565b6020604051808303816000875af1158015610af7573d6000803e3d6000fd5b505050506040513d601f19601f82011682018060405250810190610b1b9190611d86565b610b5a576040517f08c379a0000000000000000000000000000000000000000000000000000000008152600401610b519061200c565b60405180910390fd5b610b6261179f565b6006548160200181815250508181606001818152505033816000019073ffffffffffffffffffffffffffffffffffffffff16908173ffffffffffffffffffffffffffffffffffffffff1681525050605b8361ffff161480610bc7575060b68361ffff16145b80610bd7575061016c8361ffff16145b15610bf55782816040019061ffff16908161ffff1681525050610c30565b6040517f08c379a0000000000000000000000000000000000000000000000000000000008152600401610c2790612078565b60405180910390fd5b600781908060018154018082558091505060019003906000526020600020906005020160009091909190915060008201518160000160006101000a81548173ffffffffffffffffffffffffffffffffffffffff021916908373ffffffffffffffffffffffffffffffffffffffff1602179055506020820151816001015560408201518160020160006101000a81548161ffff021916908361ffff1602179055506060820151816003015560808201518160040160006101000a81548160ff02191690831515021790555050506000600860003373ffffffffffffffffffffffffffffffffffffffff1673ffffffffffffffffffffffffffffffffffffffff1681526020019081526020016000209050806001016001600780549050610d559190611cb5565b9080600181540180825580915050600190039060005260206000200160009091909190915055600260009054906101000a900473ffffffffffffffffffffffffffffffffffffffff1673ffffffffffffffffffffffffffffffffffffffff166340c10f1933856040518363ffffffff1660e01b8152600401610dd8929190611d31565b600060405180830381600087803b158015610df257600080fd5b505af1158015610e06573d6000803e3d6000fd5b505050508260056000828254610e1c9190612098565b9250508190555050505050565b60008054906101000a900473ffffffffffffffffffffffffffffffffffffffff1673ffffffffffffffffffffffffffffffffffffffff163373ffffffffffffffffffffffffffffffffffffffff1614610eb7576040517f08c379a0000000000000000000000000000000000000000000000000000000008152600401610eae90611dff565b60405180910390fd5b600360159054906101000a900460ff1615600360156101000a81548160ff021916908315150217905550565b60008054906101000a900473ffffffffffffffffffffffffffffffffffffffff1673ffffffffffffffffffffffffffffffffffffffff163373ffffffffffffffffffffffffffffffffffffffff1614610f71576040517f08c379a0000000000000000000000000000000000000000000000000000000008152600401610f6890611dff565b60405180910390fd5b600360149054906101000a900460ff1615600360146101000a81548160ff021916908315150217905550565b60606000600860003373ffffffffffffffffffffffffffffffffffffffff1673ffffffffffffffffffffffffffffffffffffffff16815260200190815260200160002090506000816001018054905067ffffffffffffffff811115611005576110046120cc565b5b60405190808252806020026020018201604052801561103e57816020015b61102b61179f565b8152602001906001900390816110235790505b509050600080600090505b836001018054905081101561118d576000600785600101838154811061107257611071611c57565b5b90600052602060002001548154811061108e5761108d611c57565b5b90600052602060002090600502019050806040518060a00160405290816000820160009054906101000a900473ffffffffffffffffffffffffffffffffffffffff1673ffffffffffffffffffffffffffffffffffffffff1673ffffffffffffffffffffffffffffffffffffffff168152602001600182015481526020016002820160009054906101000a900461ffff1661ffff1661ffff168152602001600382015481526020016004820160009054906101000a900460ff16151515158152505084848061115b90611ce9565b95508151811061116e5761116d611c57565b5b602002602001018190525050808061118590611ce9565b915050611049565b5081935050505090565b60008054906101000a900473ffffffffffffffffffffffffffffffffffffffff1673ffffffffffffffffffffffffffffffffffffffff163373ffffffffffffffffffffffffffffffffffffffff1614611225576040517f08c379a000000000000000000000000000000000000000000000000000000000815260040161121c90611dff565b60405180910390fd5b8060048190555050565b60008054906101000a900473ffffffffffffffffffffffffffffffffffffffff1673ffffffffffffffffffffffffffffffffffffffff163373ffffffffffffffffffffffffffffffffffffffff16146112bd576040517f08c379a00000000000000000000000000000000000000000000000000000000081526004016112b490611dff565b60405180910390fd5b6947ff6fdacacbac800000600260009054906101000a900473ffffffffffffffffffffffffffffffffffffffff1673ffffffffffffffffffffffffffffffffffffffff166318160ddd6040518163ffffffff1660e01b8152600401602060405180830381865afa158015611335573d6000803e3d6000fd5b505050506040513d601f19601f820116820180604052508101906113599190611bbe565b10611399576040517f08c379a000000000000000000000000000000000000000000000000000000000815260040161139090612147565b60405180910390fd5b600660008154809291906113ac90611ce9565b91905055506000808290505b600780549050811015611794576000600782815481106113db576113da611c57565b5b9060005260206000209060050201905060008160030154148061140357506004548160030154105b1561140e5750611781565b600081600301549050605b8260020160009054906101000a900461ffff1661ffff160361146157610c606002826114459190612167565b61144f91906121d8565b8161145a9190612098565b90506114f4565b60b68260020160009054906101000a900461ffff1661ffff16036114ab57611e6a60078261148f9190612167565b61149991906121d8565b816114a49190612098565b90506114f3565b61016c8260020160009054906101000a900461ffff1661ffff16036114f257610b606005826114da9190612167565b6114e491906121d8565b816114ef9190612098565b90505b5b5b60008260030154826115069190611cb5565b9050600260009054906101000a900473ffffffffffffffffffffffffffffffffffffffff1673ffffffffffffffffffffffffffffffffffffffff166340c10f198460000160009054906101000a900473ffffffffffffffffffffffffffffffffffffffff16836040518363ffffffff1660e01b8152600401611589929190611d31565b600060405180830381600087803b1580156115a357600080fd5b505af11580156115b7573d6000803e3d6000fd5b50505050808360030160008282546115cf9190612098565b92505081905550600015158360040160009054906101000a900460ff1615150361160d5780600560008282546116059190612098565b925050819055505b6000600860008560000160009054906101000a900473ffffffffffffffffffffffffffffffffffffffff1673ffffffffffffffffffffffffffffffffffffffff1673ffffffffffffffffffffffffffffffffffffffff1681526020019081526020016000209050600015158460040160009054906101000a900460ff1615151480156116c057508360020160009054906101000a900461ffff1661ffff1684600101546006546116bd9190611cb5565b10155b156117235760018460040160006101000a81548160ff0219169083151502179055508360030154600560008282546116f89190611cb5565b9250508190555083600301548160000160008282546117179190612098565b9250508190555061175d565b600115158460040160009054906101000a900460ff1615150361175c57818160000160008282546117549190612098565b925050819055505b5b858061176890611ce9565b9650506064860361177c5750505050611794565b505050505b808061178c90611ce9565b9150506113b8565b505050565b60045481565b6040518060a00160405280600073ffffffffffffffffffffffffffffffffffffffff16815260200160008152602001600061ffff168152602001600081526020016000151581525090565b6000819050919050565b6117fd816117ea565b82525050565b600060208201905061181860008301846117f4565b92915050565b600080fd5b61182c816117ea565b811461183757600080fd5b50565b60008135905061184981611823565b92915050565b6000602082840312156118655761186461181e565b5b60006118738482850161183a565b91505092915050565b600073ffffffffffffffffffffffffffffffffffffffff82169050919050565b60006118a78261187c565b9050919050565b6118b78161189c565b81146118c257600080fd5b50565b6000813590506118d4816118ae565b92915050565b6000602082840312156118f0576118ef61181e565b5b60006118fe848285016118c5565b91505092915050565b600061ffff82169050919050565b61191e81611907565b811461192957600080fd5b50565b60008135905061193b81611915565b92915050565b600080604083850312156119585761195761181e565b5b60006119668582860161192c565b92505060206119778582860161183a565b9150509250929050565b600081519050919050565b600082825260208201905092915050565b6000819050602082019050919050565b6119b68161189c565b82525050565b6119c5816117ea565b82525050565b6119d481611907565b82525050565b60008115159050919050565b6119ef816119da565b82525050565b60a082016000820151611a0b60008501826119ad565b506020820151611a1e60208501826119bc565b506040820151611a3160408501826119cb565b506060820151611a4460608501826119bc565b506080820151611a5760808501826119e6565b50505050565b6000611a6983836119f5565b60a08301905092915050565b6000602082019050919050565b6000611a8d82611981565b611a97818561198c565b9350611aa28361199d565b8060005b83811015611ad3578151611aba8882611a5d565b9750611ac583611a75565b925050600181019050611aa6565b5085935050505092915050565b60006020820190508181036000830152611afa8184611a82565b905092915050565b600082825260208201905092915050565b7f556e7374616b696e6720686173206265656e2068616c74656400000000000000600082015250565b6000611b49601983611b02565b9150611b5482611b13565b602082019050919050565b60006020820190508181036000830152611b7881611b3c565b9050919050565b611b888161189c565b82525050565b6000602082019050611ba36000830184611b7f565b92915050565b600081519050611bb881611823565b92915050565b600060208284031215611bd457611bd361181e565b5b6000611be284828501611ba9565b91505092915050565b7f416d6f756e74206578636565647320756e6c6f636b65642062616c616e636500600082015250565b6000611c21601f83611b02565b9150611c2c82611beb565b602082019050919050565b60006020820190508181036000830152611c5081611c14565b9050919050565b7f4e487b7100000000000000000000000000000000000000000000000000000000600052603260045260246000fd5b7f4e487b7100000000000000000000000000000000000000000000000000000000600052601160045260246000fd5b6000611cc0826117ea565b9150611ccb836117ea565b9250828203905081811115611ce357611ce2611c86565b5b92915050565b6000611cf4826117ea565b91507fffffffffffffffffffffffffffffffffffffffffffffffffffffffffffffffff8203611d2657611d25611c86565b5b600182019050919050565b6000604082019050611d466000830185611b7f565b611d5360208301846117f4565b9392505050565b611d63816119da565b8114611d6e57600080fd5b50565b600081519050611d8081611d5a565b92915050565b600060208284031215611d9c57611d9b61181e565b5b6000611daa84828501611d71565b91505092915050565b7f596f75277265206e6f7420746865206f776e6572000000000000000000000000600082015250565b6000611de9601483611b02565b9150611df482611db3565b602082019050919050565b60006020820190508181036000830152611e1881611ddc565b9050919050565b7f5374616b696e6720686173206265656e2068616c746564000000000000000000600082015250565b6000611e55601783611b02565b9150611e6082611e1f565b602082019050919050565b60006020820190508181036000830152611e8481611e48565b9050919050565b7f416d6f756e742069732062656c6f77206d696e696d756d207374616b65000000600082015250565b6000611ec1601d83611b02565b9150611ecc82611e8b565b602082019050919050565b60006020820190508181036000830152611ef081611eb4565b9050919050565b7f416d6f756e742070726f766964656420657863656564732062616c616e636500600082015250565b6000611f2d601f83611b02565b9150611f3882611ef7565b602082019050919050565b60006020820190508181036000830152611f5c81611f20565b9050919050565b6000606082019050611f786000830186611b7f565b611f856020830185611b7f565b611f9260408301846117f4565b949350505050565b7f4661696c656420746f207472616e73666572207374616b696e6720616d6f756e60008201527f7400000000000000000000000000000000000000000000000000000000000000602082015250565b6000611ff6602183611b02565b915061200182611f9a565b604082019050919050565b6000602082019050818103600083015261202581611fe9565b9050919050565b7f496e76616c696420706172616d65746572207375626d69747465640000000000600082015250565b6000612062601b83611b02565b915061206d8261202c565b602082019050919050565b6000602082019050818103600083015261209181612055565b9050919050565b60006120a3826117ea565b91506120ae836117ea565b92508282019050808211156120c6576120c5611c86565b5b92915050565b7f4e487b7100000000000000000000000000000000000000000000000000000000600052604160045260246000fd5b7f46756e64206465706c6574656421000000000000000000000000000000000000600082015250565b6000612131600e83611b02565b915061213c826120fb565b602082019050919050565b6000602082019050818103600083015261216081612124565b9050919050565b6000612172826117ea565b915061217d836117ea565b925082820261218b816117ea565b915082820484148315176121a2576121a1611c86565b5b5092915050565b7f4e487b7100000000000000000000000000000000000000000000000000000000600052601260045260246000fd5b60006121e3826117ea565b91506121ee836117ea565b9250826121fe576121fd6121a9565b5b82820490509291505056fea26469706673582212200cbce849c3de3e6ff47c067eb2805f18278a2ff0aafe25adba5eb1857e644e3364736f6c63430008130033",
  "immutableReferences": {},
  "source": "// SPDX-License-Identifier: UNLICENSED\npragma solidity ^0.8.19;\n\nimport \"@openzeppelin/contracts/token/ERC20/IERC20.sol\";\nimport \"./IAccounts.sol\";\nimport \"./IBurnableToken.sol\";\n\n// TODO: add check for zero address in relevant blocks\n\ncontract StakingPool {\n\n  address treasury;\n\n  IAccounts accountsContract;\n  IBurnableToken stakedToken;\n  IERC20 unstakedToken;\n\n  bool allowStaking = true;\n  bool allowUnstaking = true;\n\n  uint256 public minStakeAmount;\n  uint256 public totalLockedAmount;\n  uint256 public issuedEarningsIndex;\n\n  struct StakeStruct {\n    address staker;\n    uint256 startedAtEarningsIndex;\n    uint16 lockingDays;\n    uint256 amount;\n    bool unlocked;\n  }\n\n  StakeStruct[] stakes;\n\n  // Don't track empty indices since we're using a mapping \n  // which leaves no empty slots when deletions are performed\n  struct StakerStruct {\n    uint256 unlockedAmount;\n    uint256[] stakesIndices;\n  }\n\n  mapping(address => StakerStruct) stakers; // staker => StakerStruct\n\n  modifier onlyOwner {\n    require(msg.sender == treasury, \"You're not the owner\");\n    _;\n  }\n\n  constructor(address unstakedTokenAddress, address stakedTokenAddress) {\n    unstakedToken = IERC20(unstakedTokenAddress);\n    stakedToken = IBurnableToken(stakedTokenAddress);\n    treasury = msg.sender;\n  }\n\n  // IMPORTANT!! This contract must be granted admin role in Accounts.sol\n  //             in migration or test script via `Accounts.addAdmin`\n  //             It serves to allow using Accounts.toggleIsExcludedFromTransferFee\n\n  function setAccountsContract(address contractAddress) external onlyOwner {\n    accountsContract = IAccounts(contractAddress);\n    if (!accountsContract.isExcludedFromTransferFee(address(this))) {\n      accountsContract.toggleIsExcludedFromTransferFee(address(this));\n    }\n  }\n\n  function setMinStakeAmount(uint256 amount) external onlyOwner {\n    minStakeAmount = amount;\n  }\n\n  function toggleAllowStaking() external onlyOwner {\n    allowStaking = !allowStaking;\n  }\n\n  function toggleAllowUnstaking() external onlyOwner {\n    allowUnstaking = !allowUnstaking;\n  }\n\n  function getUnlockedAmount() external view returns(uint256) {\n    StakerStruct storage staker = stakers[msg.sender];\n    return staker.unlockedAmount;\n  }\n\n  function getStakes() external view returns(StakeStruct[] memory) {\n    StakerStruct storage staker = stakers[msg.sender];\n    StakeStruct[] memory results = new StakeStruct[](staker.stakesIndices.length);\n\n    uint256 j;\n    for (uint256 i = 0; i < staker.stakesIndices.length; i++) {\n      StakeStruct storage aStake = stakes[staker.stakesIndices[i]];\n      results[j++] = aStake;\n    }\n\n    return results;\n  }\n\n  // Process\n  // 1. call getStakesLength\n  // 2. call disburseEarnings by supplying loop's starting index\n  //    each call disburses earnings for ~100 accounts\n  function getStakesLength() external onlyOwner view returns(uint256) {\n    return stakes.length;\n  }\n\n  // let's but gas to send them their earnings\n  // else if some just stakes and forgets to\n  // apply then others will keep applying and\n  // deplete the funds and the sleeper will get nothing\n  // return number of stakes remaining to disburse earnings to\n  function disburseEarnings(uint256 startLoopAtIndex) external onlyOwner {\n\n    require(stakedToken.totalSupply() < 340000 ether, \"Fund depleted!\"); // 34% of stKDSK\n\n    issuedEarningsIndex++;\n\n    uint256 counter;\n\n    // iterate over stakes\n    // below this loop is a way for those with amount below minimum \n    // stake to unlock their tokens after the locking period\n    for (uint256 i = startLoopAtIndex; i < stakes.length; i++) {\n      // Using variable name `aStake` bcoz `stake` \n      // triggers an already declared variable name\n      StakeStruct storage aStake = stakes[i];\n\n      if (aStake.amount == 0 || aStake.amount < minStakeAmount) {\n        continue; // non-existent key or amount below minimum stake\n      }\n\n      // IMPORTANT: Overflow may occur but value will \n      //            be truncated, hence no need to fix it.\n      uint256 stakedAmount = aStake.amount;\n\n      // how to derive dividers...\n      // 1. pick any number sufficiently large e.g. 8\n      // 2. divide that number by weekly percentage in `kdsk.html`\n      // each APY x 0.66796 = next lesser APY\n      // Compound Interest Formula: stakedAmount x (1 + (%/365))**(365*100)\n      if (aStake.lockingDays == 91) {\n        stakedAmount += (stakedAmount * 2) / 3168; // 25.9%\n      } else if (aStake.lockingDays == 182) {\n        stakedAmount += (stakedAmount * 7) / 7786; // 38.8%\n      } else if (aStake.lockingDays == 364) {\n        stakedAmount += (stakedAmount * 5) / 2912; // 87.0%\n      }\n\n      uint256 mintAmount = stakedAmount - aStake.amount;\n      stakedToken.mint(aStake.staker, mintAmount);\n      aStake.amount += mintAmount;\n\n      // We're keeping this above auto-unlock bcoz\n      // there might be an unlocking right after this\n      if (aStake.unlocked == false) {\n        totalLockedAmount += mintAmount; // Addition\n      }\n\n      StakerStruct storage staker = stakers[aStake.staker];\n\n      // Auto-Unlock\n      if (\n        aStake.unlocked == false && \n        (issuedEarningsIndex - aStake.startedAtEarningsIndex) >= aStake.lockingDays\n      ) {\n        aStake.unlocked = true;\n        totalLockedAmount -= aStake.amount; // Subtraction\n        staker.unlockedAmount += aStake.amount;\n      } else if (aStake.unlocked == true) {\n        staker.unlockedAmount += mintAmount;\n      }\n\n      counter++;\n      if (counter == 100) { // TODO: find number of accounts which is best for saving gas\n        break;\n      }\n    }\n  }\n\n  // unstake an unlocked amount, which means when unlocking date is due, \n  // `unlockedAmount` should be incremented for that account\n  function unstake(uint256 amount) external {\n    require(allowUnstaking == true, \"Unstaking has been halted\");\n\n    StakerStruct storage staker = stakers[msg.sender];\n\n    require(\n      amount <= staker.unlockedAmount && stakedToken.balanceOf(msg.sender) >= amount, \n      \"Amount exceeds unlocked balance\"\n    );\n\n    // iterate and make deductions on unlocked stakes until amount \n    // is reached... delete stake whose amount is fully utilized\n    for (uint256 i = 0; i < staker.stakesIndices.length; i++) {\n      StakeStruct storage aStake = stakes[staker.stakesIndices[i]];\n\n      uint256 tempAmount = amount;\n      if (aStake.unlocked == true) {\n        if (aStake.amount > tempAmount) {\n          aStake.amount -= tempAmount;\n          break; // will always be our exit point\n        } else if (tempAmount < amount && aStake.amount >= 0) {\n          tempAmount -= aStake.amount;\n        }\n      }\n    }\n\n    staker.unlockedAmount -= amount;\n    stakedToken.burnFrom(msg.sender, amount);\n\n    // IMPORTANT: management must make sure there are \n    //            enough funds in contract always\n    unstakedToken.transfer(msg.sender, amount);\n  }\n\n  function stake(uint16 lockingDays, uint256 amount) external {\n    require(allowStaking == true, \"Staking has been halted\");\n\n    // no need to check this again in disburseEarnings\n    require(amount >= minStakeAmount, \"Amount is below minimum stake\");\n\n    require(\n      unstakedToken.balanceOf(msg.sender) >= amount, \n      \"Amount provided exceeds balance\"\n    );\n\n    // IMPORTANT: using require to perform actions \n    //            bcoz these expressions return boolean\n    require(\n      unstakedToken.transferFrom(msg.sender, treasury, amount), \n      \"Failed to transfer staking amount\"\n    );\n\n    StakeStruct memory aStake;\n    aStake.startedAtEarningsIndex = issuedEarningsIndex;\n    aStake.amount = amount;\n    aStake.staker = msg.sender;\n\n    if (lockingDays == 91 || lockingDays == 182 || lockingDays == 364) {\n      aStake.lockingDays = lockingDays;\n    } else {\n      revert(\"Invalid parameter submitted\");\n    }\n\n    stakes.push(aStake);\n\n    StakerStruct storage staker = stakers[msg.sender];\n    staker.stakesIndices.push(stakes.length - 1);\n\n    stakedToken.mint(msg.sender, amount);\n    totalLockedAmount += amount;\n  }\n\n}\n",
  "sourcePath": "/home/peps/progjects/kdsk/contracts/StakingPool.sol",
  "compiler": {
    "name": "solc",
    "version": "0.8.19+commit.7dd6d404.Emscripten.clang"
  },
  "schemaVersion": "3.4.13",
  "updatedAt": "2023-06-24T06:55:48.889Z",
  "networkType": "ethereum",
  "devdoc": {
    "kind": "dev",
    "methods": {},
    "version": 1
  },
  "userdoc": {
    "kind": "user",
    "methods": {},
    "version": 1
  }
}